{
  "contractName": "InvoiceTracker",
  "abi": [
    {
      "inputs": [],
      "stateMutability": "payable",
      "type": "constructor"
    },
    {
      "inputs": [
        {
          "internalType": "address payable",
          "name": "newOwner",
          "type": "address"
        }
      ],
      "name": "changeOwner",
      "outputs": [],
      "stateMutability": "nonpayable",
      "type": "function"
    },
    {
      "inputs": [],
      "name": "getCurrentOwner",
      "outputs": [
        {
          "internalType": "address",
          "name": "",
          "type": "address"
        }
      ],
      "stateMutability": "view",
      "type": "function"
    },
    {
      "inputs": [
        {
          "internalType": "address",
          "name": "clientID",
          "type": "address"
        },
        {
          "internalType": "string",
          "name": "name",
          "type": "string"
        }
      ],
      "name": "addClient",
      "outputs": [],
      "stateMutability": "nonpayable",
      "type": "function"
    }
  ],
  "bytecode": "0x608060405260006001556000600255336000806101000a81548173ffffffffffffffffffffffffffffffffffffffff021916908373ffffffffffffffffffffffffffffffffffffffff1602179055506106318061005d6000396000f3fe608060405234801561001057600080fd5b50600436106100415760003560e01c8063a18a186b14610046578063a6f9dae114610090578063e292ec08146100d4575b600080fd5b61004e6101af565b604051808273ffffffffffffffffffffffffffffffffffffffff1673ffffffffffffffffffffffffffffffffffffffff16815260200191505060405180910390f35b6100d2600480360360208110156100a657600080fd5b81019080803573ffffffffffffffffffffffffffffffffffffffff1690602001909291905050506101d8565b005b6101ad600480360360408110156100ea57600080fd5b81019080803573ffffffffffffffffffffffffffffffffffffffff1690602001909291908035906020019064010000000081111561012757600080fd5b82018360208201111561013957600080fd5b8035906020019184600183028401116401000000008311171561015b57600080fd5b91908080601f016020809104026020016040519081016040528093929190818152602001838380828437600081840152601f19601f8201169050808301925050505050505091929192905050506102c0565b005b60008060009054906101000a900473ffffffffffffffffffffffffffffffffffffffff16905090565b6000809054906101000a900473ffffffffffffffffffffffffffffffffffffffff1673ffffffffffffffffffffffffffffffffffffffff163373ffffffffffffffffffffffffffffffffffffffff161461027d576040517f08c379a00000000000000000000000000000000000000000000000000000000081526004018080602001828103825260398152602001806105c36039913960400191505060405180910390fd5b806000806101000a81548173ffffffffffffffffffffffffffffffffffffffff021916908373ffffffffffffffffffffffffffffffffffffffff16021790555050565b816003826040518082805190602001908083835b602083106102f757805182526020820191506020810190506020830392506102d4565b6001836020036101000a038019825116818451168082178552505050505050905001915050908152602001604051809103902060000160006101000a81548173ffffffffffffffffffffffffffffffffffffffff021916908373ffffffffffffffffffffffffffffffffffffffff160217905550806003826040518082805190602001908083835b602083106103a2578051825260208201915060208101905060208303925061037f565b6001836020036101000a038019825116818451168082178552505050505050905001915050908152602001604051809103902060010190805190602001906103eb92919061051d565b5060016003826040518082805190602001908083835b602083106104245780518252602082019150602081019050602083039250610401565b6001836020036101000a038019825116818451168082178552505050505050905001915050908152602001604051809103902060020160006101000a81548160ff021916908315150217905550816004826040518082805190602001908083835b602083106104a85780518252602082019150602081019050602083039250610485565b6001836020036101000a038019825116818451168082178552505050505050905001915050908152602001604051809103902060006101000a81548173ffffffffffffffffffffffffffffffffffffffff021916908373ffffffffffffffffffffffffffffffffffffffff1602179055505050565b828054600181600116156101000203166002900490600052602060002090601f016020900481019282601f1061055e57805160ff191683800117855561058c565b8280016001018555821561058c579182015b8281111561058b578251825591602001919060010190610570565b5b509050610599919061059d565b5090565b6105bf91905b808211156105bb5760008160009055506001016105a3565b5090565b9056fe4f6e6c7920746865206f776e6572206f662074686520636f6e74726163742063616e206578656375746520746869732066756e6374696f6e2ea264697066735822122000268c9f0250053129bae8aab386753a24288b90abd47e67737d5036719c5d9b64736f6c63430006060033",
  "source": "pragma solidity 0.6.6;\n\nimport \"./Owned.sol\";\n\n/// @title Invoice Tracking contract\n/// @author Denis M. Putnam\n/// @notice This contract tracks invoices for payment\n/// @dev Use at your own risk.\ncontract InvoiceTracker is Owned {\n  uint256 clientIndex = 0;\n  uint256 clientNameIndex = 0;\n\n  /// @notice Invoice struct\n  struct Invoice {\n    uint256 invoiceNumber;\n    uint256 netTerms; // 30, 60 90, 120 days net\n    uint256 numberHours;\n    uint256 amount;\n    uint256 timesheetEndDate;\n    uint256 invoiceSentData;\n    uint256 due30DaysDate;\n    uint256 due60DaysDate;\n    uint256 due90DaysDate;\n    uint256 due120DaysDate;\n    uint256 datePmtReceived;\n  }\n\n  /// @notice Client struct\n  struct Client {\n    address clientID;\n    string name;\n    bool flag;\n  }\n\n  /// @notice map the name of the client to the Client struct\n  mapping(string => Client) private clientMap;\n  /// @notice map the name of the client to the client address\n  mapping(string => address) private clientNameAddressMap;\n\n  /// @author Denis M. Putnam\n  /// @notice The constructor for this contract\n  /// @dev no other details\n  constructor() Owned() payable public {\n  }\n\n  /// @author Denis M. Putnam\n  /// @notice Add a client to this contract.\n  /// @param clientID address of the wallet of the client.\n  /// @param name string with the client's name.  This needs to be unique\n  /// @dev Add's a client to the clientMap and the clientNameAddressMap\n  function addClient(address clientID, string memory name) public {\n    clientMap[name].clientID = clientID;\n    clientMap[name].name = name;\n    clientMap[name].flag = true;\n    clientNameAddressMap[name] = clientID;\n  }\n}\n",
  "sourcePath": "/Users/denisputnam/git/APDF-invoice-tracker-dapp/contracts/InvoiceTracker.sol",
  "compiler": {
    "name": "solc",
    "version": "0.6.6+commit.6c089d02.Emscripten.clang"
  },
  "schemaVersion": "3.0.23",
  "updatedAt": "2020-04-26T20:13:56.148Z",
  "devdoc": {
    "author": "Denis M. Putnam",
    "details": "Use at your own risk.",
    "methods": {
      "addClient(address,string)": {
        "author": "Denis M. Putnam",
        "details": "Add's a client to the clientMap and the clientNameAddressMap",
        "params": {
          "clientID": "address of the wallet of the client.",
          "name": "string with the client's name.  This needs to be unique"
        }
      },
      "changeOwner(address)": {
        "author": "Denis M. Putnam",
        "details": "No other details.",
        "params": {
          "newOwner": "new address payable owner."
        }
      },
      "constructor": {
        "author": "Denis M. Putnam",
        "details": "no other details"
      },
      "getCurrentOwner()": {
        "author": "Denis M. Putnam",
        "details": "No other details.",
        "returns": {
          "_0": "address current owner."
        }
      }
    },
    "title": "Invoice Tracking contract"
  },
  "userdoc": {
    "methods": {
      "addClient(address,string)": {
        "notice": "Add a client to this contract."
      },
      "changeOwner(address)": {
        "notice": "Change the current owner to the new owner."
      },
      "constructor": "The constructor for this contract",
      "getCurrentOwner()": {
        "notice": "Get the current owner."
      }
    },
    "notice": "This contract tracks invoices for payment"
  }
}