{
  "contractName": "InvoiceTracker",
  "abi": [
    {
      "inputs": [],
      "stateMutability": "payable",
      "type": "constructor"
    },
    {
      "anonymous": false,
      "inputs": [
        {
          "indexed": false,
          "internalType": "address",
          "name": "_clientID",
          "type": "address"
        },
        {
          "indexed": false,
          "internalType": "string",
          "name": "_name",
          "type": "string"
        }
      ],
      "name": "addClientEvent",
      "type": "event"
    },
    {
      "anonymous": false,
      "inputs": [
        {
          "indexed": false,
          "internalType": "string",
          "name": "_clientName",
          "type": "string"
        },
        {
          "indexed": false,
          "internalType": "uint256",
          "name": "_invoiceNumber",
          "type": "uint256"
        },
        {
          "indexed": false,
          "internalType": "uint256",
          "name": "_netTerms",
          "type": "uint256"
        },
        {
          "indexed": false,
          "internalType": "uint256",
          "name": "_numberHours",
          "type": "uint256"
        },
        {
          "indexed": false,
          "internalType": "string",
          "name": "_amount",
          "type": "string"
        },
        {
          "indexed": false,
          "internalType": "uint256",
          "name": "_timesheetEndDate",
          "type": "uint256"
        },
        {
          "indexed": false,
          "internalType": "uint256",
          "name": "_invoiceSentDate",
          "type": "uint256"
        },
        {
          "indexed": false,
          "internalType": "uint256",
          "name": "_due30DaysDate",
          "type": "uint256"
        },
        {
          "indexed": false,
          "internalType": "uint256",
          "name": "_due60DaysDate",
          "type": "uint256"
        },
        {
          "indexed": false,
          "internalType": "uint256",
          "name": "_due90DaysDate",
          "type": "uint256"
        },
        {
          "indexed": false,
          "internalType": "uint256",
          "name": "_due120DaysDate",
          "type": "uint256"
        },
        {
          "indexed": false,
          "internalType": "uint256",
          "name": "_datePmtReceived",
          "type": "uint256"
        }
      ],
      "name": "addInvoiceEvent",
      "type": "event"
    },
    {
      "anonymous": false,
      "inputs": [
        {
          "indexed": false,
          "internalType": "string",
          "name": "_clientName",
          "type": "string"
        },
        {
          "indexed": false,
          "internalType": "uint256",
          "name": "_invoiceNumber",
          "type": "uint256"
        },
        {
          "indexed": false,
          "internalType": "uint256",
          "name": "_datePmtReceived",
          "type": "uint256"
        }
      ],
      "name": "updateInvoiceEvent",
      "type": "event"
    },
    {
      "inputs": [
        {
          "internalType": "address payable",
          "name": "newOwner",
          "type": "address"
        }
      ],
      "name": "changeOwner",
      "outputs": [],
      "stateMutability": "nonpayable",
      "type": "function"
    },
    {
      "inputs": [],
      "name": "getCurrentOwner",
      "outputs": [
        {
          "internalType": "address",
          "name": "",
          "type": "address"
        }
      ],
      "stateMutability": "view",
      "type": "function"
    },
    {
      "inputs": [
        {
          "internalType": "address",
          "name": "_clientID",
          "type": "address"
        },
        {
          "internalType": "string",
          "name": "_name",
          "type": "string"
        }
      ],
      "name": "addClient",
      "outputs": [],
      "stateMutability": "nonpayable",
      "type": "function"
    },
    {
      "inputs": [
        {
          "internalType": "string",
          "name": "_name",
          "type": "string"
        }
      ],
      "name": "getClient",
      "outputs": [
        {
          "internalType": "string",
          "name": "name",
          "type": "string"
        },
        {
          "internalType": "address",
          "name": "clientID",
          "type": "address"
        }
      ],
      "stateMutability": "view",
      "type": "function"
    },
    {
      "inputs": [
        {
          "internalType": "string",
          "name": "_clientName",
          "type": "string"
        },
        {
          "internalType": "uint256",
          "name": "_invoiceNumber",
          "type": "uint256"
        },
        {
          "internalType": "uint256",
          "name": "_netTerms",
          "type": "uint256"
        },
        {
          "internalType": "uint256",
          "name": "_numberHours",
          "type": "uint256"
        },
        {
          "internalType": "string",
          "name": "_amount",
          "type": "string"
        },
        {
          "internalType": "uint256",
          "name": "_timesheetEndDate",
          "type": "uint256"
        },
        {
          "internalType": "uint256",
          "name": "_invoiceSentDate",
          "type": "uint256"
        },
        {
          "internalType": "uint256",
          "name": "_due30DaysDate",
          "type": "uint256"
        },
        {
          "internalType": "uint256",
          "name": "_due60DaysDate",
          "type": "uint256"
        },
        {
          "internalType": "uint256",
          "name": "_due90DaysDate",
          "type": "uint256"
        },
        {
          "internalType": "uint256",
          "name": "_due120DaysDate",
          "type": "uint256"
        }
      ],
      "name": "addInvoice",
      "outputs": [],
      "stateMutability": "nonpayable",
      "type": "function"
    },
    {
      "inputs": [
        {
          "internalType": "string",
          "name": "_clientName",
          "type": "string"
        }
      ],
      "name": "getInvoiceCount",
      "outputs": [
        {
          "internalType": "uint256",
          "name": "count",
          "type": "uint256"
        }
      ],
      "stateMutability": "view",
      "type": "function"
    },
    {
      "inputs": [
        {
          "internalType": "string",
          "name": "_clientName",
          "type": "string"
        }
      ],
      "name": "getInvoiceNumbers",
      "outputs": [
        {
          "internalType": "string",
          "name": "",
          "type": "string"
        }
      ],
      "stateMutability": "view",
      "type": "function"
    },
    {
      "inputs": [
        {
          "internalType": "string",
          "name": "_clientName",
          "type": "string"
        },
        {
          "internalType": "uint256",
          "name": "_invoiceNumber",
          "type": "uint256"
        },
        {
          "internalType": "uint256",
          "name": "_invoicePmtDate",
          "type": "uint256"
        }
      ],
      "name": "updateInvoice",
      "outputs": [],
      "stateMutability": "nonpayable",
      "type": "function"
    },
    {
      "inputs": [
        {
          "internalType": "string",
          "name": "_clientName",
          "type": "string"
        },
        {
          "internalType": "uint256",
          "name": "_invoiceNumber",
          "type": "uint256"
        }
      ],
      "name": "getInvoice",
      "outputs": [
        {
          "internalType": "uint256",
          "name": "invoiceNumber",
          "type": "uint256"
        },
        {
          "internalType": "uint256",
          "name": "netTerms",
          "type": "uint256"
        },
        {
          "internalType": "uint256",
          "name": "numberHours",
          "type": "uint256"
        },
        {
          "internalType": "string",
          "name": "amount",
          "type": "string"
        },
        {
          "internalType": "uint256",
          "name": "timesheetEndDate",
          "type": "uint256"
        },
        {
          "internalType": "uint256",
          "name": "invoiceSentDate",
          "type": "uint256"
        },
        {
          "internalType": "uint256",
          "name": "due30DaysDate",
          "type": "uint256"
        },
        {
          "internalType": "uint256",
          "name": "due60DaysDate",
          "type": "uint256"
        },
        {
          "internalType": "uint256",
          "name": "due90DaysDate",
          "type": "uint256"
        },
        {
          "internalType": "uint256",
          "name": "due120DaysDate",
          "type": "uint256"
        },
        {
          "internalType": "uint256",
          "name": "datePmtReceived",
          "type": "uint256"
        }
      ],
      "stateMutability": "view",
      "type": "function"
    }
  ],
  "bytecode": "0x6080604052336000806101000a81548173ffffffffffffffffffffffffffffffffffffffff021916908373ffffffffffffffffffffffffffffffffffffffff160217905550612512806100536000396000f3fe608060405234801561001057600080fd5b50600436106100935760003560e01c8063a6f9dae111610066578063a6f9dae11461049c578063b944ef34146104e0578063ba76f13114610614578063db9641b1146106e3578063e292ec081461089057610093565b80637eb7893214610098578063823d8500146101ff57806388e65fd714610383578063a18a186b14610452575b600080fd5b610151600480360360208110156100ae57600080fd5b81019080803590602001906401000000008111156100cb57600080fd5b8201836020820111156100dd57600080fd5b803590602001918460018302840111640100000000831117156100ff57600080fd5b91908080601f016020809104026020016040519081016040528093929190818152602001838380828437600081840152601f19601f82011690508083019250505050505050919291929050505061096b565b60405180806020018373ffffffffffffffffffffffffffffffffffffffff1673ffffffffffffffffffffffffffffffffffffffff168152602001828103825284818151815260200191508051906020019080838360005b838110156101c35780820151818401526020810190506101a8565b50505050905090810190601f1680156101f05780820380516001836020036101000a031916815260200191505b50935050505060405180910390f35b6102c26004803603604081101561021557600080fd5b810190808035906020019064010000000081111561023257600080fd5b82018360208201111561024457600080fd5b8035906020019184600183028401116401000000008311171561026657600080fd5b91908080601f016020809104026020016040519081016040528093929190818152602001838380828437600081840152601f19601f82011690508083019250505050505050919291929080359060200190929190505050610b16565b604051808c81526020018b81526020018a81526020018060200189815260200188815260200187815260200186815260200185815260200184815260200183815260200182810382528a818151815260200191508051906020019080838360005b8381101561033e578082015181840152602081019050610323565b50505050905090810190601f16801561036b5780820380516001836020036101000a031916815260200191505b509c5050505050505050505050505060405180910390f35b6104506004803603606081101561039957600080fd5b81019080803590602001906401000000008111156103b657600080fd5b8201836020820111156103c857600080fd5b803590602001918460018302840111640100000000831117156103ea57600080fd5b91908080601f016020809104026020016040519081016040528093929190818152602001838380828437600081840152601f19601f8201169050808301925050505050505091929192908035906020019092919080359060200190929190505050610da3565b005b61045a61117e565b604051808273ffffffffffffffffffffffffffffffffffffffff1673ffffffffffffffffffffffffffffffffffffffff16815260200191505060405180910390f35b6104de600480360360208110156104b257600080fd5b81019080803573ffffffffffffffffffffffffffffffffffffffff1690602001909291905050506111a7565b005b610599600480360360208110156104f657600080fd5b810190808035906020019064010000000081111561051357600080fd5b82018360208201111561052557600080fd5b8035906020019184600183028401116401000000008311171561054757600080fd5b91908080601f016020809104026020016040519081016040528093929190818152602001838380828437600081840152601f19601f82011690508083019250505050505050919291929050505061128f565b6040518080602001828103825283818151815260200191508051906020019080838360005b838110156105d95780820151818401526020810190506105be565b50505050905090810190601f1680156106065780820380516001836020036101000a031916815260200191505b509250505060405180910390f35b6106cd6004803603602081101561062a57600080fd5b810190808035906020019064010000000081111561064757600080fd5b82018360208201111561065957600080fd5b8035906020019184600183028401116401000000008311171561067b57600080fd5b91908080601f016020809104026020016040519081016040528093929190818152602001838380828437600081840152601f19601f8201169050808301925050505050505091929192905050506114ed565b6040518082815260200191505060405180910390f35b61088e60048036036101608110156106fa57600080fd5b810190808035906020019064010000000081111561071757600080fd5b82018360208201111561072957600080fd5b8035906020019184600183028401116401000000008311171561074b57600080fd5b91908080601f016020809104026020016040519081016040528093929190818152602001838380828437600081840152601f19601f820116905080830192505050505050509192919290803590602001909291908035906020019092919080359060200190929190803590602001906401000000008111156107cc57600080fd5b8201836020820111156107de57600080fd5b8035906020019184600183028401116401000000008311171561080057600080fd5b91908080601f016020809104026020016040519081016040528093929190818152602001838380828437600081840152601f19601f82011690508083019250505050505050919291929080359060200190929190803590602001909291908035906020019092919080359060200190929190803590602001909291908035906020019092919050505061159f565b005b610969600480360360408110156108a657600080fd5b81019080803573ffffffffffffffffffffffffffffffffffffffff169060200190929190803590602001906401000000008111156108e357600080fd5b8201836020820111156108f557600080fd5b8035906020019184600183028401116401000000008311171561091757600080fd5b91908080601f016020809104026020016040519081016040528093929190818152602001838380828437600081840152601f19601f820116905080830192505050505050509192919290505050611984565b005b6060600060606001846040518082805190602001908083835b602083106109a75780518252602082019150602081019050602083039250610984565b6001836020036101000a03801982511681845116808217855250505050505090500191505090815260200160405180910390206001018054600181600116156101000203166002900480601f016020809104026020016040519081016040528092919081815260200182805460018160011615610100020316600290048015610a715780601f10610a4657610100808354040283529160200191610a71565b820191906000526020600020905b815481529060010190602001808311610a5457829003601f168201915b5050505050905060006001856040518082805190602001908083835b60208310610ab05780518252602082019150602081019050602083039250610a8d565b6001836020036101000a038019825116818451168082178552505050505050905001915050908152602001604051809103902060000160009054906101000a900473ffffffffffffffffffffffffffffffffffffffff1690508181935093505050915091565b600080600060606000806000806000806000610b3061117e565b73ffffffffffffffffffffffffffffffffffffffff163373ffffffffffffffffffffffffffffffffffffffff1614610b6757600080fd5b6000610b738e8e611dde565b90507fffffffffffffffffffffffffffffffffffffffffffffffffffffffffffffffff8114610d9157610ba461237f565b60038f6040518082805190602001908083835b60208310610bda5780518252602082019150602081019050602083039250610bb7565b6001836020036101000a03801982511681845116808217855250505050505090500191505090815260200160405180910390208281548110610c1857fe5b90600052602060002090600b020160405180610160016040529081600082015481526020016001820154815260200160028201548152602001600382018054600181600116156101000203166002900480601f016020809104026020016040519081016040528092919081815260200182805460018160011615610100020316600290048015610ce95780601f10610cbe57610100808354040283529160200191610ce9565b820191906000526020600020905b815481529060010190602001808311610ccc57829003601f168201915b50505050508152602001600482015481526020016005820154815260200160068201548152602001600782015481526020016008820154815260200160098201548152602001600a820154815250509050806000015181602001518260400151836060015184608001518560a001518660c001518760e001518861010001518961012001518a61014001519c509c509c509c509c509c509c509c509c509c509c505050610d93565b505b9295989b509295989b9093969950565b610dab61117e565b73ffffffffffffffffffffffffffffffffffffffff163373ffffffffffffffffffffffffffffffffffffffff1614610de257600080fd5b6000610dee8484611dde565b90507fffffffffffffffffffffffffffffffffffffffffffffffffffffffffffffffff811461117857610e1f61237f565b6003856040518082805190602001908083835b60208310610e555780518252602082019150602081019050602083039250610e32565b6001836020036101000a03801982511681845116808217855250505050505090500191505090815260200160405180910390208281548110610e9357fe5b90600052602060002090600b020160405180610160016040529081600082015481526020016001820154815260200160028201548152602001600382018054600181600116156101000203166002900480601f016020809104026020016040519081016040528092919081815260200182805460018160011615610100020316600290048015610f645780601f10610f3957610100808354040283529160200191610f64565b820191906000526020600020905b815481529060010190602001808311610f4757829003601f168201915b50505050508152602001600482015481526020016005820154815260200160068201548152602001600782015481526020016008820154815260200160098201548152602001600a8201548152505090508281610140018181525050806003866040518082805190602001908083835b60208310610ff75780518252602082019150602081019050602083039250610fd4565b6001836020036101000a0380198251168184511680821785525050505050509050019150509081526020016040518091039020838154811061103557fe5b90600052602060002090600b0201600082015181600001556020820151816001015560408201518160020155606082015181600301908051906020019061107d9291906123d9565b506080820151816004015560a0820151816005015560c0820151816006015560e082015181600701556101008201518160080155610120820151816009015561014082015181600a01559050507f4aaf47da2b830ec7cb39ceac30735c6b5f91912852a2fcbedca8fb36ea7509398585856040518080602001848152602001838152602001828103825285818151815260200191508051906020019080838360005b8381101561113a57808201518184015260208101905061111f565b50505050905090810190601f1680156111675780820380516001836020036101000a031916815260200191505b5094505050505060405180910390a1505b50505050565b60008060009054906101000a900473ffffffffffffffffffffffffffffffffffffffff16905090565b6000809054906101000a900473ffffffffffffffffffffffffffffffffffffffff1673ffffffffffffffffffffffffffffffffffffffff163373ffffffffffffffffffffffffffffffffffffffff161461124c576040517f08c379a00000000000000000000000000000000000000000000000000000000081526004018080602001828103825260398152602001806124a46039913960400191505060405180910390fd5b806000806101000a81548173ffffffffffffffffffffffffffffffffffffffff021916908373ffffffffffffffffffffffffffffffffffffffff16021790555050565b606061129961117e565b73ffffffffffffffffffffffffffffffffffffffff163373ffffffffffffffffffffffffffffffffffffffff16146112d057600080fd5b606060405180602001604052806000815250905060008090505b6004846040518082805190602001908083835b6020831061132057805182526020820191506020810190506020830392506112fd565b6001836020036101000a0380198251168184511680821785525050505050509050019150509081526020016040518091039020548110156114e35760606113eb6003866040518082805190602001908083835b602083106113965780518252602082019150602081019050602083039250611373565b6001836020036101000a038019825116818451168082178552505050505050905001915050908152602001604051809103902083815481106113d457fe5b90600052602060002090600b020160000154611fbf565b905082816040516020018083805190602001908083835b602083106114255780518252602082019150602081019050602083039250611402565b6001836020036101000a03801982511681845116808217855250505050505090500182805190602001908083835b602083106114765780518252602082019150602081019050602083039250611453565b6001836020036101000a038019825116818451168082178552505050505050905001807f2c000000000000000000000000000000000000000000000000000000000000008152506001019250505060405160208183030381529060405292505080806001019150506112ea565b5080915050919050565b60006114f761117e565b73ffffffffffffffffffffffffffffffffffffffff163373ffffffffffffffffffffffffffffffffffffffff161461152e57600080fd5b6004826040518082805190602001908083835b602083106115645780518252602082019150602081019050602083039250611541565b6001836020036101000a0380198251168184511680821785525050505050509050019150509081526020016040518091039020549050919050565b6115a761117e565b73ffffffffffffffffffffffffffffffffffffffff163373ffffffffffffffffffffffffffffffffffffffff16146115de57600080fd5b8a856115ea8282612103565b61165c576040517f08c379a00000000000000000000000000000000000000000000000000000000081526004018080602001828103825260118152602001807f4475706c696361746520696e766f69636500000000000000000000000000000081525060200191505060405180910390fd5b61166461237f565b8c8160000181815250508b8160200181815250508a81604001818152505089816060018190525088816080018181525050878160a0018181525050868160c0018181525050858160e00181815250508481610100018181525050838161012001818152505060038e6040518082805190602001908083835b602083106116ff57805182526020820191506020810190506020830392506116dc565b6001836020036101000a03801982511681845116808217855250505050505090500191505090815260200160405180910390208190806001815401808255809150506001900390600052602060002090600b020160009091909190915060008201518160000155602082015181600101556040820151816002015560608201518160030190805190602001906117969291906123d9565b506080820151816004015560a0820151816005015560c0820151816006015560e082015181600701556101008201518160080155610120820151816009015561014082015181600a015550506117eb8e61222c565b507f64b1990245accd502365916f65e5fcd03e71f750f7fcb75f88e699b5c067b8d98e826000015183602001518460400151856060015186608001518760a001518860c001518960e001518a61010001518b61012001518c610140015160405180806020018d81526020018c81526020018b8152602001806020018a815260200189815260200188815260200187815260200186815260200185815260200184815260200183810383528f818151815260200191508051906020019080838360005b838110156118c85780820151818401526020810190506118ad565b50505050905090810190601f1680156118f55780820380516001836020036101000a031916815260200191505b5083810382528b818151815260200191508051906020019080838360005b8381101561192e578082015181840152602081019050611913565b50505050905090810190601f16801561195b5780820380516001836020036101000a031916815260200191505b509e50505050505050505050505050505060405180910390a15050505050505050505050505050565b61198c61117e565b73ffffffffffffffffffffffffffffffffffffffff163373ffffffffffffffffffffffffffffffffffffffff16146119c357600080fd5b81816119cf81836122ac565b611a41576040517f08c379a00000000000000000000000000000000000000000000000000000000081526004018080602001828103825260158152602001807f436c69656e7420616c726561647920657869737473000000000000000000000081525060200191505060405180910390fd5b836001846040518082805190602001908083835b60208310611a785780518252602082019150602081019050602083039250611a55565b6001836020036101000a038019825116818451168082178552505050505050905001915050908152602001604051809103902060000160006101000a81548173ffffffffffffffffffffffffffffffffffffffff021916908373ffffffffffffffffffffffffffffffffffffffff160217905550826001846040518082805190602001908083835b60208310611b235780518252602082019150602081019050602083039250611b00565b6001836020036101000a03801982511681845116808217855250505050505090500191505090815260200160405180910390206001019080519060200190611b6c9291906123d9565b50600180846040518082805190602001908083835b60208310611ba45780518252602082019150602081019050602083039250611b81565b6001836020036101000a038019825116818451168082178552505050505050905001915050908152602001604051809103902060020160006101000a81548160ff021916908315150217905550836002846040518082805190602001908083835b60208310611c285780518252602082019150602081019050602083039250611c05565b6001836020036101000a038019825116818451168082178552505050505050905001915050908152602001604051809103902060006101000a81548173ffffffffffffffffffffffffffffffffffffffff021916908373ffffffffffffffffffffffffffffffffffffffff16021790555060006004846040518082805190602001908083835b60208310611cd15780518252602082019150602081019050602083039250611cae565b6001836020036101000a0380198251168184511680821785525050505050509050019150509081526020016040518091039020819055507f11ada27156286ec17e2b313f3687beba84ab19beba84f020e2938ed46737d7ae8484604051808373ffffffffffffffffffffffffffffffffffffffff1673ffffffffffffffffffffffffffffffffffffffff16815260200180602001828103825283818151815260200191508051906020019080838360005b83811015611d9d578082015181840152602081019050611d82565b50505050905090810190601f168015611dca5780820380516001836020036101000a031916815260200191505b50935050505060405180910390a150505050565b6000611de861117e565b73ffffffffffffffffffffffffffffffffffffffff163373ffffffffffffffffffffffffffffffffffffffff1614611e1f57600080fd5b8160008111611e79576040517f08c379a000000000000000000000000000000000000000000000000000000000815260040180806020018281038252602581526020018061247f6025913960400191505060405180910390fd5b60008090505b6004856040518082805190602001908083835b60208310611eb55780518252602082019150602081019050602083039250611e92565b6001836020036101000a038019825116818451168082178552505050505050905001915050908152602001604051809103902054811215611f93576003856040518082805190602001908083835b60208310611f265780518252602082019150602081019050602083039250611f03565b6001836020036101000a03801982511681845116808217855250505050505090500191505090815260200160405180910390208181548110611f6457fe5b90600052602060002090600b020160000154841415611f865780925050611fb8565b8080600101915050611e7f565b507fffffffffffffffffffffffffffffffffffffffffffffffffffffffffffffffff91505b5092915050565b60606000821415612007576040518060400160405280600181526020017f300000000000000000000000000000000000000000000000000000000000000081525090506120fe565b600082905060005b60008214612031578080600101915050600a828161202957fe5b04915061200f565b60608167ffffffffffffffff8111801561204a57600080fd5b506040519080825280601f01601f19166020018201604052801561207d5781602001600182028036833780820191505090505b50905060006001830390505b600086146120f657600a868161209b57fe5b0660300160f81b828280600190039350815181106120b557fe5b60200101907effffffffffffffffffffffffffffffffffffffffffffffffffffffffffffff1916908160001a905350600a86816120ee57fe5b049550612089565b819450505050505b919050565b600080600090505b6004846040518082805190602001908083835b60208310612141578051825260208201915060208101905060208303925061211e565b6001836020036101000a038019825116818451168082178552505050505050905001915050908152602001604051809103902054811015612220576003846040518082805190602001908083835b602083106121b2578051825260208201915060208101905060208303925061218f565b6001836020036101000a038019825116818451168082178552505050505050905001915050908152602001604051809103902081815481106121f057fe5b90600052602060002090600b020160000154831415612213576000915050612226565b808060010191505061210b565b50600190505b92915050565b600060016004836040518082805190602001908083835b602083106122665780518252602082019150602081019050602083039250612243565b6001836020036101000a03801982511681845116808217855250505050505090500191505090815260200160405180910390206000828254019250508190559050919050565b60008173ffffffffffffffffffffffffffffffffffffffff166002846040518082805190602001908083835b602083106122fb57805182526020820191506020810190506020830392506122d8565b6001836020036101000a038019825116818451168082178552505050505050905001915050908152602001604051809103902060009054906101000a900473ffffffffffffffffffffffffffffffffffffffff1673ffffffffffffffffffffffffffffffffffffffff1614156123745760009050612379565b600190505b92915050565b60405180610160016040528060008152602001600081526020016000815260200160608152602001600081526020016000815260200160008152602001600081526020016000815260200160008152602001600081525090565b828054600181600116156101000203166002900490600052602060002090601f016020900481019282601f1061241a57805160ff1916838001178555612448565b82800160010185558215612448579182015b8281111561244757825182559160200191906001019061242c565b5b5090506124559190612459565b5090565b61247b91905b8082111561247757600081600090555060010161245f565b5090565b9056fe496e766f696365206e756d626572206d7573742062652067726561746572207468616e20304f6e6c7920746865206f776e6572206f662074686520636f6e74726163742063616e206578656375746520746869732066756e6374696f6e2ea26469706673582212202c2e246c27fd5aa300db101005202ff802faafa78bbb9d93d38d0418a4758c9764736f6c63430006060033",
  "source": "pragma solidity 0.6.6;\n\nimport \"./Owned.sol\";\n\n/// @title Invoice Tracking contract\n/// @author Denis M. Putnam\n/// @notice This contract tracks invoices for payment\n/// @dev Use at your own risk.\ncontract InvoiceTracker is Owned {\n    /// @notice Invoice struct\n    struct Invoice {\n        uint256 invoiceNumber;\n        uint256 netTerms; // 30, 60 90, 120 days net\n        uint256 numberHours;\n        string amount;\n        uint256 timesheetEndDate;\n        uint256 invoiceSentDate;\n        uint256 due30DaysDate;\n        uint256 due60DaysDate;\n        uint256 due90DaysDate;\n        uint256 due120DaysDate;\n        uint256 datePmtReceived;\n    }\n\n    /// @notice Client struct\n    struct Client {\n        address clientID;\n        string name;\n        bool flag;\n    }\n\n    /// @notice map the name of the client to the Client struct\n    mapping(string => Client) private clientMap;\n    /// @notice map the name of the client to the client address\n    mapping(string => address) private clientNameAddressMap;\n    /// @notice map the name of the client to invoices. this isa one to many mapping.\n    mapping(string => Invoice[]) private clientNameInvoiceMap;\n    /// @notice map the name of the client to an invoice count\n    mapping(string => uint256) private clientNameInvoiceCountMap;\n\n    /// @author Denis M. Putnam\n    /// @notice The constructor for this contract\n    /// @dev no other details\n    constructor() public payable Owned() {}\n\n    event addClientEvent(address _clientID, string _name);\n\n    /// @author Denis M. Putnam\n    /// @notice Check for no client.\n    /// @param _clientName name of the client.\n    /// @param _clientID clients wallet address.\n    /// @dev no other details.\n    function isNoClient(string memory _clientName, address _clientID)\n        private\n        view\n        returns (bool)\n    {\n        if (clientNameAddressMap[_clientName] == _clientID) {\n            return false;\n        }\n        return true;\n    }\n\n    modifier noDupClient(address _clientID, string memory _clientName) {\n        require(isNoClient(_clientName, _clientID), \"Client already exists\");\n        _;\n    }\n\n    modifier onlyOwner() {\n        require(msg.sender == getCurrentOwner());\n        _;\n    }\n\n    /// @author Denis M. Putnam\n    /// @notice Add a client to this contract.\n    /// @param _clientID address of the wallet of the client.\n    /// @param _name string with the client's name.  This needs to be unique\n    /// @dev Add's a client to the clientMap and the clientNameAddressMap\n    function addClient(address _clientID, string memory _name)\n        public\n        onlyOwner()\n        noDupClient(_clientID, _name)\n    {\n        clientMap[_name].clientID = _clientID;\n        clientMap[_name].name = _name;\n        clientMap[_name].flag = true;\n        clientNameAddressMap[_name] = _clientID;\n        clientNameInvoiceCountMap[_name] = 0;\n        emit addClientEvent(_clientID, _name);\n    }\n\n    /// @author Denis M. Putnam\n    /// @notice Get the requested client\n    /// @param _name client's name\n    /// @dev Get the client for the given name.\n    /// @return name\n    /// @return clientID\n    function getClient(string memory _name)\n        public\n        view\n        returns (string memory name, address clientID)\n    {\n        string memory lname = clientMap[_name].name;\n        address lclientID = clientMap[_name].clientID;\n        return (lname, lclientID);\n    }\n\n    /// @author Denis M. Putnam\n    /// @notice Check for no duplicate invoice.\n    /// @param _clientName name of the client.\n    /// @param _invoiceNumber invoice number.\n    /// @dev no other details.\n    function isNoDuplicateInvoice(\n        string memory _clientName,\n        uint256 _invoiceNumber\n    ) private view returns (bool) {\n        for (uint256 i = 0; i < clientNameInvoiceCountMap[_clientName]; i++) {\n            // if (_invoiceNumber == clientInvoiceMap[_clientName][i]) {\n            //     return false;\n            // }\n            if (\n                _invoiceNumber ==\n                clientNameInvoiceMap[_clientName][i].invoiceNumber\n            ) {\n                return false;\n            }\n        }\n        return true;\n    }\n\n    modifier noDupInvoice(string memory _clientName, uint256 _invoiceNumber) {\n        require(\n            isNoDuplicateInvoice(_clientName, _invoiceNumber),\n            \"Duplicate invoice\"\n        );\n        _;\n    }\n\n    event addInvoiceEvent(\n        string _clientName,\n        uint256 _invoiceNumber,\n        uint256 _netTerms,\n        uint256 _numberHours,\n        string _amount,\n        uint256 _timesheetEndDate,\n        uint256 _invoiceSentDate,\n        uint256 _due30DaysDate,\n        uint256 _due60DaysDate,\n        uint256 _due90DaysDate,\n        uint256 _due120DaysDate,\n        uint256 _datePmtReceived\n    );\n\n    event updateInvoiceEvent(\n        string _clientName,\n        uint256 _invoiceNumber,\n        uint256 _datePmtReceived\n    );\n\n    /// @author Denis M. Putnam\n    /// @notice Add an invoice to track\n    /// @param _clientName name of the client\n    /// @param _invoiceNumber invoice number\n    /// @param _netTerms net terms for 30, 60, 90, or 120 days.\n    /// @param _numberHours number of hours for the timesheet.\n    /// @param _amount amount in dollars.\n    /// @param _timesheetEndDate timesheet end date\n    /// @param _invoiceSentDate date that invoice was sent to the client.\n    /// @param _due30DaysDate 30 day invoice due date\n    /// @param _due60DaysDate 60 day invoice due date\n    /// @param _due90DaysDate 90 day invoice due date\n    /// @param _due120DaysDate 120 day invoice due date\n    /// @dev Add's an invoice to be tracked.\n    function addInvoice(\n        string memory _clientName,\n        uint256 _invoiceNumber,\n        uint256 _netTerms,\n        uint256 _numberHours,\n        string memory _amount,\n        uint256 _timesheetEndDate,\n        uint256 _invoiceSentDate,\n        uint256 _due30DaysDate,\n        uint256 _due60DaysDate,\n        uint256 _due90DaysDate,\n        uint256 _due120DaysDate\n    ) public onlyOwner() noDupInvoice(_clientName, _invoiceSentDate) {\n        Invoice memory newInvoice;\n        newInvoice.invoiceNumber = _invoiceNumber;\n        newInvoice.netTerms = _netTerms;\n        newInvoice.numberHours = _numberHours;\n        newInvoice.amount = _amount;\n        newInvoice.timesheetEndDate = _timesheetEndDate;\n        newInvoice.invoiceSentDate = _invoiceSentDate;\n        newInvoice.due30DaysDate = _due30DaysDate;\n        newInvoice.due60DaysDate = _due60DaysDate;\n        newInvoice.due90DaysDate = _due90DaysDate;\n        newInvoice.due120DaysDate = _due120DaysDate;\n        clientNameInvoiceMap[_clientName].push(newInvoice);\n\n        incremmentInvoiceCount(_clientName);\n\n        emit addInvoiceEvent(\n            _clientName,\n            newInvoice.invoiceNumber,\n            newInvoice.netTerms,\n            newInvoice.numberHours,\n            newInvoice.amount,\n            newInvoice.timesheetEndDate,\n            newInvoice.invoiceSentDate,\n            newInvoice.due30DaysDate,\n            newInvoice.due60DaysDate,\n            newInvoice.due90DaysDate,\n            newInvoice.due120DaysDate,\n            newInvoice.datePmtReceived\n        );\n\n        // emit addInvoiceEvent(\n        //     _clientName,\n        //     clientNameInvoiceMap[_clientName][0].invoiceNumber,\n        //     clientNameInvoiceMap[_clientName][0].netTerms,\n        //     clientNameInvoiceMap[_clientName][0].numberHours,\n        //     clientNameInvoiceMap[_clientName][0].amount,\n        //     clientNameInvoiceMap[_clientName][0].timesheetEndDate,\n        //     clientNameInvoiceMap[_clientName][0].invoiceSentDate,\n        //     clientNameInvoiceMap[_clientName][0].due30DaysDate,\n        //     clientNameInvoiceMap[_clientName][0].due60DaysDate,\n        //     clientNameInvoiceMap[_clientName][0].due90DaysDate,\n        //     clientNameInvoiceMap[_clientName][0].due120DaysDate,\n        //     clientNameInvoiceMap[_clientName][0].datePmtReceived\n        // );\n    }\n\n    function incremmentInvoiceCount(string memory _clientName)\n        private\n        returns (uint256)\n    {\n        return clientNameInvoiceCountMap[_clientName] += 1;\n    }\n\n    /// @author Denis M. Putnam\n    /// @notice Get the count of invoices associated with the given client name\n    /// @param _clientName name of the client\n    /// @dev no other details.\n    /// @return count of invoices associated with the given client\n    function getInvoiceCount(string memory _clientName)\n        public\n        view\n        onlyOwner()\n        returns (uint256 count)\n    {\n        count = clientNameInvoiceCountMap[_clientName];\n    }\n\n    /// @author Denis M. Putnam\n    /// @notice Get the list of invoice numbers as a string for the given client name.\n    /// @param _clientName name of the client\n    /// @dev returned string is a comma separated string of invoice numbers.  The comma is also the end of the string if no other values appear.\n    /// @return a comma seperated list of invoice numbers associated with the client.\n    function getInvoiceNumbers(string memory _clientName)\n        public\n        view\n        onlyOwner()\n        returns (string memory)\n    {\n        string memory rVal = \"\";\n        for (uint256 i = 0; i < clientNameInvoiceCountMap[_clientName]; i++) {\n            string memory tstring = uint2str(\n                clientNameInvoiceMap[_clientName][i].invoiceNumber\n            );\n            // string tstring = string(lbytes32);\n            //rVal = string(abi.encodePacked(rVal, tstring, \",\"));\n            rVal = string(abi.encodePacked(rVal, tstring, \",\"));\n        }\n        return rVal;\n    }\n\n    modifier isInvoiceNumber(uint256 _invoiceNumber) {\n        require(_invoiceNumber > 0, \"Invoice number must be greater than 0\");\n        _;\n    }\n\n    function findInvoiceIndex(string memory _clientName, uint256 _invoiceNumber)\n        private\n        view\n        onlyOwner()\n        isInvoiceNumber(_invoiceNumber)\n        returns (int256 index)\n    {\n        for (\n            int256 i = 0;\n            i < int256(clientNameInvoiceCountMap[_clientName]);\n            i++\n        ) {\n            //clientNameInvoiceMap\n            if (\n                _invoiceNumber ==\n                clientNameInvoiceMap[_clientName][uint256(i)].invoiceNumber\n            ) {\n                return i;\n            }\n        }\n        return -1;\n    }\n\n    /// @author Denis M. Putnam\n    /// @notice Update an invoice with the payment date\n    /// @param _clientName name of the client\n    /// @param _invoiceNumber invoice number being requested.\n    /// @param _invoicePmtDate payment date\n    /// @dev no other details\n    function updateInvoice(\n        string memory _clientName,\n        uint256 _invoiceNumber,\n        uint256 _invoicePmtDate\n    ) public onlyOwner() {\n        int256 _index = findInvoiceIndex(_clientName, _invoiceNumber);\n        if (_index != -1) {\n            Invoice memory lInvoice = clientNameInvoiceMap[_clientName][uint256(\n                _index\n            )];\n            lInvoice.datePmtReceived = _invoicePmtDate;\n            clientNameInvoiceMap[_clientName][uint256(_index)] = lInvoice;\n            emit updateInvoiceEvent(\n                _clientName,\n                _invoiceNumber,\n                _invoicePmtDate\n            );\n        }\n    }\n\n    /// @author Denis M. Putnam\n    /// @notice Get an invoice\n    /// @param _clientName name of the client\n    /// @param _invoiceNumber invoice number being requested.\n    /// @dev no other details\n    /// @return invoiceNumber\n    /// @return netTerms\n    /// @return numberHours\n    /// @return amount\n    /// @return timesheetEndDate\n    /// @return invoiceSentDate\n    /// @return due30DaysDate\n    /// @return due60DaysDate\n    /// @return due90DaysDate\n    /// @return due120DaysDate\n    /// @return datePmtReceived\n    function getInvoice(string memory _clientName, uint256 _invoiceNumber)\n        public\n        view\n        onlyOwner()\n        returns (\n            uint256 invoiceNumber,\n            uint256 netTerms,\n            uint256 numberHours,\n            string memory amount,\n            uint256 timesheetEndDate,\n            uint256 invoiceSentDate,\n            uint256 due30DaysDate,\n            uint256 due60DaysDate,\n            uint256 due90DaysDate,\n            uint256 due120DaysDate,\n            uint256 datePmtReceived\n        )\n    {\n        int256 _index = findInvoiceIndex(_clientName, _invoiceNumber);\n        if (_index != -1) {\n            Invoice memory lInvoice = clientNameInvoiceMap[_clientName][uint256(\n                _index\n            )];\n            return (\n                lInvoice.invoiceNumber,\n                lInvoice.netTerms,\n                lInvoice.numberHours,\n                lInvoice.amount,\n                lInvoice.timesheetEndDate,\n                lInvoice.invoiceSentDate,\n                lInvoice.due30DaysDate,\n                lInvoice.due60DaysDate,\n                lInvoice.due90DaysDate,\n                lInvoice.due120DaysDate,\n                lInvoice.datePmtReceived\n            );\n            // return (\n            //     invoiceNumber,\n            //     netTerms,\n            //     numberHours,\n            //     amount,\n            //     timesheetEndDate,\n            //     invoiceSentDate,\n            //     due30DaysDate,\n            //     due60DaysDate,\n            //     due90DaysDate,\n            //     due120DaysDate,\n            //     datePmtReceived\n            // );\n        }\n    }\n\n    /// @author Denis M. Putnam\n    /// @notice Convert a uint256 to a string.\n    /// @param _i contains the uint256 value to be converted to a string.\n    /// @dev This code was taken from https://github.com/provable-things/ethereum-api/blob/master/oraclizeAPI_0.5.sol\n    /// @return _uintAsString\n    function uint2str(uint256 _i)\n        internal\n        pure\n        returns (string memory _uintAsString)\n    {\n        if (_i == 0) {\n            return \"0\";\n        }\n        uint256 j = _i;\n        uint256 len;\n        while (j != 0) {\n            len++;\n            j /= 10;\n        }\n        bytes memory bstr = new bytes(len);\n        uint256 k = len - 1;\n        while (_i != 0) {\n            bstr[k--] = bytes1(uint8(48 + (_i % 10)));\n            _i /= 10;\n        }\n        return string(bstr);\n    }\n}\n",
  "sourcePath": "/Users/denisputnam/git/APDF-invoice-tracker-dapp/contracts/InvoiceTracker.sol",
  "compiler": {
    "name": "solc",
    "version": "0.6.6+commit.6c089d02.Emscripten.clang"
  },
  "schemaVersion": "3.0.23",
  "updatedAt": "2020-06-14T16:36:40.101Z",
  "devdoc": {
    "author": "Denis M. Putnam",
    "details": "Use at your own risk.",
    "methods": {
      "addClient(address,string)": {
        "author": "Denis M. Putnam",
        "details": "Add's a client to the clientMap and the clientNameAddressMap",
        "params": {
          "_clientID": "address of the wallet of the client.",
          "_name": "string with the client's name.  This needs to be unique"
        }
      },
      "addInvoice(string,uint256,uint256,uint256,string,uint256,uint256,uint256,uint256,uint256,uint256)": {
        "author": "Denis M. Putnam",
        "details": "Add's an invoice to be tracked.",
        "params": {
          "_amount": "amount in dollars.",
          "_clientName": "name of the client",
          "_due120DaysDate": "120 day invoice due date",
          "_due30DaysDate": "30 day invoice due date",
          "_due60DaysDate": "60 day invoice due date",
          "_due90DaysDate": "90 day invoice due date",
          "_invoiceNumber": "invoice number",
          "_invoiceSentDate": "date that invoice was sent to the client.",
          "_netTerms": "net terms for 30, 60, 90, or 120 days.",
          "_numberHours": "number of hours for the timesheet.",
          "_timesheetEndDate": "timesheet end date"
        }
      },
      "changeOwner(address)": {
        "author": "Denis M. Putnam",
        "details": "No other details.",
        "params": {
          "newOwner": "new address payable owner."
        }
      },
      "constructor": {
        "author": "Denis M. Putnam",
        "details": "no other details"
      },
      "getClient(string)": {
        "author": "Denis M. Putnam",
        "details": "Get the client for the given name.",
        "params": {
          "_name": "client's name"
        },
        "returns": {
          "clientID": "clientID",
          "name": "name"
        }
      },
      "getCurrentOwner()": {
        "author": "Denis M. Putnam",
        "details": "No other details.",
        "returns": {
          "_0": "address current owner."
        }
      },
      "getInvoice(string,uint256)": {
        "author": "Denis M. Putnam",
        "details": "no other details",
        "params": {
          "_clientName": "name of the client",
          "_invoiceNumber": "invoice number being requested."
        },
        "returns": {
          "amount": "amount",
          "datePmtReceived": "datePmtReceived",
          "due120DaysDate": "due120DaysDate",
          "due30DaysDate": "due30DaysDate",
          "due60DaysDate": "due60DaysDate",
          "due90DaysDate": "due90DaysDate",
          "invoiceNumber": "invoiceNumber",
          "invoiceSentDate": "invoiceSentDate",
          "netTerms": "netTerms",
          "numberHours": "numberHours",
          "timesheetEndDate": "timesheetEndDate"
        }
      },
      "getInvoiceCount(string)": {
        "author": "Denis M. Putnam",
        "details": "no other details.",
        "params": {
          "_clientName": "name of the client"
        },
        "returns": {
          "count": "of invoices associated with the given client"
        }
      },
      "getInvoiceNumbers(string)": {
        "author": "Denis M. Putnam",
        "details": "returned string is a comma separated string of invoice numbers.  The comma is also the end of the string if no other values appear.",
        "params": {
          "_clientName": "name of the client"
        },
        "returns": {
          "_0": "a comma seperated list of invoice numbers associated with the client."
        }
      },
      "updateInvoice(string,uint256,uint256)": {
        "author": "Denis M. Putnam",
        "details": "no other details",
        "params": {
          "_clientName": "name of the client",
          "_invoiceNumber": "invoice number being requested.",
          "_invoicePmtDate": "payment date"
        }
      }
    },
    "title": "Invoice Tracking contract"
  },
  "userdoc": {
    "methods": {
      "addClient(address,string)": {
        "notice": "Add a client to this contract."
      },
      "addInvoice(string,uint256,uint256,uint256,string,uint256,uint256,uint256,uint256,uint256,uint256)": {
        "notice": "Add an invoice to track"
      },
      "changeOwner(address)": {
        "notice": "Change the current owner to the new owner."
      },
      "constructor": "The constructor for this contract",
      "getClient(string)": {
        "notice": "Get the requested client"
      },
      "getCurrentOwner()": {
        "notice": "Get the current owner."
      },
      "getInvoice(string,uint256)": {
        "notice": "Get an invoice"
      },
      "getInvoiceCount(string)": {
        "notice": "Get the count of invoices associated with the given client name"
      },
      "getInvoiceNumbers(string)": {
        "notice": "Get the list of invoice numbers as a string for the given client name."
      },
      "updateInvoice(string,uint256,uint256)": {
        "notice": "Update an invoice with the payment date"
      }
    },
    "notice": "This contract tracks invoices for payment"
  }
}