{
  "contractName": "InvoiceTracker",
  "abi": [
    {
      "inputs": [],
      "stateMutability": "payable",
      "type": "constructor"
    },
    {
      "anonymous": false,
      "inputs": [
        {
          "indexed": false,
          "internalType": "address",
          "name": "_clientID",
          "type": "address"
        },
        {
          "indexed": false,
          "internalType": "string",
          "name": "_name",
          "type": "string"
        }
      ],
      "name": "addClientEvent",
      "type": "event"
    },
    {
      "anonymous": false,
      "inputs": [
        {
          "indexed": false,
          "internalType": "string",
          "name": "_clientName",
          "type": "string"
        },
        {
          "indexed": false,
          "internalType": "uint256",
          "name": "_invoiceNumber",
          "type": "uint256"
        },
        {
          "indexed": false,
          "internalType": "uint256",
          "name": "_netTerms",
          "type": "uint256"
        },
        {
          "indexed": false,
          "internalType": "uint256",
          "name": "_numberHours",
          "type": "uint256"
        },
        {
          "indexed": false,
          "internalType": "string",
          "name": "_amount",
          "type": "string"
        },
        {
          "indexed": false,
          "internalType": "uint256",
          "name": "_timesheetEndDate",
          "type": "uint256"
        },
        {
          "indexed": false,
          "internalType": "uint256",
          "name": "_invoiceSentDate",
          "type": "uint256"
        },
        {
          "indexed": false,
          "internalType": "uint256",
          "name": "_due30DaysDate",
          "type": "uint256"
        },
        {
          "indexed": false,
          "internalType": "uint256",
          "name": "_due60DaysDate",
          "type": "uint256"
        },
        {
          "indexed": false,
          "internalType": "uint256",
          "name": "_due90DaysDate",
          "type": "uint256"
        },
        {
          "indexed": false,
          "internalType": "uint256",
          "name": "_due120DaysDate",
          "type": "uint256"
        },
        {
          "indexed": false,
          "internalType": "uint256",
          "name": "_datePmtReceived",
          "type": "uint256"
        }
      ],
      "name": "addInvoiceEvent",
      "type": "event"
    },
    {
      "anonymous": false,
      "inputs": [
        {
          "indexed": false,
          "internalType": "string",
          "name": "_clientName",
          "type": "string"
        },
        {
          "indexed": false,
          "internalType": "uint256",
          "name": "_invoiceNumber",
          "type": "uint256"
        },
        {
          "indexed": false,
          "internalType": "uint256",
          "name": "_datePmtReceived",
          "type": "uint256"
        }
      ],
      "name": "updateInvoiceEvent",
      "type": "event"
    },
    {
      "inputs": [
        {
          "internalType": "address payable",
          "name": "newOwner",
          "type": "address"
        }
      ],
      "name": "changeOwner",
      "outputs": [],
      "stateMutability": "nonpayable",
      "type": "function"
    },
    {
      "inputs": [],
      "name": "getCurrentOwner",
      "outputs": [
        {
          "internalType": "address",
          "name": "",
          "type": "address"
        }
      ],
      "stateMutability": "view",
      "type": "function"
    },
    {
      "inputs": [
        {
          "internalType": "address",
          "name": "_clientID",
          "type": "address"
        },
        {
          "internalType": "string",
          "name": "_name",
          "type": "string"
        }
      ],
      "name": "addClient",
      "outputs": [],
      "stateMutability": "nonpayable",
      "type": "function"
    },
    {
      "inputs": [
        {
          "internalType": "string",
          "name": "_name",
          "type": "string"
        }
      ],
      "name": "getClientByName",
      "outputs": [
        {
          "internalType": "string",
          "name": "name",
          "type": "string"
        },
        {
          "internalType": "address",
          "name": "clientID",
          "type": "address"
        }
      ],
      "stateMutability": "view",
      "type": "function"
    },
    {
      "inputs": [
        {
          "internalType": "uint256",
          "name": "_index",
          "type": "uint256"
        }
      ],
      "name": "getClientByIndex",
      "outputs": [
        {
          "internalType": "string",
          "name": "name",
          "type": "string"
        },
        {
          "internalType": "address",
          "name": "clientID",
          "type": "address"
        }
      ],
      "stateMutability": "view",
      "type": "function"
    },
    {
      "inputs": [],
      "name": "getClientCount",
      "outputs": [
        {
          "internalType": "uint256",
          "name": "count",
          "type": "uint256"
        }
      ],
      "stateMutability": "view",
      "type": "function"
    },
    {
      "inputs": [
        {
          "internalType": "string",
          "name": "_clientName",
          "type": "string"
        },
        {
          "internalType": "uint256",
          "name": "_invoiceNumber",
          "type": "uint256"
        },
        {
          "internalType": "uint256",
          "name": "_netTerms",
          "type": "uint256"
        },
        {
          "internalType": "uint256",
          "name": "_numberHours",
          "type": "uint256"
        },
        {
          "internalType": "string",
          "name": "_amount",
          "type": "string"
        },
        {
          "internalType": "uint256",
          "name": "_timesheetEndDate",
          "type": "uint256"
        },
        {
          "internalType": "uint256",
          "name": "_invoiceSentDate",
          "type": "uint256"
        },
        {
          "internalType": "uint256",
          "name": "_due30DaysDate",
          "type": "uint256"
        },
        {
          "internalType": "uint256",
          "name": "_due60DaysDate",
          "type": "uint256"
        },
        {
          "internalType": "uint256",
          "name": "_due90DaysDate",
          "type": "uint256"
        },
        {
          "internalType": "uint256",
          "name": "_due120DaysDate",
          "type": "uint256"
        }
      ],
      "name": "addInvoice",
      "outputs": [],
      "stateMutability": "nonpayable",
      "type": "function"
    },
    {
      "inputs": [
        {
          "internalType": "string",
          "name": "_clientName",
          "type": "string"
        }
      ],
      "name": "getInvoiceCount",
      "outputs": [
        {
          "internalType": "uint256",
          "name": "count",
          "type": "uint256"
        }
      ],
      "stateMutability": "view",
      "type": "function"
    },
    {
      "inputs": [
        {
          "internalType": "string",
          "name": "_clientName",
          "type": "string"
        }
      ],
      "name": "getInvoiceNumbers",
      "outputs": [
        {
          "internalType": "string",
          "name": "",
          "type": "string"
        }
      ],
      "stateMutability": "view",
      "type": "function"
    },
    {
      "inputs": [
        {
          "internalType": "string",
          "name": "_clientName",
          "type": "string"
        },
        {
          "internalType": "uint256",
          "name": "_invoiceNumber",
          "type": "uint256"
        },
        {
          "internalType": "uint256",
          "name": "_invoicePmtDate",
          "type": "uint256"
        }
      ],
      "name": "updateInvoice",
      "outputs": [],
      "stateMutability": "nonpayable",
      "type": "function"
    },
    {
      "inputs": [
        {
          "internalType": "string",
          "name": "_clientName",
          "type": "string"
        },
        {
          "internalType": "uint256",
          "name": "_invoiceNumber",
          "type": "uint256"
        }
      ],
      "name": "getInvoice",
      "outputs": [
        {
          "internalType": "uint256",
          "name": "invoiceNumber",
          "type": "uint256"
        },
        {
          "internalType": "uint256",
          "name": "netTerms",
          "type": "uint256"
        },
        {
          "internalType": "uint256",
          "name": "numberHours",
          "type": "uint256"
        },
        {
          "internalType": "string",
          "name": "amount",
          "type": "string"
        },
        {
          "internalType": "uint256",
          "name": "timesheetEndDate",
          "type": "uint256"
        },
        {
          "internalType": "uint256",
          "name": "invoiceSentDate",
          "type": "uint256"
        },
        {
          "internalType": "uint256",
          "name": "due30DaysDate",
          "type": "uint256"
        },
        {
          "internalType": "uint256",
          "name": "due60DaysDate",
          "type": "uint256"
        },
        {
          "internalType": "uint256",
          "name": "due90DaysDate",
          "type": "uint256"
        },
        {
          "internalType": "uint256",
          "name": "due120DaysDate",
          "type": "uint256"
        },
        {
          "internalType": "uint256",
          "name": "datePmtReceived",
          "type": "uint256"
        }
      ],
      "stateMutability": "view",
      "type": "function"
    }
  ],
  "bytecode": "0x6080604052336000806101000a81548173ffffffffffffffffffffffffffffffffffffffff021916908373ffffffffffffffffffffffffffffffffffffffff1602179055506128c9806100536000396000f3fe608060405234801561001057600080fd5b50600436106100a95760003560e01c8063a18a186b11610071578063a18a186b14610560578063a6f9dae1146105aa578063b944ef34146105ee578063ba76f13114610722578063db9641b1146107f1578063e292ec081461099e576100a9565b806355cdf7a5146100ae5780635a81018a14610215578063823d850014610233578063870e042e146103b757806388e65fd714610491575b600080fd5b610167600480360360208110156100c457600080fd5b81019080803590602001906401000000008111156100e157600080fd5b8201836020820111156100f357600080fd5b8035906020019184600183028401116401000000008311171561011557600080fd5b91908080601f016020809104026020016040519081016040528093929190818152602001838380828437600081840152601f19601f820116905080830192505050505050509192919290505050610a79565b60405180806020018373ffffffffffffffffffffffffffffffffffffffff1673ffffffffffffffffffffffffffffffffffffffff168152602001828103825284818151815260200191508051906020019080838360005b838110156101d95780820151818401526020810190506101be565b50505050905090810190601f1680156102065780820380516001836020036101000a031916815260200191505b50935050505060405180910390f35b61021d610c24565b6040518082815260200191505060405180910390f35b6102f66004803603604081101561024957600080fd5b810190808035906020019064010000000081111561026657600080fd5b82018360208201111561027857600080fd5b8035906020019184600183028401116401000000008311171561029a57600080fd5b91908080601f016020809104026020016040519081016040528093929190818152602001838380828437600081840152601f19601f82011690508083019250505050505050919291929080359060200190929190505050610c31565b604051808c81526020018b81526020018a81526020018060200189815260200188815260200187815260200186815260200185815260200184815260200183815260200182810382528a818151815260200191508051906020019080838360005b83811015610372578082015181840152602081019050610357565b50505050905090810190601f16801561039f5780820380516001836020036101000a031916815260200191505b509c5050505050505050505050505060405180910390f35b6103e3600480360360208110156103cd57600080fd5b8101908080359060200190929190505050610ebe565b60405180806020018373ffffffffffffffffffffffffffffffffffffffff1673ffffffffffffffffffffffffffffffffffffffff168152602001828103825284818151815260200191508051906020019080838360005b8381101561045557808201518184015260208101905061043a565b50505050905090810190601f1680156104825780820380516001836020036101000a031916815260200191505b50935050505060405180910390f35b61055e600480360360608110156104a757600080fd5b81019080803590602001906401000000008111156104c457600080fd5b8201836020820111156104d657600080fd5b803590602001918460018302840111640100000000831117156104f857600080fd5b91908080601f016020809104026020016040519081016040528093929190818152602001838380828437600081840152601f19601f820116905080830192505050505050509192919290803590602001909291908035906020019092919050505061111e565b005b6105686114f9565b604051808273ffffffffffffffffffffffffffffffffffffffff1673ffffffffffffffffffffffffffffffffffffffff16815260200191505060405180910390f35b6105ec600480360360208110156105c057600080fd5b81019080803573ffffffffffffffffffffffffffffffffffffffff169060200190929190505050611522565b005b6106a76004803603602081101561060457600080fd5b810190808035906020019064010000000081111561062157600080fd5b82018360208201111561063357600080fd5b8035906020019184600183028401116401000000008311171561065557600080fd5b91908080601f016020809104026020016040519081016040528093929190818152602001838380828437600081840152601f19601f82011690508083019250505050505050919291929050505061160a565b6040518080602001828103825283818151815260200191508051906020019080838360005b838110156106e75780820151818401526020810190506106cc565b50505050905090810190601f1680156107145780820380516001836020036101000a031916815260200191505b509250505060405180910390f35b6107db6004803603602081101561073857600080fd5b810190808035906020019064010000000081111561075557600080fd5b82018360208201111561076757600080fd5b8035906020019184600183028401116401000000008311171561078957600080fd5b91908080601f016020809104026020016040519081016040528093929190818152602001838380828437600081840152601f19601f820116905080830192505050505050509192919290505050611868565b6040518082815260200191505060405180910390f35b61099c600480360361016081101561080857600080fd5b810190808035906020019064010000000081111561082557600080fd5b82018360208201111561083757600080fd5b8035906020019184600183028401116401000000008311171561085957600080fd5b91908080601f016020809104026020016040519081016040528093929190818152602001838380828437600081840152601f19601f820116905080830192505050505050509192919290803590602001909291908035906020019092919080359060200190929190803590602001906401000000008111156108da57600080fd5b8201836020820111156108ec57600080fd5b8035906020019184600183028401116401000000008311171561090e57600080fd5b91908080601f016020809104026020016040519081016040528093929190818152602001838380828437600081840152601f19601f82011690508083019250505050505050919291929080359060200190929190803590602001909291908035906020019092919080359060200190929190803590602001909291908035906020019092919050505061191a565b005b610a77600480360360408110156109b457600080fd5b81019080803573ffffffffffffffffffffffffffffffffffffffff169060200190929190803590602001906401000000008111156109f157600080fd5b820183602082011115610a0357600080fd5b80359060200191846001830284011164010000000083111715610a2557600080fd5b91908080601f016020809104026020016040519081016040528093929190818152602001838380828437600081840152601f19601f820116905080830192505050505050509192919290505050611cff565b005b6060600060606001846040518082805190602001908083835b60208310610ab55780518252602082019150602081019050602083039250610a92565b6001836020036101000a03801982511681845116808217855250505050505090500191505090815260200160405180910390206001018054600181600116156101000203166002900480601f016020809104026020016040519081016040528092919081815260200182805460018160011615610100020316600290048015610b7f5780601f10610b5457610100808354040283529160200191610b7f565b820191906000526020600020905b815481529060010190602001808311610b6257829003601f168201915b5050505050905060006001856040518082805190602001908083835b60208310610bbe5780518252602082019150602081019050602083039250610b9b565b6001836020036101000a038019825116818451168082178552505050505050905001915050908152602001604051809103902060000160009054906101000a900473ffffffffffffffffffffffffffffffffffffffff1690508181935093505050915091565b6000600280549050905090565b600080600060606000806000806000806000610c4b6114f9565b73ffffffffffffffffffffffffffffffffffffffff163373ffffffffffffffffffffffffffffffffffffffff1614610c8257600080fd5b6000610c8e8e8e612195565b90507fffffffffffffffffffffffffffffffffffffffffffffffffffffffffffffffff8114610eac57610cbf612736565b60048f6040518082805190602001908083835b60208310610cf55780518252602082019150602081019050602083039250610cd2565b6001836020036101000a03801982511681845116808217855250505050505090500191505090815260200160405180910390208281548110610d3357fe5b90600052602060002090600b020160405180610160016040529081600082015481526020016001820154815260200160028201548152602001600382018054600181600116156101000203166002900480601f016020809104026020016040519081016040528092919081815260200182805460018160011615610100020316600290048015610e045780601f10610dd957610100808354040283529160200191610e04565b820191906000526020600020905b815481529060010190602001808311610de757829003601f168201915b50505050508152602001600482015481526020016005820154815260200160068201548152602001600782015481526020016008820154815260200160098201548152602001600a820154815250509050806000015181602001518260400151836060015184608001518560a001518660c001518760e001518861010001518961012001518a61014001519c509c509c509c509c509c509c509c509c509c509c505050610eae565b505b9295989b509295989b9093969950565b60606000606060028481548110610ed157fe5b906000526020600020018054600181600116156101000203166002900480601f016020809104026020016040519081016040528092919081815260200182805460018160011615610100020316600290048015610f6f5780601f10610f4457610100808354040283529160200191610f6f565b820191906000526020600020905b815481529060010190602001808311610f5257829003601f168201915b5050505050905060606001826040518082805190602001908083835b60208310610fae5780518252602082019150602081019050602083039250610f8b565b6001836020036101000a03801982511681845116808217855250505050505090500191505090815260200160405180910390206001018054600181600116156101000203166002900480601f0160208091040260200160405190810160405280929190818152602001828054600181600116156101000203166002900480156110785780601f1061104d57610100808354040283529160200191611078565b820191906000526020600020905b81548152906001019060200180831161105b57829003601f168201915b5050505050905060006001836040518082805190602001908083835b602083106110b75780518252602082019150602081019050602083039250611094565b6001836020036101000a038019825116818451168082178552505050505050905001915050908152602001604051809103902060000160009054906101000a900473ffffffffffffffffffffffffffffffffffffffff169050818194509450505050915091565b6111266114f9565b73ffffffffffffffffffffffffffffffffffffffff163373ffffffffffffffffffffffffffffffffffffffff161461115d57600080fd5b60006111698484612195565b90507fffffffffffffffffffffffffffffffffffffffffffffffffffffffffffffffff81146114f35761119a612736565b6004856040518082805190602001908083835b602083106111d057805182526020820191506020810190506020830392506111ad565b6001836020036101000a0380198251168184511680821785525050505050509050019150509081526020016040518091039020828154811061120e57fe5b90600052602060002090600b020160405180610160016040529081600082015481526020016001820154815260200160028201548152602001600382018054600181600116156101000203166002900480601f0160208091040260200160405190810160405280929190818152602001828054600181600116156101000203166002900480156112df5780601f106112b4576101008083540402835291602001916112df565b820191906000526020600020905b8154815290600101906020018083116112c257829003601f168201915b50505050508152602001600482015481526020016005820154815260200160068201548152602001600782015481526020016008820154815260200160098201548152602001600a8201548152505090508281610140018181525050806004866040518082805190602001908083835b60208310611372578051825260208201915060208101905060208303925061134f565b6001836020036101000a038019825116818451168082178552505050505050905001915050908152602001604051809103902083815481106113b057fe5b90600052602060002090600b020160008201518160000155602082015181600101556040820151816002015560608201518160030190805190602001906113f8929190612790565b506080820151816004015560a0820151816005015560c0820151816006015560e082015181600701556101008201518160080155610120820151816009015561014082015181600a01559050507f4aaf47da2b830ec7cb39ceac30735c6b5f91912852a2fcbedca8fb36ea7509398585856040518080602001848152602001838152602001828103825285818151815260200191508051906020019080838360005b838110156114b557808201518184015260208101905061149a565b50505050905090810190601f1680156114e25780820380516001836020036101000a031916815260200191505b5094505050505060405180910390a1505b50505050565b60008060009054906101000a900473ffffffffffffffffffffffffffffffffffffffff16905090565b6000809054906101000a900473ffffffffffffffffffffffffffffffffffffffff1673ffffffffffffffffffffffffffffffffffffffff163373ffffffffffffffffffffffffffffffffffffffff16146115c7576040517f08c379a000000000000000000000000000000000000000000000000000000000815260040180806020018281038252603981526020018061285b6039913960400191505060405180910390fd5b806000806101000a81548173ffffffffffffffffffffffffffffffffffffffff021916908373ffffffffffffffffffffffffffffffffffffffff16021790555050565b60606116146114f9565b73ffffffffffffffffffffffffffffffffffffffff163373ffffffffffffffffffffffffffffffffffffffff161461164b57600080fd5b606060405180602001604052806000815250905060008090505b6005846040518082805190602001908083835b6020831061169b5780518252602082019150602081019050602083039250611678565b6001836020036101000a03801982511681845116808217855250505050505090500191505090815260200160405180910390205481101561185e5760606117666004866040518082805190602001908083835b6020831061171157805182526020820191506020810190506020830392506116ee565b6001836020036101000a0380198251168184511680821785525050505050509050019150509081526020016040518091039020838154811061174f57fe5b90600052602060002090600b020160000154612376565b905082816040516020018083805190602001908083835b602083106117a0578051825260208201915060208101905060208303925061177d565b6001836020036101000a03801982511681845116808217855250505050505090500182805190602001908083835b602083106117f157805182526020820191506020810190506020830392506117ce565b6001836020036101000a038019825116818451168082178552505050505050905001807f2c00000000000000000000000000000000000000000000000000000000000000815250600101925050506040516020818303038152906040529250508080600101915050611665565b5080915050919050565b60006118726114f9565b73ffffffffffffffffffffffffffffffffffffffff163373ffffffffffffffffffffffffffffffffffffffff16146118a957600080fd5b6005826040518082805190602001908083835b602083106118df57805182526020820191506020810190506020830392506118bc565b6001836020036101000a0380198251168184511680821785525050505050509050019150509081526020016040518091039020549050919050565b6119226114f9565b73ffffffffffffffffffffffffffffffffffffffff163373ffffffffffffffffffffffffffffffffffffffff161461195957600080fd5b8a8561196582826124ba565b6119d7576040517f08c379a00000000000000000000000000000000000000000000000000000000081526004018080602001828103825260118152602001807f4475706c696361746520696e766f69636500000000000000000000000000000081525060200191505060405180910390fd5b6119df612736565b8c8160000181815250508b8160200181815250508a81604001818152505089816060018190525088816080018181525050878160a0018181525050868160c0018181525050858160e00181815250508481610100018181525050838161012001818152505060048e6040518082805190602001908083835b60208310611a7a5780518252602082019150602081019050602083039250611a57565b6001836020036101000a03801982511681845116808217855250505050505090500191505090815260200160405180910390208190806001815401808255809150506001900390600052602060002090600b02016000909190919091506000820151816000015560208201518160010155604082015181600201556060820151816003019080519060200190611b11929190612790565b506080820151816004015560a0820151816005015560c0820151816006015560e082015181600701556101008201518160080155610120820151816009015561014082015181600a01555050611b668e6125e3565b507f64b1990245accd502365916f65e5fcd03e71f750f7fcb75f88e699b5c067b8d98e826000015183602001518460400151856060015186608001518760a001518860c001518960e001518a61010001518b61012001518c610140015160405180806020018d81526020018c81526020018b8152602001806020018a815260200189815260200188815260200187815260200186815260200185815260200184815260200183810383528f818151815260200191508051906020019080838360005b83811015611c43578082015181840152602081019050611c28565b50505050905090810190601f168015611c705780820380516001836020036101000a031916815260200191505b5083810382528b818151815260200191508051906020019080838360005b83811015611ca9578082015181840152602081019050611c8e565b50505050905090810190601f168015611cd65780820380516001836020036101000a031916815260200191505b509e50505050505050505050505050505060405180910390a15050505050505050505050505050565b611d076114f9565b73ffffffffffffffffffffffffffffffffffffffff163373ffffffffffffffffffffffffffffffffffffffff1614611d3e57600080fd5b8181611d4a8183612663565b611dbc576040517f08c379a00000000000000000000000000000000000000000000000000000000081526004018080602001828103825260158152602001807f436c69656e7420616c726561647920657869737473000000000000000000000081525060200191505060405180910390fd5b836001846040518082805190602001908083835b60208310611df35780518252602082019150602081019050602083039250611dd0565b6001836020036101000a038019825116818451168082178552505050505050905001915050908152602001604051809103902060000160006101000a81548173ffffffffffffffffffffffffffffffffffffffff021916908373ffffffffffffffffffffffffffffffffffffffff160217905550826001846040518082805190602001908083835b60208310611e9e5780518252602082019150602081019050602083039250611e7b565b6001836020036101000a03801982511681845116808217855250505050505090500191505090815260200160405180910390206001019080519060200190611ee7929190612790565b50600180846040518082805190602001908083835b60208310611f1f5780518252602082019150602081019050602083039250611efc565b6001836020036101000a038019825116818451168082178552505050505050905001915050908152602001604051809103902060020160006101000a81548160ff021916908315150217905550600283908060018154018082558091505060019003906000526020600020016000909190919091509080519060200190611fa7929190612790565b50836003846040518082805190602001908083835b60208310611fdf5780518252602082019150602081019050602083039250611fbc565b6001836020036101000a038019825116818451168082178552505050505050905001915050908152602001604051809103902060006101000a81548173ffffffffffffffffffffffffffffffffffffffff021916908373ffffffffffffffffffffffffffffffffffffffff16021790555060006005846040518082805190602001908083835b602083106120885780518252602082019150602081019050602083039250612065565b6001836020036101000a0380198251168184511680821785525050505050509050019150509081526020016040518091039020819055507f11ada27156286ec17e2b313f3687beba84ab19beba84f020e2938ed46737d7ae8484604051808373ffffffffffffffffffffffffffffffffffffffff1673ffffffffffffffffffffffffffffffffffffffff16815260200180602001828103825283818151815260200191508051906020019080838360005b83811015612154578082015181840152602081019050612139565b50505050905090810190601f1680156121815780820380516001836020036101000a031916815260200191505b50935050505060405180910390a150505050565b600061219f6114f9565b73ffffffffffffffffffffffffffffffffffffffff163373ffffffffffffffffffffffffffffffffffffffff16146121d657600080fd5b8160008111612230576040517f08c379a00000000000000000000000000000000000000000000000000000000081526004018080602001828103825260258152602001806128366025913960400191505060405180910390fd5b60008090505b6005856040518082805190602001908083835b6020831061226c5780518252602082019150602081019050602083039250612249565b6001836020036101000a03801982511681845116808217855250505050505090500191505090815260200160405180910390205481121561234a576004856040518082805190602001908083835b602083106122dd57805182526020820191506020810190506020830392506122ba565b6001836020036101000a0380198251168184511680821785525050505050509050019150509081526020016040518091039020818154811061231b57fe5b90600052602060002090600b02016000015484141561233d578092505061236f565b8080600101915050612236565b507fffffffffffffffffffffffffffffffffffffffffffffffffffffffffffffffff91505b5092915050565b606060008214156123be576040518060400160405280600181526020017f300000000000000000000000000000000000000000000000000000000000000081525090506124b5565b600082905060005b600082146123e8578080600101915050600a82816123e057fe5b0491506123c6565b60608167ffffffffffffffff8111801561240157600080fd5b506040519080825280601f01601f1916602001820160405280156124345781602001600182028036833780820191505090505b50905060006001830390505b600086146124ad57600a868161245257fe5b0660300160f81b8282806001900393508151811061246c57fe5b60200101907effffffffffffffffffffffffffffffffffffffffffffffffffffffffffffff1916908160001a905350600a86816124a557fe5b049550612440565b819450505050505b919050565b600080600090505b6005846040518082805190602001908083835b602083106124f857805182526020820191506020810190506020830392506124d5565b6001836020036101000a0380198251168184511680821785525050505050509050019150509081526020016040518091039020548110156125d7576004846040518082805190602001908083835b602083106125695780518252602082019150602081019050602083039250612546565b6001836020036101000a038019825116818451168082178552505050505050905001915050908152602001604051809103902081815481106125a757fe5b90600052602060002090600b0201600001548314156125ca5760009150506125dd565b80806001019150506124c2565b50600190505b92915050565b600060016005836040518082805190602001908083835b6020831061261d57805182526020820191506020810190506020830392506125fa565b6001836020036101000a03801982511681845116808217855250505050505090500191505090815260200160405180910390206000828254019250508190559050919050565b60008173ffffffffffffffffffffffffffffffffffffffff166003846040518082805190602001908083835b602083106126b2578051825260208201915060208101905060208303925061268f565b6001836020036101000a038019825116818451168082178552505050505050905001915050908152602001604051809103902060009054906101000a900473ffffffffffffffffffffffffffffffffffffffff1673ffffffffffffffffffffffffffffffffffffffff16141561272b5760009050612730565b600190505b92915050565b60405180610160016040528060008152602001600081526020016000815260200160608152602001600081526020016000815260200160008152602001600081526020016000815260200160008152602001600081525090565b828054600181600116156101000203166002900490600052602060002090601f016020900481019282601f106127d157805160ff19168380011785556127ff565b828001600101855582156127ff579182015b828111156127fe5782518255916020019190600101906127e3565b5b50905061280c9190612810565b5090565b61283291905b8082111561282e576000816000905550600101612816565b5090565b9056fe496e766f696365206e756d626572206d7573742062652067726561746572207468616e20304f6e6c7920746865206f776e6572206f662074686520636f6e74726163742063616e206578656375746520746869732066756e6374696f6e2ea264697066735822122094673bb407fd8ae213076203e56db55840ec2c3e39e9a562c3b3f4e33348c06264736f6c63430006060033",
  "source": "pragma solidity 0.6.6;\n\nimport \"./Owned.sol\";\n\n/// @title Invoice Tracking contract\n/// @author Denis M. Putnam\n/// @notice This contract tracks invoices for payment\n/// @dev Use at your own risk.\ncontract InvoiceTracker is Owned {\n    /// @notice Invoice struct\n    struct Invoice {\n        uint256 invoiceNumber;\n        uint256 netTerms; // 30, 60 90, 120 days net\n        uint256 numberHours;\n        string amount;\n        uint256 timesheetEndDate;\n        uint256 invoiceSentDate;\n        uint256 due30DaysDate;\n        uint256 due60DaysDate;\n        uint256 due90DaysDate;\n        uint256 due120DaysDate;\n        uint256 datePmtReceived;\n    }\n\n    /// @notice Client struct\n    struct Client {\n        address clientID;\n        string name;\n        bool flag;\n    }\n\n    /// @notice map the name of the client to the Client struct\n    mapping(string => Client) private clientMap;\n\n    /// @notice array of client names.\n    string[] private clientNameArray;\n\n    /// @notice map the name of the client to the client address\n    mapping(string => address) private clientNameAddressMap;\n    /// @notice map the name of the client to invoices. this isa one to many mapping.\n    mapping(string => Invoice[]) private clientNameInvoiceMap;\n    /// @notice map the name of the client to an invoice count\n    mapping(string => uint256) private clientNameInvoiceCountMap;\n\n    /// @author Denis M. Putnam\n    /// @notice The constructor for this contract\n    /// @dev no other details\n    constructor() public payable Owned() {}\n\n    event addClientEvent(address _clientID, string _name);\n\n    /// @author Denis M. Putnam\n    /// @notice Check for no client.\n    /// @param _clientName name of the client.\n    /// @param _clientID clients wallet address.\n    /// @dev no other details.\n    function isNoClient(string memory _clientName, address _clientID)\n        private\n        view\n        returns (bool)\n    {\n        if (clientNameAddressMap[_clientName] == _clientID) {\n            return false;\n        }\n        return true;\n    }\n\n    modifier noDupClient(address _clientID, string memory _clientName) {\n        require(isNoClient(_clientName, _clientID), \"Client already exists\");\n        _;\n    }\n\n    modifier onlyOwner() {\n        require(msg.sender == getCurrentOwner());\n        _;\n    }\n\n    /// @author Denis M. Putnam\n    /// @notice Add a client to this contract.\n    /// @param _clientID address of the wallet of the client.\n    /// @param _name string with the client's name.  This needs to be unique\n    /// @dev Add's a client to the clientMap and the clientNameAddressMap\n    function addClient(address _clientID, string memory _name)\n        public\n        onlyOwner()\n        noDupClient(_clientID, _name)\n    {\n        clientMap[_name].clientID = _clientID;\n        clientMap[_name].name = _name;\n        clientMap[_name].flag = true;\n\n        clientNameArray.push(_name);\n\n        clientNameAddressMap[_name] = _clientID;\n        clientNameInvoiceCountMap[_name] = 0;\n        emit addClientEvent(_clientID, _name);\n    }\n\n    /// @author Denis M. Putnam\n    /// @notice Get the requested client\n    /// @param _name client's name\n    /// @dev Get the client for the given name.\n    /// @return name\n    /// @return clientID\n    function getClientByName(string memory _name)\n        public\n        view\n        returns (string memory name, address clientID)\n    {\n        string memory lname = clientMap[_name].name;\n        address lclientID = clientMap[_name].clientID;\n        return (lname, lclientID);\n    }\n\n    /// @author Denis M. Putnam\n    /// @notice get the client by index number.\n    /// @param _index index of client name\n    /// @dev no further info\n    /// @return name\n    /// @return clientID\n    function getClientByIndex(uint256 _index)\n        public\n        view\n        returns (string memory name, address clientID)\n    {\n        string memory lclientName = clientNameArray[_index];\n        string memory lname = clientMap[lclientName].name;\n        address lclientID = clientMap[lclientName].clientID;\n        return (lname, lclientID);\n    }\n    function getClientCount() view public returns (uint256 count) {\n        return clientNameArray.length;\n    }\n\n    /// @author Denis M. Putnam\n    /// @notice Check for no duplicate invoice.\n    /// @param _clientName name of the client.\n    /// @param _invoiceNumber invoice number.\n    /// @dev no other details.\n    function isNoDuplicateInvoice(\n        string memory _clientName,\n        uint256 _invoiceNumber\n    ) private view returns (bool) {\n        for (uint256 i = 0; i < clientNameInvoiceCountMap[_clientName]; i++) {\n            // if (_invoiceNumber == clientInvoiceMap[_clientName][i]) {\n            //     return false;\n            // }\n            if (\n                _invoiceNumber ==\n                clientNameInvoiceMap[_clientName][i].invoiceNumber\n            ) {\n                return false;\n            }\n        }\n        return true;\n    }\n\n    modifier noDupInvoice(string memory _clientName, uint256 _invoiceNumber) {\n        require(\n            isNoDuplicateInvoice(_clientName, _invoiceNumber),\n            \"Duplicate invoice\"\n        );\n        _;\n    }\n\n    event addInvoiceEvent(\n        string _clientName,\n        uint256 _invoiceNumber,\n        uint256 _netTerms,\n        uint256 _numberHours,\n        string _amount,\n        uint256 _timesheetEndDate,\n        uint256 _invoiceSentDate,\n        uint256 _due30DaysDate,\n        uint256 _due60DaysDate,\n        uint256 _due90DaysDate,\n        uint256 _due120DaysDate,\n        uint256 _datePmtReceived\n    );\n\n    event updateInvoiceEvent(\n        string _clientName,\n        uint256 _invoiceNumber,\n        uint256 _datePmtReceived\n    );\n\n    /// @author Denis M. Putnam\n    /// @notice Add an invoice to track\n    /// @param _clientName name of the client\n    /// @param _invoiceNumber invoice number\n    /// @param _netTerms net terms for 30, 60, 90, or 120 days.\n    /// @param _numberHours number of hours for the timesheet.\n    /// @param _amount amount in dollars.\n    /// @param _timesheetEndDate timesheet end date\n    /// @param _invoiceSentDate date that invoice was sent to the client.\n    /// @param _due30DaysDate 30 day invoice due date\n    /// @param _due60DaysDate 60 day invoice due date\n    /// @param _due90DaysDate 90 day invoice due date\n    /// @param _due120DaysDate 120 day invoice due date\n    /// @dev Add's an invoice to be tracked.\n    function addInvoice(\n        string memory _clientName,\n        uint256 _invoiceNumber,\n        uint256 _netTerms,\n        uint256 _numberHours,\n        string memory _amount,\n        uint256 _timesheetEndDate,\n        uint256 _invoiceSentDate,\n        uint256 _due30DaysDate,\n        uint256 _due60DaysDate,\n        uint256 _due90DaysDate,\n        uint256 _due120DaysDate\n    ) public onlyOwner() noDupInvoice(_clientName, _invoiceSentDate) {\n        Invoice memory newInvoice;\n        newInvoice.invoiceNumber = _invoiceNumber;\n        newInvoice.netTerms = _netTerms;\n        newInvoice.numberHours = _numberHours;\n        newInvoice.amount = _amount;\n        newInvoice.timesheetEndDate = _timesheetEndDate;\n        newInvoice.invoiceSentDate = _invoiceSentDate;\n        newInvoice.due30DaysDate = _due30DaysDate;\n        newInvoice.due60DaysDate = _due60DaysDate;\n        newInvoice.due90DaysDate = _due90DaysDate;\n        newInvoice.due120DaysDate = _due120DaysDate;\n        clientNameInvoiceMap[_clientName].push(newInvoice);\n\n        incremmentInvoiceCount(_clientName);\n\n        emit addInvoiceEvent(\n            _clientName,\n            newInvoice.invoiceNumber,\n            newInvoice.netTerms,\n            newInvoice.numberHours,\n            newInvoice.amount,\n            newInvoice.timesheetEndDate,\n            newInvoice.invoiceSentDate,\n            newInvoice.due30DaysDate,\n            newInvoice.due60DaysDate,\n            newInvoice.due90DaysDate,\n            newInvoice.due120DaysDate,\n            newInvoice.datePmtReceived\n        );\n\n        // emit addInvoiceEvent(\n        //     _clientName,\n        //     clientNameInvoiceMap[_clientName][0].invoiceNumber,\n        //     clientNameInvoiceMap[_clientName][0].netTerms,\n        //     clientNameInvoiceMap[_clientName][0].numberHours,\n        //     clientNameInvoiceMap[_clientName][0].amount,\n        //     clientNameInvoiceMap[_clientName][0].timesheetEndDate,\n        //     clientNameInvoiceMap[_clientName][0].invoiceSentDate,\n        //     clientNameInvoiceMap[_clientName][0].due30DaysDate,\n        //     clientNameInvoiceMap[_clientName][0].due60DaysDate,\n        //     clientNameInvoiceMap[_clientName][0].due90DaysDate,\n        //     clientNameInvoiceMap[_clientName][0].due120DaysDate,\n        //     clientNameInvoiceMap[_clientName][0].datePmtReceived\n        // );\n    }\n\n    function incremmentInvoiceCount(string memory _clientName)\n        private\n        returns (uint256)\n    {\n        return clientNameInvoiceCountMap[_clientName] += 1;\n    }\n\n    /// @author Denis M. Putnam\n    /// @notice Get the count of invoices associated with the given client name\n    /// @param _clientName name of the client\n    /// @dev no other details.\n    /// @return count of invoices associated with the given client\n    function getInvoiceCount(string memory _clientName)\n        public\n        view\n        onlyOwner()\n        returns (uint256 count)\n    {\n        count = clientNameInvoiceCountMap[_clientName];\n    }\n\n    /// @author Denis M. Putnam\n    /// @notice Get the list of invoice numbers as a string for the given client name.\n    /// @param _clientName name of the client\n    /// @dev returned string is a comma separated string of invoice numbers.  The comma is also the end of the string if no other values appear.\n    /// @return a comma seperated list of invoice numbers associated with the client.\n    function getInvoiceNumbers(string memory _clientName)\n        public\n        view\n        onlyOwner()\n        returns (string memory)\n    {\n        string memory rVal = \"\";\n        for (uint256 i = 0; i < clientNameInvoiceCountMap[_clientName]; i++) {\n            string memory tstring = uint2str(\n                clientNameInvoiceMap[_clientName][i].invoiceNumber\n            );\n            // string tstring = string(lbytes32);\n            //rVal = string(abi.encodePacked(rVal, tstring, \",\"));\n            rVal = string(abi.encodePacked(rVal, tstring, \",\"));\n        }\n        return rVal;\n    }\n\n    modifier isInvoiceNumber(uint256 _invoiceNumber) {\n        require(_invoiceNumber > 0, \"Invoice number must be greater than 0\");\n        _;\n    }\n\n    function findInvoiceIndex(string memory _clientName, uint256 _invoiceNumber)\n        private\n        view\n        onlyOwner()\n        isInvoiceNumber(_invoiceNumber)\n        returns (int256 index)\n    {\n        for (\n            int256 i = 0;\n            i < int256(clientNameInvoiceCountMap[_clientName]);\n            i++\n        ) {\n            //clientNameInvoiceMap\n            if (\n                _invoiceNumber ==\n                clientNameInvoiceMap[_clientName][uint256(i)].invoiceNumber\n            ) {\n                return i;\n            }\n        }\n        return -1;\n    }\n\n    /// @author Denis M. Putnam\n    /// @notice Update an invoice with the payment date\n    /// @param _clientName name of the client\n    /// @param _invoiceNumber invoice number being requested.\n    /// @param _invoicePmtDate payment date\n    /// @dev no other details\n    function updateInvoice(\n        string memory _clientName,\n        uint256 _invoiceNumber,\n        uint256 _invoicePmtDate\n    ) public onlyOwner() {\n        int256 _index = findInvoiceIndex(_clientName, _invoiceNumber);\n        if (_index != -1) {\n            Invoice memory lInvoice = clientNameInvoiceMap[_clientName][uint256(\n                _index\n            )];\n            lInvoice.datePmtReceived = _invoicePmtDate;\n            clientNameInvoiceMap[_clientName][uint256(_index)] = lInvoice;\n            emit updateInvoiceEvent(\n                _clientName,\n                _invoiceNumber,\n                _invoicePmtDate\n            );\n        }\n    }\n\n    /// @author Denis M. Putnam\n    /// @notice Get an invoice\n    /// @param _clientName name of the client\n    /// @param _invoiceNumber invoice number being requested.\n    /// @dev no other details\n    /// @return invoiceNumber\n    /// @return netTerms\n    /// @return numberHours\n    /// @return amount\n    /// @return timesheetEndDate\n    /// @return invoiceSentDate\n    /// @return due30DaysDate\n    /// @return due60DaysDate\n    /// @return due90DaysDate\n    /// @return due120DaysDate\n    /// @return datePmtReceived\n    function getInvoice(string memory _clientName, uint256 _invoiceNumber)\n        public\n        view\n        onlyOwner()\n        returns (\n            uint256 invoiceNumber,\n            uint256 netTerms,\n            uint256 numberHours,\n            string memory amount,\n            uint256 timesheetEndDate,\n            uint256 invoiceSentDate,\n            uint256 due30DaysDate,\n            uint256 due60DaysDate,\n            uint256 due90DaysDate,\n            uint256 due120DaysDate,\n            uint256 datePmtReceived\n        )\n    {\n        int256 _index = findInvoiceIndex(_clientName, _invoiceNumber);\n        if (_index != -1) {\n            Invoice memory lInvoice = clientNameInvoiceMap[_clientName][uint256(\n                _index\n            )];\n            return (\n                lInvoice.invoiceNumber,\n                lInvoice.netTerms,\n                lInvoice.numberHours,\n                lInvoice.amount,\n                lInvoice.timesheetEndDate,\n                lInvoice.invoiceSentDate,\n                lInvoice.due30DaysDate,\n                lInvoice.due60DaysDate,\n                lInvoice.due90DaysDate,\n                lInvoice.due120DaysDate,\n                lInvoice.datePmtReceived\n            );\n            // return (\n            //     invoiceNumber,\n            //     netTerms,\n            //     numberHours,\n            //     amount,\n            //     timesheetEndDate,\n            //     invoiceSentDate,\n            //     due30DaysDate,\n            //     due60DaysDate,\n            //     due90DaysDate,\n            //     due120DaysDate,\n            //     datePmtReceived\n            // );\n        }\n    }\n\n    /// @author Denis M. Putnam\n    /// @notice Convert a uint256 to a string.\n    /// @param _i contains the uint256 value to be converted to a string.\n    /// @dev This code was taken from https://github.com/provable-things/ethereum-api/blob/master/oraclizeAPI_0.5.sol\n    /// @return _uintAsString\n    function uint2str(uint256 _i)\n        internal\n        pure\n        returns (string memory _uintAsString)\n    {\n        if (_i == 0) {\n            return \"0\";\n        }\n        uint256 j = _i;\n        uint256 len;\n        while (j != 0) {\n            len++;\n            j /= 10;\n        }\n        bytes memory bstr = new bytes(len);\n        uint256 k = len - 1;\n        while (_i != 0) {\n            bstr[k--] = bytes1(uint8(48 + (_i % 10)));\n            _i /= 10;\n        }\n        return string(bstr);\n    }\n}\n",
  "sourcePath": "/Users/denisputnam/git/APDF-invoice-tracker-dapp/contracts/InvoiceTracker.sol",
  "compiler": {
    "name": "solc",
    "version": "0.6.6+commit.6c089d02.Emscripten.clang"
  },
  "schemaVersion": "3.0.23",
  "updatedAt": "2020-06-14T17:37:30.713Z",
  "devdoc": {
    "author": "Denis M. Putnam",
    "details": "Use at your own risk.",
    "methods": {
      "addClient(address,string)": {
        "author": "Denis M. Putnam",
        "details": "Add's a client to the clientMap and the clientNameAddressMap",
        "params": {
          "_clientID": "address of the wallet of the client.",
          "_name": "string with the client's name.  This needs to be unique"
        }
      },
      "addInvoice(string,uint256,uint256,uint256,string,uint256,uint256,uint256,uint256,uint256,uint256)": {
        "author": "Denis M. Putnam",
        "details": "Add's an invoice to be tracked.",
        "params": {
          "_amount": "amount in dollars.",
          "_clientName": "name of the client",
          "_due120DaysDate": "120 day invoice due date",
          "_due30DaysDate": "30 day invoice due date",
          "_due60DaysDate": "60 day invoice due date",
          "_due90DaysDate": "90 day invoice due date",
          "_invoiceNumber": "invoice number",
          "_invoiceSentDate": "date that invoice was sent to the client.",
          "_netTerms": "net terms for 30, 60, 90, or 120 days.",
          "_numberHours": "number of hours for the timesheet.",
          "_timesheetEndDate": "timesheet end date"
        }
      },
      "changeOwner(address)": {
        "author": "Denis M. Putnam",
        "details": "No other details.",
        "params": {
          "newOwner": "new address payable owner."
        }
      },
      "constructor": {
        "author": "Denis M. Putnam",
        "details": "no other details"
      },
      "getClientByIndex(uint256)": {
        "author": "Denis M. Putnam",
        "details": "no further info",
        "params": {
          "_index": "index of client name"
        },
        "returns": {
          "clientID": "clientID",
          "name": "name"
        }
      },
      "getClientByName(string)": {
        "author": "Denis M. Putnam",
        "details": "Get the client for the given name.",
        "params": {
          "_name": "client's name"
        },
        "returns": {
          "clientID": "clientID",
          "name": "name"
        }
      },
      "getCurrentOwner()": {
        "author": "Denis M. Putnam",
        "details": "No other details.",
        "returns": {
          "_0": "address current owner."
        }
      },
      "getInvoice(string,uint256)": {
        "author": "Denis M. Putnam",
        "details": "no other details",
        "params": {
          "_clientName": "name of the client",
          "_invoiceNumber": "invoice number being requested."
        },
        "returns": {
          "amount": "amount",
          "datePmtReceived": "datePmtReceived",
          "due120DaysDate": "due120DaysDate",
          "due30DaysDate": "due30DaysDate",
          "due60DaysDate": "due60DaysDate",
          "due90DaysDate": "due90DaysDate",
          "invoiceNumber": "invoiceNumber",
          "invoiceSentDate": "invoiceSentDate",
          "netTerms": "netTerms",
          "numberHours": "numberHours",
          "timesheetEndDate": "timesheetEndDate"
        }
      },
      "getInvoiceCount(string)": {
        "author": "Denis M. Putnam",
        "details": "no other details.",
        "params": {
          "_clientName": "name of the client"
        },
        "returns": {
          "count": "of invoices associated with the given client"
        }
      },
      "getInvoiceNumbers(string)": {
        "author": "Denis M. Putnam",
        "details": "returned string is a comma separated string of invoice numbers.  The comma is also the end of the string if no other values appear.",
        "params": {
          "_clientName": "name of the client"
        },
        "returns": {
          "_0": "a comma seperated list of invoice numbers associated with the client."
        }
      },
      "updateInvoice(string,uint256,uint256)": {
        "author": "Denis M. Putnam",
        "details": "no other details",
        "params": {
          "_clientName": "name of the client",
          "_invoiceNumber": "invoice number being requested.",
          "_invoicePmtDate": "payment date"
        }
      }
    },
    "title": "Invoice Tracking contract"
  },
  "userdoc": {
    "methods": {
      "addClient(address,string)": {
        "notice": "Add a client to this contract."
      },
      "addInvoice(string,uint256,uint256,uint256,string,uint256,uint256,uint256,uint256,uint256,uint256)": {
        "notice": "Add an invoice to track"
      },
      "changeOwner(address)": {
        "notice": "Change the current owner to the new owner."
      },
      "constructor": "The constructor for this contract",
      "getClientByIndex(uint256)": {
        "notice": "get the client by index number."
      },
      "getClientByName(string)": {
        "notice": "Get the requested client"
      },
      "getCurrentOwner()": {
        "notice": "Get the current owner."
      },
      "getInvoice(string,uint256)": {
        "notice": "Get an invoice"
      },
      "getInvoiceCount(string)": {
        "notice": "Get the count of invoices associated with the given client name"
      },
      "getInvoiceNumbers(string)": {
        "notice": "Get the list of invoice numbers as a string for the given client name."
      },
      "updateInvoice(string,uint256,uint256)": {
        "notice": "Update an invoice with the payment date"
      }
    },
    "notice": "This contract tracks invoices for payment"
  }
}