{
  "contractName": "InvoiceTracker",
  "abi": [
    {
      "inputs": [],
      "stateMutability": "payable",
      "type": "constructor"
    },
    {
      "anonymous": false,
      "inputs": [
        {
          "indexed": false,
          "internalType": "address",
          "name": "_clientID",
          "type": "address"
        },
        {
          "indexed": false,
          "internalType": "string",
          "name": "_name",
          "type": "string"
        }
      ],
      "name": "addClientEvent",
      "type": "event"
    },
    {
      "anonymous": false,
      "inputs": [
        {
          "indexed": false,
          "internalType": "string",
          "name": "_clientName",
          "type": "string"
        },
        {
          "indexed": false,
          "internalType": "uint256",
          "name": "_invoiceNumber",
          "type": "uint256"
        },
        {
          "indexed": false,
          "internalType": "uint256",
          "name": "_netTerms",
          "type": "uint256"
        },
        {
          "indexed": false,
          "internalType": "uint256",
          "name": "_numberHours",
          "type": "uint256"
        },
        {
          "indexed": false,
          "internalType": "uint256",
          "name": "_amount",
          "type": "uint256"
        },
        {
          "indexed": false,
          "internalType": "uint256",
          "name": "_timesheetEndDate",
          "type": "uint256"
        },
        {
          "indexed": false,
          "internalType": "uint256",
          "name": "_invoiceSentDate",
          "type": "uint256"
        },
        {
          "indexed": false,
          "internalType": "uint256",
          "name": "_due30DaysDate",
          "type": "uint256"
        },
        {
          "indexed": false,
          "internalType": "uint256",
          "name": "_due60DaysDate",
          "type": "uint256"
        },
        {
          "indexed": false,
          "internalType": "uint256",
          "name": "_due90DaysDate",
          "type": "uint256"
        },
        {
          "indexed": false,
          "internalType": "uint256",
          "name": "_due120DaysDate",
          "type": "uint256"
        },
        {
          "indexed": false,
          "internalType": "uint256",
          "name": "_datePmtReceived",
          "type": "uint256"
        }
      ],
      "name": "addInvoiceEvent",
      "type": "event"
    },
    {
      "inputs": [
        {
          "internalType": "address payable",
          "name": "newOwner",
          "type": "address"
        }
      ],
      "name": "changeOwner",
      "outputs": [],
      "stateMutability": "nonpayable",
      "type": "function"
    },
    {
      "inputs": [],
      "name": "getCurrentOwner",
      "outputs": [
        {
          "internalType": "address",
          "name": "",
          "type": "address"
        }
      ],
      "stateMutability": "view",
      "type": "function"
    },
    {
      "inputs": [
        {
          "internalType": "address",
          "name": "_clientID",
          "type": "address"
        },
        {
          "internalType": "string",
          "name": "_name",
          "type": "string"
        }
      ],
      "name": "addClient",
      "outputs": [],
      "stateMutability": "nonpayable",
      "type": "function"
    },
    {
      "inputs": [
        {
          "internalType": "string",
          "name": "_clientName",
          "type": "string"
        },
        {
          "internalType": "uint256",
          "name": "_invoiceNumber",
          "type": "uint256"
        },
        {
          "internalType": "uint256",
          "name": "_netTerms",
          "type": "uint256"
        },
        {
          "internalType": "uint256",
          "name": "_numberHours",
          "type": "uint256"
        },
        {
          "internalType": "uint256",
          "name": "_amount",
          "type": "uint256"
        },
        {
          "internalType": "uint256",
          "name": "_timesheetEndDate",
          "type": "uint256"
        },
        {
          "internalType": "uint256",
          "name": "_invoiceSentDate",
          "type": "uint256"
        },
        {
          "internalType": "uint256",
          "name": "_due30DaysDate",
          "type": "uint256"
        },
        {
          "internalType": "uint256",
          "name": "_due60DaysDate",
          "type": "uint256"
        },
        {
          "internalType": "uint256",
          "name": "_due90DaysDate",
          "type": "uint256"
        },
        {
          "internalType": "uint256",
          "name": "_due120DaysDate",
          "type": "uint256"
        },
        {
          "internalType": "uint256",
          "name": "_datePmtReceived",
          "type": "uint256"
        }
      ],
      "name": "addInvoice",
      "outputs": [],
      "stateMutability": "nonpayable",
      "type": "function"
    }
  ],
  "bytecode": "0x608060405260006001556000600255336000806101000a81548173ffffffffffffffffffffffffffffffffffffffff021916908373ffffffffffffffffffffffffffffffffffffffff1602179055506110db8061005d6000396000f3fe608060405234801561001057600080fd5b506004361061004c5760003560e01c80632e2ed85c14610051578063a18a186b1461017b578063a6f9dae1146101c5578063e292ec0814610209575b600080fd5b610179600480360361018081101561006857600080fd5b810190808035906020019064010000000081111561008557600080fd5b82018360208201111561009757600080fd5b803590602001918460018302840111640100000000831117156100b957600080fd5b91908080601f016020809104026020016040519081016040528093929190818152602001838380828437600081840152601f19601f82011690508083019250505050505050919291929080359060200190929190803590602001909291908035906020019092919080359060200190929190803590602001909291908035906020019092919080359060200190929190803590602001909291908035906020019092919080359060200190929190803590602001909291905050506102e4565b005b6101836109af565b604051808273ffffffffffffffffffffffffffffffffffffffff1673ffffffffffffffffffffffffffffffffffffffff16815260200191505060405180910390f35b610207600480360360208110156101db57600080fd5b81019080803573ffffffffffffffffffffffffffffffffffffffff1690602001909291905050506109d8565b005b6102e26004803603604081101561021f57600080fd5b81019080803573ffffffffffffffffffffffffffffffffffffffff1690602001909291908035906020019064010000000081111561025c57600080fd5b82018360208201111561026e57600080fd5b8035906020019184600183028401116401000000008311171561029057600080fd5b91908080601f016020809104026020016040519081016040528093929190818152602001838380828437600081840152601f19601f820116905080830192505050505050509192919290505050610ac0565b005b8b866102f08282610e6d565b610362576040517f08c379a00000000000000000000000000000000000000000000000000000000081526004018080602001828103825260118152602001807f4475706c696361746520696e766f69636500000000000000000000000000000081525060200191505060405180910390fd5b8c60068f6040518082805190602001908083835b602083106103995780518252602082019150602081019050602083039250610376565b6001836020036101000a0380198251168184511680821785525050505050509050019150509081526020016040518091039020600001819055508b60068f6040518082805190602001908083835b6020831061040a57805182526020820191506020810190506020830392506103e7565b6001836020036101000a0380198251168184511680821785525050505050509050019150509081526020016040518091039020600101819055508a60068f6040518082805190602001908083835b6020831061047b5780518252602082019150602081019050602083039250610458565b6001836020036101000a0380198251168184511680821785525050505050509050019150509081526020016040518091039020600201819055508960068f6040518082805190602001908083835b602083106104ec57805182526020820191506020810190506020830392506104c9565b6001836020036101000a0380198251168184511680821785525050505050509050019150509081526020016040518091039020600301819055508860068f6040518082805190602001908083835b6020831061055d578051825260208201915060208101905060208303925061053a565b6001836020036101000a0380198251168184511680821785525050505050509050019150509081526020016040518091039020600401819055508760068f6040518082805190602001908083835b602083106105ce57805182526020820191506020810190506020830392506105ab565b6001836020036101000a0380198251168184511680821785525050505050509050019150509081526020016040518091039020600501819055508660068f6040518082805190602001908083835b6020831061063f578051825260208201915060208101905060208303925061061c565b6001836020036101000a0380198251168184511680821785525050505050509050019150509081526020016040518091039020600601819055508560068f6040518082805190602001908083835b602083106106b0578051825260208201915060208101905060208303925061068d565b6001836020036101000a0380198251168184511680821785525050505050509050019150509081526020016040518091039020600701819055508460068f6040518082805190602001908083835b6020831061072157805182526020820191506020810190506020830392506106fe565b6001836020036101000a0380198251168184511680821785525050505050509050019150509081526020016040518091039020600801819055508360068f6040518082805190602001908083835b60208310610792578051825260208201915060208101905060208303925061076f565b6001836020036101000a0380198251168184511680821785525050505050509050019150509081526020016040518091039020600901819055508260068f6040518082805190602001908083835b6020831061080357805182526020820191506020810190506020830392506107e0565b6001836020036101000a0380198251168184511680821785525050505050509050019150509081526020016040518091039020600a01819055508c60058f6040518082805190602001908083835b602083106108745780518252602082019150602081019050602083039250610851565b6001836020036101000a0380198251168184511680821785525050505050509050019150509081526020016040518091039020819055507f9f0e2dee1fd2bcd17acd67dff554bbb7bd99d337a8b433a15ca88a5f273978e18e8e8e8e8e8e8e8e8e8e8e8e60405180806020018d81526020018c81526020018b81526020018a815260200189815260200188815260200187815260200186815260200185815260200184815260200183815260200182810382528e818151815260200191508051906020019080838360005b8381101561095a57808201518184015260208101905061093f565b50505050905090810190601f1680156109875780820380516001836020036101000a031916815260200191505b509d505050505050505050505050505060405180910390a15050505050505050505050505050565b60008060009054906101000a900473ffffffffffffffffffffffffffffffffffffffff16905090565b6000809054906101000a900473ffffffffffffffffffffffffffffffffffffffff1673ffffffffffffffffffffffffffffffffffffffff163373ffffffffffffffffffffffffffffffffffffffff1614610a7d576040517f08c379a000000000000000000000000000000000000000000000000000000000815260040180806020018281038252603981526020018061106d6039913960400191505060405180910390fd5b806000806101000a81548173ffffffffffffffffffffffffffffffffffffffff021916908373ffffffffffffffffffffffffffffffffffffffff16021790555050565b8181610acc8183610ef4565b610b3e576040517f08c379a00000000000000000000000000000000000000000000000000000000081526004018080602001828103825260158152602001807f436c69656e7420616c726561647920657869737473000000000000000000000081525060200191505060405180910390fd5b836003846040518082805190602001908083835b60208310610b755780518252602082019150602081019050602083039250610b52565b6001836020036101000a038019825116818451168082178552505050505050905001915050908152602001604051809103902060000160006101000a81548173ffffffffffffffffffffffffffffffffffffffff021916908373ffffffffffffffffffffffffffffffffffffffff160217905550826003846040518082805190602001908083835b60208310610c205780518252602082019150602081019050602083039250610bfd565b6001836020036101000a03801982511681845116808217855250505050505090500191505090815260200160405180910390206001019080519060200190610c69929190610fc7565b5060016003846040518082805190602001908083835b60208310610ca25780518252602082019150602081019050602083039250610c7f565b6001836020036101000a038019825116818451168082178552505050505050905001915050908152602001604051809103902060020160006101000a81548160ff021916908315150217905550836004846040518082805190602001908083835b60208310610d265780518252602082019150602081019050602083039250610d03565b6001836020036101000a038019825116818451168082178552505050505050905001915050908152602001604051809103902060006101000a81548173ffffffffffffffffffffffffffffffffffffffff021916908373ffffffffffffffffffffffffffffffffffffffff1602179055507f11ada27156286ec17e2b313f3687beba84ab19beba84f020e2938ed46737d7ae8484604051808373ffffffffffffffffffffffffffffffffffffffff1673ffffffffffffffffffffffffffffffffffffffff16815260200180602001828103825283818151815260200191508051906020019080838360005b83811015610e2c578082015181840152602081019050610e11565b50505050905090810190601f168015610e595780820380516001836020036101000a031916815260200191505b50935050505060405180910390a150505050565b6000816005846040518082805190602001908083835b60208310610ea65780518252602082019150602081019050602083039250610e83565b6001836020036101000a0380198251168184511680821785525050505050509050019150509081526020016040518091039020541415610ee95760009050610eee565b600190505b92915050565b60008173ffffffffffffffffffffffffffffffffffffffff166004846040518082805190602001908083835b60208310610f435780518252602082019150602081019050602083039250610f20565b6001836020036101000a038019825116818451168082178552505050505050905001915050908152602001604051809103902060009054906101000a900473ffffffffffffffffffffffffffffffffffffffff1673ffffffffffffffffffffffffffffffffffffffff161415610fbc5760009050610fc1565b600190505b92915050565b828054600181600116156101000203166002900490600052602060002090601f016020900481019282601f1061100857805160ff1916838001178555611036565b82800160010185558215611036579182015b8281111561103557825182559160200191906001019061101a565b5b5090506110439190611047565b5090565b61106991905b8082111561106557600081600090555060010161104d565b5090565b9056fe4f6e6c7920746865206f776e6572206f662074686520636f6e74726163742063616e206578656375746520746869732066756e6374696f6e2ea2646970667358221220c941e981b7c8b15ee1f6860de61cf2d8d439917f517531d38696499cc7ff15a764736f6c63430006060033",
  "source": "pragma solidity 0.6.6;\n\nimport \"./Owned.sol\";\n\n/// @title Invoice Tracking contract\n/// @author Denis M. Putnam\n/// @notice This contract tracks invoices for payment\n/// @dev Use at your own risk.\ncontract InvoiceTracker is Owned {\n  uint256 clientIndex = 0;\n  uint256 clientNameIndex = 0;\n\n  /// @notice Invoice struct\n  struct Invoice {\n    uint256 invoiceNumber;\n    uint256 netTerms; // 30, 60 90, 120 days net\n    uint256 numberHours;\n    uint256 amount;\n    uint256 timesheetEndDate;\n    uint256 invoiceSentDate;\n    uint256 due30DaysDate;\n    uint256 due60DaysDate;\n    uint256 due90DaysDate;\n    uint256 due120DaysDate;\n    uint256 datePmtReceived;\n  }\n\n  /// @notice Client struct\n  struct Client {\n    address clientID;\n    string name;\n    bool flag;\n  }\n\n  /// @notice map the name of the client to the Client struct\n  mapping(string => Client) private clientMap;\n  /// @notice map the name of the client to the client address\n  mapping(string => address) private clientNameAddressMap;\n  /// @notice map the name of the client to an invoice number\n  mapping(string => uint256) private clientInvoiceMap;\n  /// @notice map the name of the client to an invoice\n  mapping(string => Invoice) private clientNameInvoiceMap;\n\n  /// @author Denis M. Putnam\n  /// @notice The constructor for this contract\n  /// @dev no other details\n  constructor() Owned() payable public {\n  }\n\n  event addClientEvent(address _clientID, string _name);\n\n  /// @author Denis M. Putnam\n  /// @notice Check for no client.\n  /// @param _clientName name of the client.\n  /// @param _clientID clients wallet address.\n  /// @dev no other details.\n  function isNoClient(string memory _clientName, address _clientID) private view returns(bool) {\n    if(clientNameAddressMap[_clientName] == _clientID) {\n      return false;\n    }\n    return true;\n  }\n\n  modifier noDupClient(address _clientID, string memory _clientName) {\n      require(isNoClient(_clientName, _clientID), \"Client already exists\");\n      _;\n  }\n\n  /// @author Denis M. Putnam\n  /// @notice Add a client to this contract.\n  /// @param _clientID address of the wallet of the client.\n  /// @param _name string with the client's name.  This needs to be unique\n  /// @dev Add's a client to the clientMap and the clientNameAddressMap\n  function addClient(address _clientID, string memory _name) noDupClient(_clientID, _name) public {\n    clientMap[_name].clientID = _clientID;\n    clientMap[_name].name = _name;\n    clientMap[_name].flag = true;\n    clientNameAddressMap[_name] = _clientID;\n    emit addClientEvent(_clientID, _name);\n  }\n\n  /// @author Denis M. Putnam\n  /// @notice Check for no duplicate invoice.\n  /// @param _clientName name of the client.\n  /// @param _invoiceNumber invoice number.\n  /// @dev no other details.\n  function isNoDuplicateInvoice(string memory _clientName, uint256 _invoiceNumber) private view returns(bool) {\n    if(clientInvoiceMap[_clientName] == _invoiceNumber) {\n      return false;\n    }\n    return true;\n  }\n\n  modifier noDupInvoice(string memory _clientName, uint256 _invoiceNumber) {\n      require(isNoDuplicateInvoice(_clientName, _invoiceNumber), \"Duplicate invoice\");\n      _;\n  }\n\n  event addInvoiceEvent(\n                        string _clientName,\n                        uint256 _invoiceNumber,\n                        uint256 _netTerms,\n                        uint256 _numberHours,\n                        uint256 _amount,\n                        uint256 _timesheetEndDate,\n                        uint256 _invoiceSentDate,\n                        uint256 _due30DaysDate,\n                        uint256 _due60DaysDate,\n                        uint256 _due90DaysDate,\n                        uint256 _due120DaysDate,\n                        uint256 _datePmtReceived\n                        );\n\n  /// @author Denis M. Putnam\n  /// @notice Add an invoice to track\n  /// @param _clientName name of the client\n  /// @param _invoiceNumber invoice number\n  /// @param _netTerms net terms for 30, 60, 90, or 120 days.\n  /// @param _numberHours number of hours for the timesheet.\n  /// @param _amount amount in dollars.\n  /// @param _timesheetEndDate timesheet end date\n  /// @param _invoiceSentDate date that invoice was sent to the client.\n  /// @param _due30DaysDate 30 day invoice due date\n  /// @param _due60DaysDate 60 day invoice due date\n  /// @param _due90DaysDate 90 day invoice due date\n  /// @param _due120DaysDate 120 day invoice due date\n  /// @param _datePmtReceived date of actual payment\n  /// @dev Add's an invoice to be tracked.\n  function addInvoice(\n            string memory _clientName,\n            uint256 _invoiceNumber,\n            uint256 _netTerms,\n            uint256 _numberHours,\n            uint256 _amount,\n            uint256 _timesheetEndDate,\n            uint256 _invoiceSentDate,\n            uint256 _due30DaysDate,\n            uint256 _due60DaysDate,\n            uint256 _due90DaysDate,\n            uint256 _due120DaysDate,\n            uint256 _datePmtReceived) noDupInvoice(_clientName, _invoiceSentDate) public {\n\n    clientNameInvoiceMap[_clientName].invoiceNumber = _invoiceNumber;\n    clientNameInvoiceMap[_clientName].netTerms = _netTerms;\n    clientNameInvoiceMap[_clientName].numberHours = _numberHours;\n    clientNameInvoiceMap[_clientName].amount = _amount;\n    clientNameInvoiceMap[_clientName].timesheetEndDate = _timesheetEndDate;\n    clientNameInvoiceMap[_clientName].invoiceSentDate = _invoiceSentDate;\n    clientNameInvoiceMap[_clientName].due30DaysDate = _due30DaysDate;\n    clientNameInvoiceMap[_clientName].due60DaysDate = _due60DaysDate;\n    clientNameInvoiceMap[_clientName].due90DaysDate = _due90DaysDate;\n    clientNameInvoiceMap[_clientName].due120DaysDate = _due120DaysDate;\n    clientNameInvoiceMap[_clientName].datePmtReceived = _datePmtReceived;\n\n    clientInvoiceMap[_clientName] = _invoiceNumber;\n    emit addInvoiceEvent(\n                      _clientName,\n                      _invoiceNumber,\n                      _netTerms,\n                      _numberHours,\n                      _amount,\n                      _timesheetEndDate,\n                      _invoiceSentDate,\n                      _due30DaysDate,\n                      _due60DaysDate,\n                      _due90DaysDate,\n                      _due120DaysDate,\n                      _datePmtReceived\n                      );\n  }\n}\n",
  "sourcePath": "/Users/denisputnam/git/APDF-invoice-tracker-dapp/contracts/InvoiceTracker.sol",
  "compiler": {
    "name": "solc",
    "version": "0.6.6+commit.6c089d02.Emscripten.clang"
  },
  "schemaVersion": "3.0.23",
  "updatedAt": "2020-04-28T21:23:42.896Z",
  "devdoc": {
    "author": "Denis M. Putnam",
    "details": "Use at your own risk.",
    "methods": {
      "addClient(address,string)": {
        "author": "Denis M. Putnam",
        "details": "Add's a client to the clientMap and the clientNameAddressMap",
        "params": {
          "_clientID": "address of the wallet of the client.",
          "_name": "string with the client's name.  This needs to be unique"
        }
      },
      "addInvoice(string,uint256,uint256,uint256,uint256,uint256,uint256,uint256,uint256,uint256,uint256,uint256)": {
        "author": "Denis M. Putnam",
        "details": "Add's an invoice to be tracked.",
        "params": {
          "_amount": "amount in dollars.",
          "_clientName": "name of the client",
          "_datePmtReceived": "date of actual payment",
          "_due120DaysDate": "120 day invoice due date",
          "_due30DaysDate": "30 day invoice due date",
          "_due60DaysDate": "60 day invoice due date",
          "_due90DaysDate": "90 day invoice due date",
          "_invoiceNumber": "invoice number",
          "_invoiceSentDate": "date that invoice was sent to the client.",
          "_netTerms": "net terms for 30, 60, 90, or 120 days.",
          "_numberHours": "number of hours for the timesheet.",
          "_timesheetEndDate": "timesheet end date"
        }
      },
      "changeOwner(address)": {
        "author": "Denis M. Putnam",
        "details": "No other details.",
        "params": {
          "newOwner": "new address payable owner."
        }
      },
      "constructor": {
        "author": "Denis M. Putnam",
        "details": "no other details"
      },
      "getCurrentOwner()": {
        "author": "Denis M. Putnam",
        "details": "No other details.",
        "returns": {
          "_0": "address current owner."
        }
      }
    },
    "title": "Invoice Tracking contract"
  },
  "userdoc": {
    "methods": {
      "addClient(address,string)": {
        "notice": "Add a client to this contract."
      },
      "addInvoice(string,uint256,uint256,uint256,uint256,uint256,uint256,uint256,uint256,uint256,uint256,uint256)": {
        "notice": "Add an invoice to track"
      },
      "changeOwner(address)": {
        "notice": "Change the current owner to the new owner."
      },
      "constructor": "The constructor for this contract",
      "getCurrentOwner()": {
        "notice": "Get the current owner."
      }
    },
    "notice": "This contract tracks invoices for payment"
  }
}