{
  "contractName": "InvoiceTracker",
  "abi": [
    {
      "inputs": [],
      "stateMutability": "payable",
      "type": "constructor",
      "payable": true
    },
    {
      "anonymous": false,
      "inputs": [
        {
          "indexed": false,
          "internalType": "address",
          "name": "_clientID",
          "type": "address"
        },
        {
          "indexed": false,
          "internalType": "string",
          "name": "_name",
          "type": "string"
        }
      ],
      "name": "addClientEvent",
      "type": "event"
    },
    {
      "anonymous": false,
      "inputs": [
        {
          "indexed": false,
          "internalType": "string",
          "name": "_clientName",
          "type": "string"
        },
        {
          "indexed": false,
          "internalType": "uint256",
          "name": "_invoiceNumber",
          "type": "uint256"
        },
        {
          "indexed": false,
          "internalType": "uint256",
          "name": "_netTerms",
          "type": "uint256"
        },
        {
          "indexed": false,
          "internalType": "uint256",
          "name": "_numberHours",
          "type": "uint256"
        },
        {
          "indexed": false,
          "internalType": "string",
          "name": "_amount",
          "type": "string"
        },
        {
          "indexed": false,
          "internalType": "uint256",
          "name": "_timesheetEndDate",
          "type": "uint256"
        },
        {
          "indexed": false,
          "internalType": "uint256",
          "name": "_invoiceSentDate",
          "type": "uint256"
        },
        {
          "indexed": false,
          "internalType": "uint256",
          "name": "_due30DaysDate",
          "type": "uint256"
        },
        {
          "indexed": false,
          "internalType": "uint256",
          "name": "_due60DaysDate",
          "type": "uint256"
        },
        {
          "indexed": false,
          "internalType": "uint256",
          "name": "_due90DaysDate",
          "type": "uint256"
        },
        {
          "indexed": false,
          "internalType": "uint256",
          "name": "_due120DaysDate",
          "type": "uint256"
        },
        {
          "indexed": false,
          "internalType": "uint256",
          "name": "_datePmtReceived",
          "type": "uint256"
        }
      ],
      "name": "addInvoiceEvent",
      "type": "event"
    },
    {
      "anonymous": false,
      "inputs": [
        {
          "indexed": false,
          "internalType": "string",
          "name": "_clientName",
          "type": "string"
        },
        {
          "indexed": false,
          "internalType": "uint256",
          "name": "_invoiceNumber",
          "type": "uint256"
        },
        {
          "indexed": false,
          "internalType": "uint256",
          "name": "_datePmtReceived",
          "type": "uint256"
        }
      ],
      "name": "updateInvoiceEvent",
      "type": "event"
    },
    {
      "inputs": [
        {
          "internalType": "address payable",
          "name": "newOwner",
          "type": "address"
        }
      ],
      "name": "changeOwner",
      "outputs": [],
      "stateMutability": "nonpayable",
      "type": "function"
    },
    {
      "inputs": [],
      "name": "getCurrentOwner",
      "outputs": [
        {
          "internalType": "address",
          "name": "",
          "type": "address"
        }
      ],
      "stateMutability": "view",
      "type": "function",
      "constant": true
    },
    {
      "inputs": [
        {
          "internalType": "address",
          "name": "_clientID",
          "type": "address"
        },
        {
          "internalType": "string",
          "name": "_name",
          "type": "string"
        }
      ],
      "name": "addClient",
      "outputs": [],
      "stateMutability": "nonpayable",
      "type": "function"
    },
    {
      "inputs": [
        {
          "internalType": "string",
          "name": "_clientName",
          "type": "string"
        },
        {
          "internalType": "uint256",
          "name": "_invoiceNumber",
          "type": "uint256"
        },
        {
          "internalType": "uint256",
          "name": "_netTerms",
          "type": "uint256"
        },
        {
          "internalType": "uint256",
          "name": "_numberHours",
          "type": "uint256"
        },
        {
          "internalType": "string",
          "name": "_amount",
          "type": "string"
        },
        {
          "internalType": "uint256",
          "name": "_timesheetEndDate",
          "type": "uint256"
        },
        {
          "internalType": "uint256",
          "name": "_invoiceSentDate",
          "type": "uint256"
        },
        {
          "internalType": "uint256",
          "name": "_due30DaysDate",
          "type": "uint256"
        },
        {
          "internalType": "uint256",
          "name": "_due60DaysDate",
          "type": "uint256"
        },
        {
          "internalType": "uint256",
          "name": "_due90DaysDate",
          "type": "uint256"
        },
        {
          "internalType": "uint256",
          "name": "_due120DaysDate",
          "type": "uint256"
        },
        {
          "internalType": "uint256",
          "name": "_datePmtReceived",
          "type": "uint256"
        }
      ],
      "name": "addInvoice",
      "outputs": [],
      "stateMutability": "nonpayable",
      "type": "function"
    },
    {
      "inputs": [
        {
          "internalType": "string",
          "name": "_clientName",
          "type": "string"
        }
      ],
      "name": "getInvoiceCount",
      "outputs": [
        {
          "internalType": "uint256",
          "name": "count",
          "type": "uint256"
        }
      ],
      "stateMutability": "view",
      "type": "function",
      "constant": true
    },
    {
      "inputs": [
        {
          "internalType": "string",
          "name": "_clientName",
          "type": "string"
        }
      ],
      "name": "getInvoiceNumbers",
      "outputs": [
        {
          "internalType": "string",
          "name": "",
          "type": "string"
        }
      ],
      "stateMutability": "view",
      "type": "function",
      "constant": true
    },
    {
      "inputs": [
        {
          "internalType": "string",
          "name": "_clientName",
          "type": "string"
        },
        {
          "internalType": "uint256",
          "name": "_invoiceNumber",
          "type": "uint256"
        },
        {
          "internalType": "uint256",
          "name": "_invoicePmtDate",
          "type": "uint256"
        }
      ],
      "name": "updateInvoice",
      "outputs": [],
      "stateMutability": "nonpayable",
      "type": "function"
    },
    {
      "inputs": [
        {
          "internalType": "string",
          "name": "_clientName",
          "type": "string"
        },
        {
          "internalType": "uint256",
          "name": "_invoiceNumber",
          "type": "uint256"
        }
      ],
      "name": "getInvoice",
      "outputs": [
        {
          "internalType": "uint256",
          "name": "invoiceNumber",
          "type": "uint256"
        },
        {
          "internalType": "uint256",
          "name": "netTerms",
          "type": "uint256"
        },
        {
          "internalType": "uint256",
          "name": "numberHours",
          "type": "uint256"
        },
        {
          "internalType": "string",
          "name": "amount",
          "type": "string"
        },
        {
          "internalType": "uint256",
          "name": "timesheetEndDate",
          "type": "uint256"
        },
        {
          "internalType": "uint256",
          "name": "invoiceSentDate",
          "type": "uint256"
        },
        {
          "internalType": "uint256",
          "name": "due30DaysDate",
          "type": "uint256"
        },
        {
          "internalType": "uint256",
          "name": "due60DaysDate",
          "type": "uint256"
        },
        {
          "internalType": "uint256",
          "name": "due90DaysDate",
          "type": "uint256"
        },
        {
          "internalType": "uint256",
          "name": "due120DaysDate",
          "type": "uint256"
        },
        {
          "internalType": "uint256",
          "name": "datePmtReceived",
          "type": "uint256"
        }
      ],
      "stateMutability": "view",
      "type": "function",
      "constant": true
    }
  ],
  "bytecode": "0x6080604052336000806101000a81548173ffffffffffffffffffffffffffffffffffffffff021916908373ffffffffffffffffffffffffffffffffffffffff1602179055506121ef806100536000396000f3fe608060405234801561001057600080fd5b50600436106100885760003560e01c8063a6f9dae11161005b578063a6f9dae1146104e1578063b944ef3414610525578063ba76f13114610659578063e292ec081461072857610088565b8063472eab391461008d578063823d85001461024457806388e65fd7146103c8578063a18a186b14610497575b600080fd5b61024260048036036101808110156100a457600080fd5b81019080803590602001906401000000008111156100c157600080fd5b8201836020820111156100d357600080fd5b803590602001918460018302840111640100000000831117156100f557600080fd5b91908080601f016020809104026020016040519081016040528093929190818152602001838380828437600081840152601f19601f8201169050808301925050505050505091929192908035906020019092919080359060200190929190803590602001909291908035906020019064010000000081111561017657600080fd5b82018360208201111561018857600080fd5b803590602001918460018302840111640100000000831117156101aa57600080fd5b91908080601f016020809104026020016040519081016040528093929190818152602001838380828437600081840152601f19601f82011690508083019250505050505050919291929080359060200190929190803590602001909291908035906020019092919080359060200190929190803590602001909291908035906020019092919080359060200190929190505050610803565b005b6103076004803603604081101561025a57600080fd5b810190808035906020019064010000000081111561027757600080fd5b82018360208201111561028957600080fd5b803590602001918460018302840111640100000000831117156102ab57600080fd5b91908080601f016020809104026020016040519081016040528093929190818152602001838380828437600081840152601f19601f82011690508083019250505050505050919291929080359060200190929190505050610bf4565b604051808c81526020018b81526020018a81526020018060200189815260200188815260200187815260200186815260200185815260200184815260200183815260200182810382528a818151815260200191508051906020019080838360005b83811015610383578082015181840152602081019050610368565b50505050905090810190601f1680156103b05780820380516001836020036101000a031916815260200191505b509c5050505050505050505050505060405180910390f35b610495600480360360608110156103de57600080fd5b81019080803590602001906401000000008111156103fb57600080fd5b82018360208201111561040d57600080fd5b8035906020019184600183028401116401000000008311171561042f57600080fd5b91908080601f016020809104026020016040519081016040528093929190818152602001838380828437600081840152601f19601f8201169050808301925050505050505091929192908035906020019092919080359060200190929190505050610e81565b005b61049f61125c565b604051808273ffffffffffffffffffffffffffffffffffffffff1673ffffffffffffffffffffffffffffffffffffffff16815260200191505060405180910390f35b610523600480360360208110156104f757600080fd5b81019080803573ffffffffffffffffffffffffffffffffffffffff169060200190929190505050611285565b005b6105de6004803603602081101561053b57600080fd5b810190808035906020019064010000000081111561055857600080fd5b82018360208201111561056a57600080fd5b8035906020019184600183028401116401000000008311171561058c57600080fd5b91908080601f016020809104026020016040519081016040528093929190818152602001838380828437600081840152601f19601f82011690508083019250505050505050919291929050505061136d565b6040518080602001828103825283818151815260200191508051906020019080838360005b8381101561061e578082015181840152602081019050610603565b50505050905090810190601f16801561064b5780820380516001836020036101000a031916815260200191505b509250505060405180910390f35b6107126004803603602081101561066f57600080fd5b810190808035906020019064010000000081111561068c57600080fd5b82018360208201111561069e57600080fd5b803590602001918460018302840111640100000000831117156106c057600080fd5b91908080601f016020809104026020016040519081016040528093929190818152602001838380828437600081840152601f19601f8201169050808301925050505050505091929192905050506115cb565b6040518082815260200191505060405180910390f35b6108016004803603604081101561073e57600080fd5b81019080803573ffffffffffffffffffffffffffffffffffffffff1690602001909291908035906020019064010000000081111561077b57600080fd5b82018360208201111561078d57600080fd5b803590602001918460018302840111640100000000831117156107af57600080fd5b91908080601f016020809104026020016040519081016040528093929190818152602001838380828437600081840152601f19601f82011690508083019250505050505050919291929050505061167d565b005b61080b61125c565b73ffffffffffffffffffffffffffffffffffffffff163373ffffffffffffffffffffffffffffffffffffffff161461084257600080fd5b8b8661084e8282611ad7565b6108c0576040517f08c379a00000000000000000000000000000000000000000000000000000000081526004018080602001828103825260118152602001807f4475706c696361746520696e766f69636500000000000000000000000000000081525060200191505060405180910390fd5b6108c861205c565b8d8160000181815250508c8160200181815250508b8160400181815250508a816060018190525089816080018181525050888160a0018181525050878160c0018181525050868160e001818152505085816101000181815250508481610120018181525050838161014001818152505060038f6040518082805190602001908083835b6020831061096e578051825260208201915060208101905060208303925061094b565b6001836020036101000a03801982511681845116808217855250505050505090500191505090815260200160405180910390208190806001815401808255809150506001900390600052602060002090600b02016000909190919091506000820151816000015560208201518160010155604082015181600201556060820151816003019080519060200190610a059291906120b6565b506080820151816004015560a0820151816005015560c0820151816006015560e082015181600701556101008201518160080155610120820151816009015561014082015181600a01555050610a5a8f611c00565b507f64b1990245accd502365916f65e5fcd03e71f750f7fcb75f88e699b5c067b8d98f826000015183602001518460400151856060015186608001518760a001518860c001518960e001518a61010001518b61012001518c610140015160405180806020018d81526020018c81526020018b8152602001806020018a815260200189815260200188815260200187815260200186815260200185815260200184815260200183810383528f818151815260200191508051906020019080838360005b83811015610b37578082015181840152602081019050610b1c565b50505050905090810190601f168015610b645780820380516001836020036101000a031916815260200191505b5083810382528b818151815260200191508051906020019080838360005b83811015610b9d578082015181840152602081019050610b82565b50505050905090810190601f168015610bca5780820380516001836020036101000a031916815260200191505b509e50505050505050505050505050505060405180910390a1505050505050505050505050505050565b600080600060606000806000806000806000610c0e61125c565b73ffffffffffffffffffffffffffffffffffffffff163373ffffffffffffffffffffffffffffffffffffffff1614610c4557600080fd5b6000610c518e8e611c80565b90507fffffffffffffffffffffffffffffffffffffffffffffffffffffffffffffffff8114610e6f57610c8261205c565b60038f6040518082805190602001908083835b60208310610cb85780518252602082019150602081019050602083039250610c95565b6001836020036101000a03801982511681845116808217855250505050505090500191505090815260200160405180910390208281548110610cf657fe5b90600052602060002090600b020160405180610160016040529081600082015481526020016001820154815260200160028201548152602001600382018054600181600116156101000203166002900480601f016020809104026020016040519081016040528092919081815260200182805460018160011615610100020316600290048015610dc75780601f10610d9c57610100808354040283529160200191610dc7565b820191906000526020600020905b815481529060010190602001808311610daa57829003601f168201915b50505050508152602001600482015481526020016005820154815260200160068201548152602001600782015481526020016008820154815260200160098201548152602001600a820154815250509050806000015181602001518260400151836060015184608001518560a001518660c001518760e001518861010001518961012001518a61014001519c509c509c509c509c509c509c509c509c509c509c505050610e71565b505b9295989b509295989b9093969950565b610e8961125c565b73ffffffffffffffffffffffffffffffffffffffff163373ffffffffffffffffffffffffffffffffffffffff1614610ec057600080fd5b6000610ecc8484611c80565b90507fffffffffffffffffffffffffffffffffffffffffffffffffffffffffffffffff811461125657610efd61205c565b6003856040518082805190602001908083835b60208310610f335780518252602082019150602081019050602083039250610f10565b6001836020036101000a03801982511681845116808217855250505050505090500191505090815260200160405180910390208281548110610f7157fe5b90600052602060002090600b020160405180610160016040529081600082015481526020016001820154815260200160028201548152602001600382018054600181600116156101000203166002900480601f0160208091040260200160405190810160405280929190818152602001828054600181600116156101000203166002900480156110425780601f1061101757610100808354040283529160200191611042565b820191906000526020600020905b81548152906001019060200180831161102557829003601f168201915b50505050508152602001600482015481526020016005820154815260200160068201548152602001600782015481526020016008820154815260200160098201548152602001600a8201548152505090508281610140018181525050806003866040518082805190602001908083835b602083106110d557805182526020820191506020810190506020830392506110b2565b6001836020036101000a0380198251168184511680821785525050505050509050019150509081526020016040518091039020838154811061111357fe5b90600052602060002090600b0201600082015181600001556020820151816001015560408201518160020155606082015181600301908051906020019061115b9291906120b6565b506080820151816004015560a0820151816005015560c0820151816006015560e082015181600701556101008201518160080155610120820151816009015561014082015181600a01559050507f4aaf47da2b830ec7cb39ceac30735c6b5f91912852a2fcbedca8fb36ea7509398585856040518080602001848152602001838152602001828103825285818151815260200191508051906020019080838360005b838110156112185780820151818401526020810190506111fd565b50505050905090810190601f1680156112455780820380516001836020036101000a031916815260200191505b5094505050505060405180910390a1505b50505050565b60008060009054906101000a900473ffffffffffffffffffffffffffffffffffffffff16905090565b6000809054906101000a900473ffffffffffffffffffffffffffffffffffffffff1673ffffffffffffffffffffffffffffffffffffffff163373ffffffffffffffffffffffffffffffffffffffff161461132a576040517f08c379a00000000000000000000000000000000000000000000000000000000081526004018080602001828103825260398152602001806121816039913960400191505060405180910390fd5b806000806101000a81548173ffffffffffffffffffffffffffffffffffffffff021916908373ffffffffffffffffffffffffffffffffffffffff16021790555050565b606061137761125c565b73ffffffffffffffffffffffffffffffffffffffff163373ffffffffffffffffffffffffffffffffffffffff16146113ae57600080fd5b606060405180602001604052806000815250905060008090505b6004846040518082805190602001908083835b602083106113fe57805182526020820191506020810190506020830392506113db565b6001836020036101000a0380198251168184511680821785525050505050509050019150509081526020016040518091039020548110156115c15760606114c96003866040518082805190602001908083835b602083106114745780518252602082019150602081019050602083039250611451565b6001836020036101000a038019825116818451168082178552505050505050905001915050908152602001604051809103902083815481106114b257fe5b90600052602060002090600b020160000154611e45565b905082816040516020018083805190602001908083835b6020831061150357805182526020820191506020810190506020830392506114e0565b6001836020036101000a03801982511681845116808217855250505050505090500182805190602001908083835b602083106115545780518252602082019150602081019050602083039250611531565b6001836020036101000a038019825116818451168082178552505050505050905001807f2c000000000000000000000000000000000000000000000000000000000000008152506001019250505060405160208183030381529060405292505080806001019150506113c8565b5080915050919050565b60006115d561125c565b73ffffffffffffffffffffffffffffffffffffffff163373ffffffffffffffffffffffffffffffffffffffff161461160c57600080fd5b6004826040518082805190602001908083835b60208310611642578051825260208201915060208101905060208303925061161f565b6001836020036101000a0380198251168184511680821785525050505050509050019150509081526020016040518091039020549050919050565b61168561125c565b73ffffffffffffffffffffffffffffffffffffffff163373ffffffffffffffffffffffffffffffffffffffff16146116bc57600080fd5b81816116c88183611f89565b61173a576040517f08c379a00000000000000000000000000000000000000000000000000000000081526004018080602001828103825260158152602001807f436c69656e7420616c726561647920657869737473000000000000000000000081525060200191505060405180910390fd5b836001846040518082805190602001908083835b60208310611771578051825260208201915060208101905060208303925061174e565b6001836020036101000a038019825116818451168082178552505050505050905001915050908152602001604051809103902060000160006101000a81548173ffffffffffffffffffffffffffffffffffffffff021916908373ffffffffffffffffffffffffffffffffffffffff160217905550826001846040518082805190602001908083835b6020831061181c57805182526020820191506020810190506020830392506117f9565b6001836020036101000a038019825116818451168082178552505050505050905001915050908152602001604051809103902060010190805190602001906118659291906120b6565b50600180846040518082805190602001908083835b6020831061189d578051825260208201915060208101905060208303925061187a565b6001836020036101000a038019825116818451168082178552505050505050905001915050908152602001604051809103902060020160006101000a81548160ff021916908315150217905550836002846040518082805190602001908083835b6020831061192157805182526020820191506020810190506020830392506118fe565b6001836020036101000a038019825116818451168082178552505050505050905001915050908152602001604051809103902060006101000a81548173ffffffffffffffffffffffffffffffffffffffff021916908373ffffffffffffffffffffffffffffffffffffffff16021790555060006004846040518082805190602001908083835b602083106119ca57805182526020820191506020810190506020830392506119a7565b6001836020036101000a0380198251168184511680821785525050505050509050019150509081526020016040518091039020819055507f11ada27156286ec17e2b313f3687beba84ab19beba84f020e2938ed46737d7ae8484604051808373ffffffffffffffffffffffffffffffffffffffff1673ffffffffffffffffffffffffffffffffffffffff16815260200180602001828103825283818151815260200191508051906020019080838360005b83811015611a96578082015181840152602081019050611a7b565b50505050905090810190601f168015611ac35780820380516001836020036101000a031916815260200191505b50935050505060405180910390a150505050565b600080600090505b6004846040518082805190602001908083835b60208310611b155780518252602082019150602081019050602083039250611af2565b6001836020036101000a038019825116818451168082178552505050505050905001915050908152602001604051809103902054811015611bf4576003846040518082805190602001908083835b60208310611b865780518252602082019150602081019050602083039250611b63565b6001836020036101000a03801982511681845116808217855250505050505090500191505090815260200160405180910390208181548110611bc457fe5b90600052602060002090600b020160000154831415611be7576000915050611bfa565b8080600101915050611adf565b50600190505b92915050565b600060016004836040518082805190602001908083835b60208310611c3a5780518252602082019150602081019050602083039250611c17565b6001836020036101000a03801982511681845116808217855250505050505090500191505090815260200160405180910390206000828254019250508190559050919050565b6000611c8a61125c565b73ffffffffffffffffffffffffffffffffffffffff163373ffffffffffffffffffffffffffffffffffffffff1614611cc157600080fd5b8160008111611d1b576040517f08c379a000000000000000000000000000000000000000000000000000000000815260040180806020018281038252602581526020018061215c6025913960400191505060405180910390fd5b60008090505b6004856040518082805190602001908083835b60208310611d575780518252602082019150602081019050602083039250611d34565b6001836020036101000a038019825116818451168082178552505050505050905001915050908152602001604051809103902054811215611e19576004856040518082805190602001908083835b60208310611dc85780518252602082019150602081019050602083039250611da5565b6001836020036101000a038019825116818451168082178552505050505050905001915050908152602001604051809103902054841415611e0c5780925050611e3e565b8080600101915050611d21565b507fffffffffffffffffffffffffffffffffffffffffffffffffffffffffffffffff91505b5092915050565b60606000821415611e8d576040518060400160405280600181526020017f30000000000000000000000000000000000000000000000000000000000000008152509050611f84565b600082905060005b60008214611eb7578080600101915050600a8281611eaf57fe5b049150611e95565b60608167ffffffffffffffff81118015611ed057600080fd5b506040519080825280601f01601f191660200182016040528015611f035781602001600182028036833780820191505090505b50905060006001830390505b60008614611f7c57600a8681611f2157fe5b0660300160f81b82828060019003935081518110611f3b57fe5b60200101907effffffffffffffffffffffffffffffffffffffffffffffffffffffffffffff1916908160001a905350600a8681611f7457fe5b049550611f0f565b819450505050505b919050565b60008173ffffffffffffffffffffffffffffffffffffffff166002846040518082805190602001908083835b60208310611fd85780518252602082019150602081019050602083039250611fb5565b6001836020036101000a038019825116818451168082178552505050505050905001915050908152602001604051809103902060009054906101000a900473ffffffffffffffffffffffffffffffffffffffff1673ffffffffffffffffffffffffffffffffffffffff1614156120515760009050612056565b600190505b92915050565b60405180610160016040528060008152602001600081526020016000815260200160608152602001600081526020016000815260200160008152602001600081526020016000815260200160008152602001600081525090565b828054600181600116156101000203166002900490600052602060002090601f016020900481019282601f106120f757805160ff1916838001178555612125565b82800160010185558215612125579182015b82811115612124578251825591602001919060010190612109565b5b5090506121329190612136565b5090565b61215891905b8082111561215457600081600090555060010161213c565b5090565b9056fe496e766f696365206e756d626572206d7573742062652067726561746572207468616e20304f6e6c7920746865206f776e6572206f662074686520636f6e74726163742063616e206578656375746520746869732066756e6374696f6e2ea2646970667358221220c3f4a037a3d227ac7985b62d392387ac2560d97544db28779311bd92ed866d7264736f6c63430006060033",
  "source": "pragma solidity 0.6.6;\n\nimport \"./Owned.sol\";\n\n\n/// @title Invoice Tracking contract\n/// @author Denis M. Putnam\n/// @notice This contract tracks invoices for payment\n/// @dev Use at your own risk.\ncontract InvoiceTracker is Owned {\n    /// @notice Invoice struct\n    struct Invoice {\n        uint256 invoiceNumber;\n        uint256 netTerms; // 30, 60 90, 120 days net\n        uint256 numberHours;\n        string amount;\n        uint256 timesheetEndDate;\n        uint256 invoiceSentDate;\n        uint256 due30DaysDate;\n        uint256 due60DaysDate;\n        uint256 due90DaysDate;\n        uint256 due120DaysDate;\n        uint256 datePmtReceived;\n    }\n\n    /// @notice Client struct\n    struct Client {\n        address clientID;\n        string name;\n        bool flag;\n    }\n\n    /// @notice map the name of the client to the Client struct\n    mapping(string => Client) private clientMap;\n    /// @notice map the name of the client to the client address\n    mapping(string => address) private clientNameAddressMap;\n    /// @notice map the name of the client to invoices. this isa one to many mapping.\n    mapping(string => Invoice[]) private clientNameInvoiceMap;\n    /// @notice map the name of the client to an invoice count\n    mapping(string => uint256) private clientNameInvoiceCountMap;\n\n    /// @author Denis M. Putnam\n    /// @notice The constructor for this contract\n    /// @dev no other details\n    constructor() public payable Owned() {}\n\n    event addClientEvent(address _clientID, string _name);\n\n    /// @author Denis M. Putnam\n    /// @notice Check for no client.\n    /// @param _clientName name of the client.\n    /// @param _clientID clients wallet address.\n    /// @dev no other details.\n    function isNoClient(string memory _clientName, address _clientID)\n        private\n        view\n        returns (bool)\n    {\n        if (clientNameAddressMap[_clientName] == _clientID) {\n            return false;\n        }\n        return true;\n    }\n\n    modifier noDupClient(address _clientID, string memory _clientName) {\n        require(isNoClient(_clientName, _clientID), \"Client already exists\");\n        _;\n    }\n\n    modifier onlyOwner() {\n        require(msg.sender == getCurrentOwner());\n        _;\n    }\n\n    /// @author Denis M. Putnam\n    /// @notice Add a client to this contract.\n    /// @param _clientID address of the wallet of the client.\n    /// @param _name string with the client's name.  This needs to be unique\n    /// @dev Add's a client to the clientMap and the clientNameAddressMap\n    function addClient(address _clientID, string memory _name)\n        public\n        onlyOwner()\n        noDupClient(_clientID, _name)\n    {\n        clientMap[_name].clientID = _clientID;\n        clientMap[_name].name = _name;\n        clientMap[_name].flag = true;\n        clientNameAddressMap[_name] = _clientID;\n        clientNameInvoiceCountMap[_name] = 0;\n        emit addClientEvent(_clientID, _name);\n    }\n\n    /// @author Denis M. Putnam\n    /// @notice Check for no duplicate invoice.\n    /// @param _clientName name of the client.\n    /// @param _invoiceNumber invoice number.\n    /// @dev no other details.\n    function isNoDuplicateInvoice(\n        string memory _clientName,\n        uint256 _invoiceNumber\n    ) private view returns (bool) {\n        for (uint256 i = 0; i < clientNameInvoiceCountMap[_clientName]; i++) {\n            // if (_invoiceNumber == clientInvoiceMap[_clientName][i]) {\n            //     return false;\n            // }\n            if (\n                _invoiceNumber ==\n                clientNameInvoiceMap[_clientName][i].invoiceNumber\n            ) {\n                return false;\n            }\n        }\n        return true;\n    }\n\n    modifier noDupInvoice(string memory _clientName, uint256 _invoiceNumber) {\n        require(\n            isNoDuplicateInvoice(_clientName, _invoiceNumber),\n            \"Duplicate invoice\"\n        );\n        _;\n    }\n\n    event addInvoiceEvent(\n        string _clientName,\n        uint256 _invoiceNumber,\n        uint256 _netTerms,\n        uint256 _numberHours,\n        string _amount,\n        uint256 _timesheetEndDate,\n        uint256 _invoiceSentDate,\n        uint256 _due30DaysDate,\n        uint256 _due60DaysDate,\n        uint256 _due90DaysDate,\n        uint256 _due120DaysDate,\n        uint256 _datePmtReceived\n    );\n\n    event updateInvoiceEvent(\n        string _clientName,\n        uint256 _invoiceNumber,\n        uint256 _datePmtReceived\n    );\n\n    /// @author Denis M. Putnam\n    /// @notice Add an invoice to track\n    /// @param _clientName name of the client\n    /// @param _invoiceNumber invoice number\n    /// @param _netTerms net terms for 30, 60, 90, or 120 days.\n    /// @param _numberHours number of hours for the timesheet.\n    /// @param _amount amount in dollars.\n    /// @param _timesheetEndDate timesheet end date\n    /// @param _invoiceSentDate date that invoice was sent to the client.\n    /// @param _due30DaysDate 30 day invoice due date\n    /// @param _due60DaysDate 60 day invoice due date\n    /// @param _due90DaysDate 90 day invoice due date\n    /// @param _due120DaysDate 120 day invoice due date\n    /// @param _datePmtReceived pmt date\n    /// @dev Add's an invoice to be tracked.\n    function addInvoice(\n        string memory _clientName,\n        uint256 _invoiceNumber,\n        uint256 _netTerms,\n        uint256 _numberHours,\n        string memory _amount,\n        uint256 _timesheetEndDate,\n        uint256 _invoiceSentDate,\n        uint256 _due30DaysDate,\n        uint256 _due60DaysDate,\n        uint256 _due90DaysDate,\n        uint256 _due120DaysDate,\n        uint256 _datePmtReceived\n    ) public onlyOwner() noDupInvoice(_clientName, _invoiceSentDate) {\n        Invoice memory newInvoice;\n        newInvoice.invoiceNumber = _invoiceNumber;\n        newInvoice.netTerms = _netTerms;\n        newInvoice.numberHours = _numberHours;\n        newInvoice.amount = _amount;\n        newInvoice.timesheetEndDate = _timesheetEndDate;\n        newInvoice.invoiceSentDate = _invoiceSentDate;\n        newInvoice.due30DaysDate = _due30DaysDate;\n        newInvoice.due60DaysDate = _due60DaysDate;\n        newInvoice.due90DaysDate = _due90DaysDate;\n        newInvoice.due120DaysDate = _due120DaysDate;\n        newInvoice.datePmtReceived = _datePmtReceived;\n        clientNameInvoiceMap[_clientName].push(newInvoice);\n\n        incremmentInvoiceCount(_clientName);\n\n        emit addInvoiceEvent(\n            _clientName,\n            newInvoice.invoiceNumber,\n            newInvoice.netTerms,\n            newInvoice.numberHours,\n            newInvoice.amount,\n            newInvoice.timesheetEndDate,\n            newInvoice.invoiceSentDate,\n            newInvoice.due30DaysDate,\n            newInvoice.due60DaysDate,\n            newInvoice.due90DaysDate,\n            newInvoice.due120DaysDate,\n            newInvoice.datePmtReceived\n        );\n\n        // emit addInvoiceEvent(\n        //     _clientName,\n        //     clientNameInvoiceMap[_clientName][0].invoiceNumber,\n        //     clientNameInvoiceMap[_clientName][0].netTerms,\n        //     clientNameInvoiceMap[_clientName][0].numberHours,\n        //     clientNameInvoiceMap[_clientName][0].amount,\n        //     clientNameInvoiceMap[_clientName][0].timesheetEndDate,\n        //     clientNameInvoiceMap[_clientName][0].invoiceSentDate,\n        //     clientNameInvoiceMap[_clientName][0].due30DaysDate,\n        //     clientNameInvoiceMap[_clientName][0].due60DaysDate,\n        //     clientNameInvoiceMap[_clientName][0].due90DaysDate,\n        //     clientNameInvoiceMap[_clientName][0].due120DaysDate,\n        //     clientNameInvoiceMap[_clientName][0].datePmtReceived\n        // );\n    }\n\n    function incremmentInvoiceCount(string memory _clientName) private returns(uint256){\n        return clientNameInvoiceCountMap[_clientName] += 1;\n    }\n\n    /// @author Denis M. Putnam\n    /// @notice Get the count of invoices associated with the given client name\n    /// @param _clientName name of the client\n    /// @dev no other details.\n    function getInvoiceCount(string memory _clientName)\n        public\n        view\n        onlyOwner()\n        returns (uint256 count)\n    {\n        count = clientNameInvoiceCountMap[_clientName];\n    }\n\n    /// @author Denis M. Putnam\n    /// @notice Get the list of invoice numbers as a string for the given client name.\n    /// @param _clientName name of the client\n    /// @dev returned string is a comma separated string of invoice numbers.  The comma is also the end of the string if no other values appear.\n    function getInvoiceNumbers(string memory _clientName)\n        public\n        view\n        onlyOwner()\n        returns (string memory)\n    {\n        string memory rVal = \"\";\n        for (uint256 i = 0; i < clientNameInvoiceCountMap[_clientName]; i++) {\n            string memory tstring = uint2str(\n                clientNameInvoiceMap[_clientName][i].invoiceNumber\n            );\n            // string tstring = string(lbytes32);\n            //rVal = string(abi.encodePacked(rVal, tstring, \",\"));\n            rVal = string(abi.encodePacked(rVal, tstring, \",\"));\n        }\n        return rVal;\n    }\n\n    modifier isInvoiceNumber(uint256 _invoiceNumber) {\n        require(_invoiceNumber > 0, \"Invoice number must be greater than 0\");\n        _;\n    }\n\n    function findInvoiceIndex(string memory _clientName, uint256 _invoiceNumber)\n        private\n        view\n        onlyOwner()\n        isInvoiceNumber(_invoiceNumber)\n        returns (int256 index)\n    {\n        for (\n            int256 i = 0;\n            i < int256(clientNameInvoiceCountMap[_clientName]);\n            i++\n        ) {\n            if (_invoiceNumber == clientNameInvoiceCountMap[_clientName]) {\n                return i;\n            }\n        }\n        return -1;\n    }\n\n    /// @author Denis M. Putnam\n    /// @notice Update an invoice with the payment date\n    /// @param _clientName name of the client\n    /// @param _invoiceNumber invoice number being requested.\n    /// @param _invoicePmtDate payment date\n    /// @dev no other details\n    function updateInvoice(\n        string memory _clientName,\n        uint256 _invoiceNumber,\n        uint256 _invoicePmtDate\n    ) public onlyOwner() {\n        int256 _index = findInvoiceIndex(_clientName, _invoiceNumber);\n        if (_index != -1) {\n            Invoice memory lInvoice = clientNameInvoiceMap[_clientName][uint256(\n                _index\n            )];\n            lInvoice.datePmtReceived = _invoicePmtDate;\n            clientNameInvoiceMap[_clientName][uint256(_index)] = lInvoice;\n            emit updateInvoiceEvent(\n                _clientName,\n                _invoiceNumber,\n                _invoicePmtDate\n            );\n        }\n    }\n\n    /// @author Denis M. Putnam\n    /// @notice Get an invoice\n    /// @param _clientName name of the client\n    /// @param _invoiceNumber invoice number being requested.\n    /// @dev no other details\n    function getInvoice(string memory _clientName, uint256 _invoiceNumber)\n        public\n        view\n        onlyOwner()\n        returns (\n            uint256 invoiceNumber,\n            uint256 netTerms,\n            uint256 numberHours,\n            string memory amount,\n            uint256 timesheetEndDate,\n            uint256 invoiceSentDate,\n            uint256 due30DaysDate,\n            uint256 due60DaysDate,\n            uint256 due90DaysDate,\n            uint256 due120DaysDate,\n            uint256 datePmtReceived\n        )\n    {\n        int256 _index = findInvoiceIndex(_clientName, _invoiceNumber);\n        if (_index != -1) {\n            Invoice memory lInvoice = clientNameInvoiceMap[_clientName][uint256(\n                _index\n            )];\n            return (\n                lInvoice.invoiceNumber,\n                lInvoice.netTerms,\n                lInvoice.numberHours,\n                lInvoice.amount,\n                lInvoice.timesheetEndDate,\n                lInvoice.invoiceSentDate,\n                lInvoice.due30DaysDate,\n                lInvoice.due60DaysDate,\n                lInvoice.due90DaysDate,\n                lInvoice.due120DaysDate,\n                lInvoice.datePmtReceived\n            );\n            // return (\n            //     invoiceNumber,\n            //     netTerms,\n            //     numberHours,\n            //     amount,\n            //     timesheetEndDate,\n            //     invoiceSentDate,\n            //     due30DaysDate,\n            //     due60DaysDate,\n            //     due90DaysDate,\n            //     due120DaysDate,\n            //     datePmtReceived\n            // );\n        }\n    }\n\n    /// @author Denis M. Putnam\n    /// @notice Convert a uint256 to a string.\n    /// @param _i contains the uint256 value to be converted to a string.\n    /// @dev This code was taken from https://github.com/provable-things/ethereum-api/blob/master/oraclizeAPI_0.5.sol\n    function uint2str(uint256 _i)\n        internal\n        pure\n        returns (string memory _uintAsString)\n    {\n        if (_i == 0) {\n            return \"0\";\n        }\n        uint256 j = _i;\n        uint256 len;\n        while (j != 0) {\n            len++;\n            j /= 10;\n        }\n        bytes memory bstr = new bytes(len);\n        uint256 k = len - 1;\n        while (_i != 0) {\n            bstr[k--] = bytes1(uint8(48 + (_i % 10)));\n            _i /= 10;\n        }\n        return string(bstr);\n    }\n}\n",
  "sourcePath": "/Users/denisputnam/git/APDF-invoice-tracker-dapp/contracts/InvoiceTracker.sol",
  "compiler": {
    "name": "solc",
    "version": "0.6.6+commit.6c089d02.Emscripten.clang"
  },
  "schemaVersion": "3.0.23",
  "updatedAt": "2020-05-08T21:48:39.443Z",
  "networkType": "ethereum",
  "devdoc": {
    "author": "Denis M. Putnam",
    "details": "Use at your own risk.",
    "methods": {
      "addClient(address,string)": {
        "author": "Denis M. Putnam",
        "details": "Add's a client to the clientMap and the clientNameAddressMap",
        "params": {
          "_clientID": "address of the wallet of the client.",
          "_name": "string with the client's name.  This needs to be unique"
        }
      },
      "addInvoice(string,uint256,uint256,uint256,string,uint256,uint256,uint256,uint256,uint256,uint256,uint256)": {
        "author": "Denis M. Putnam",
        "details": "Add's an invoice to be tracked.",
        "params": {
          "_amount": "amount in dollars.",
          "_clientName": "name of the client",
          "_datePmtReceived": "pmt date",
          "_due120DaysDate": "120 day invoice due date",
          "_due30DaysDate": "30 day invoice due date",
          "_due60DaysDate": "60 day invoice due date",
          "_due90DaysDate": "90 day invoice due date",
          "_invoiceNumber": "invoice number",
          "_invoiceSentDate": "date that invoice was sent to the client.",
          "_netTerms": "net terms for 30, 60, 90, or 120 days.",
          "_numberHours": "number of hours for the timesheet.",
          "_timesheetEndDate": "timesheet end date"
        }
      },
      "changeOwner(address)": {
        "author": "Denis M. Putnam",
        "details": "No other details.",
        "params": {
          "newOwner": "new address payable owner."
        }
      },
      "constructor": {
        "author": "Denis M. Putnam",
        "details": "no other details"
      },
      "getCurrentOwner()": {
        "author": "Denis M. Putnam",
        "details": "No other details.",
        "returns": {
          "_0": "address current owner."
        }
      },
      "getInvoice(string,uint256)": {
        "author": "Denis M. Putnam",
        "details": "no other details",
        "params": {
          "_clientName": "name of the client",
          "_invoiceNumber": "invoice number being requested."
        }
      },
      "getInvoiceCount(string)": {
        "author": "Denis M. Putnam",
        "details": "no other details.",
        "params": {
          "_clientName": "name of the client"
        }
      },
      "getInvoiceNumbers(string)": {
        "author": "Denis M. Putnam",
        "details": "returned string is a comma separated string of invoice numbers.  The comma is also the end of the string if no other values appear.",
        "params": {
          "_clientName": "name of the client"
        }
      },
      "updateInvoice(string,uint256,uint256)": {
        "author": "Denis M. Putnam",
        "details": "no other details",
        "params": {
          "_clientName": "name of the client",
          "_invoiceNumber": "invoice number being requested.",
          "_invoicePmtDate": "payment date"
        }
      }
    },
    "title": "Invoice Tracking contract"
  },
  "userdoc": {
    "methods": {
      "addClient(address,string)": {
        "notice": "Add a client to this contract."
      },
      "addInvoice(string,uint256,uint256,uint256,string,uint256,uint256,uint256,uint256,uint256,uint256,uint256)": {
        "notice": "Add an invoice to track"
      },
      "changeOwner(address)": {
        "notice": "Change the current owner to the new owner."
      },
      "constructor": "The constructor for this contract",
      "getCurrentOwner()": {
        "notice": "Get the current owner."
      },
      "getInvoice(string,uint256)": {
        "notice": "Get an invoice"
      },
      "getInvoiceCount(string)": {
        "notice": "Get the count of invoices associated with the given client name"
      },
      "getInvoiceNumbers(string)": {
        "notice": "Get the list of invoice numbers as a string for the given client name."
      },
      "updateInvoice(string,uint256,uint256)": {
        "notice": "Update an invoice with the payment date"
      }
    },
    "notice": "This contract tracks invoices for payment"
  }
}