{
  "contractName": "InvoiceTracker",
  "abi": [
    {
      "inputs": [],
      "stateMutability": "payable",
      "type": "constructor"
    },
    {
      "anonymous": false,
      "inputs": [
        {
          "indexed": false,
          "internalType": "address",
          "name": "_clientID",
          "type": "address"
        },
        {
          "indexed": false,
          "internalType": "string",
          "name": "_name",
          "type": "string"
        }
      ],
      "name": "addClientEvent",
      "type": "event"
    },
    {
      "anonymous": false,
      "inputs": [
        {
          "indexed": false,
          "internalType": "string",
          "name": "_clientName",
          "type": "string"
        },
        {
          "indexed": false,
          "internalType": "uint256",
          "name": "_invoiceNumber",
          "type": "uint256"
        },
        {
          "indexed": false,
          "internalType": "uint256",
          "name": "_netTerms",
          "type": "uint256"
        },
        {
          "indexed": false,
          "internalType": "uint256",
          "name": "_numberHours",
          "type": "uint256"
        },
        {
          "indexed": false,
          "internalType": "string",
          "name": "_amount",
          "type": "string"
        },
        {
          "indexed": false,
          "internalType": "uint256",
          "name": "_timesheetEndDate",
          "type": "uint256"
        },
        {
          "indexed": false,
          "internalType": "uint256",
          "name": "_invoiceSentDate",
          "type": "uint256"
        },
        {
          "indexed": false,
          "internalType": "uint256",
          "name": "_due30DaysDate",
          "type": "uint256"
        },
        {
          "indexed": false,
          "internalType": "uint256",
          "name": "_due60DaysDate",
          "type": "uint256"
        },
        {
          "indexed": false,
          "internalType": "uint256",
          "name": "_due90DaysDate",
          "type": "uint256"
        },
        {
          "indexed": false,
          "internalType": "uint256",
          "name": "_due120DaysDate",
          "type": "uint256"
        },
        {
          "indexed": false,
          "internalType": "uint256",
          "name": "_datePmtReceived",
          "type": "uint256"
        }
      ],
      "name": "addInvoiceEvent",
      "type": "event"
    },
    {
      "inputs": [
        {
          "internalType": "address payable",
          "name": "newOwner",
          "type": "address"
        }
      ],
      "name": "changeOwner",
      "outputs": [],
      "stateMutability": "nonpayable",
      "type": "function"
    },
    {
      "inputs": [],
      "name": "getCurrentOwner",
      "outputs": [
        {
          "internalType": "address",
          "name": "",
          "type": "address"
        }
      ],
      "stateMutability": "view",
      "type": "function"
    },
    {
      "inputs": [
        {
          "internalType": "address",
          "name": "_clientID",
          "type": "address"
        },
        {
          "internalType": "string",
          "name": "_name",
          "type": "string"
        }
      ],
      "name": "addClient",
      "outputs": [],
      "stateMutability": "nonpayable",
      "type": "function"
    },
    {
      "inputs": [
        {
          "internalType": "string",
          "name": "_clientName",
          "type": "string"
        },
        {
          "internalType": "uint256",
          "name": "_invoiceNumber",
          "type": "uint256"
        },
        {
          "internalType": "uint256",
          "name": "_netTerms",
          "type": "uint256"
        },
        {
          "internalType": "uint256",
          "name": "_numberHours",
          "type": "uint256"
        },
        {
          "internalType": "string",
          "name": "_amount",
          "type": "string"
        },
        {
          "internalType": "uint256",
          "name": "_timesheetEndDate",
          "type": "uint256"
        },
        {
          "internalType": "uint256",
          "name": "_invoiceSentDate",
          "type": "uint256"
        },
        {
          "internalType": "uint256",
          "name": "_due30DaysDate",
          "type": "uint256"
        },
        {
          "internalType": "uint256",
          "name": "_due60DaysDate",
          "type": "uint256"
        },
        {
          "internalType": "uint256",
          "name": "_due90DaysDate",
          "type": "uint256"
        },
        {
          "internalType": "uint256",
          "name": "_due120DaysDate",
          "type": "uint256"
        },
        {
          "internalType": "uint256",
          "name": "_datePmtReceived",
          "type": "uint256"
        }
      ],
      "name": "addInvoice",
      "outputs": [],
      "stateMutability": "nonpayable",
      "type": "function"
    },
    {
      "inputs": [
        {
          "internalType": "string",
          "name": "_clientName",
          "type": "string"
        }
      ],
      "name": "getInvoiceCount",
      "outputs": [
        {
          "internalType": "uint256",
          "name": "count",
          "type": "uint256"
        }
      ],
      "stateMutability": "view",
      "type": "function"
    },
    {
      "inputs": [
        {
          "internalType": "string",
          "name": "_clientName",
          "type": "string"
        }
      ],
      "name": "getInvoiceNumbers",
      "outputs": [
        {
          "internalType": "string",
          "name": "",
          "type": "string"
        }
      ],
      "stateMutability": "view",
      "type": "function"
    }
  ],
  "bytecode": "0x6080604052336000806101000a81548173ffffffffffffffffffffffffffffffffffffffff021916908373ffffffffffffffffffffffffffffffffffffffff1602179055506114bf806100536000396000f3fe608060405234801561001057600080fd5b50600436106100625760003560e01c8063472eab3914610067578063a18a186b1461021e578063a6f9dae114610268578063b944ef34146102ac578063ba76f131146103e0578063e292ec08146104af575b600080fd5b61021c600480360361018081101561007e57600080fd5b810190808035906020019064010000000081111561009b57600080fd5b8201836020820111156100ad57600080fd5b803590602001918460018302840111640100000000831117156100cf57600080fd5b91908080601f016020809104026020016040519081016040528093929190818152602001838380828437600081840152601f19601f8201169050808301925050505050505091929192908035906020019092919080359060200190929190803590602001909291908035906020019064010000000081111561015057600080fd5b82018360208201111561016257600080fd5b8035906020019184600183028401116401000000008311171561018457600080fd5b91908080601f016020809104026020016040519081016040528093929190818152602001838380828437600081840152601f19601f8201169050808301925050505050505091929192908035906020019092919080359060200190929190803590602001909291908035906020019092919080359060200190929190803590602001909291908035906020019092919050505061058a565b005b61022661090c565b604051808273ffffffffffffffffffffffffffffffffffffffff1673ffffffffffffffffffffffffffffffffffffffff16815260200191505060405180910390f35b6102aa6004803603602081101561027e57600080fd5b81019080803573ffffffffffffffffffffffffffffffffffffffff169060200190929190505050610935565b005b610365600480360360208110156102c257600080fd5b81019080803590602001906401000000008111156102df57600080fd5b8201836020820111156102f157600080fd5b8035906020019184600183028401116401000000008311171561031357600080fd5b91908080601f016020809104026020016040519081016040528093929190818152602001838380828437600081840152601f19601f820116905080830192505050505050509192919290505050610a1d565b6040518080602001828103825283818151815260200191508051906020019080838360005b838110156103a557808201518184015260208101905061038a565b50505050905090810190601f1680156103d25780820380516001836020036101000a031916815260200191505b509250505060405180910390f35b610499600480360360208110156103f657600080fd5b810190808035906020019064010000000081111561041357600080fd5b82018360208201111561042557600080fd5b8035906020019184600183028401116401000000008311171561044757600080fd5b91908080601f016020809104026020016040519081016040528093929190818152602001838380828437600081840152601f19601f820116905080830192505050505050509192919290505050610c4c565b6040518082815260200191505060405180910390f35b610588600480360360408110156104c557600080fd5b81019080803573ffffffffffffffffffffffffffffffffffffffff1690602001909291908035906020019064010000000081111561050257600080fd5b82018360208201111561051457600080fd5b8035906020019184600183028401116401000000008311171561053657600080fd5b91908080601f016020809104026020016040519081016040528093929190818152602001838380828437600081840152601f19601f820116905080830192505050505050509192919290505050610cbf565b005b8b8661059682826110da565b610608576040517f08c379a00000000000000000000000000000000000000000000000000000000081526004018080602001828103825260118152602001807f4475706c696361746520696e766f69636500000000000000000000000000000081525060200191505060405180910390fd5b610610611351565b8d8160000181815250508c8160200181815250508b8160400181815250508a816060018190525089816080018181525050888160a0018181525050878160c0018181525050868160e001818152505085816101000181815250508481610120018181525050838161014001818152505060038f6040518082805190602001908083835b602083106106b65780518252602082019150602081019050602083039250610693565b6001836020036101000a03801982511681845116808217855250505050505090500191505090815260200160405180910390208190806001815401808255809150506001900390600052602060002090600b0201600090919091909150600082015181600001556020820151816001015560408201518160020155606082015181600301908051906020019061074d9291906113ab565b506080820151816004015560a0820151816005015560c0820151816006015560e082015181600701556101008201518160080155610120820151816009015561014082015181600a015550506107a28f611203565b7f64b1990245accd502365916f65e5fcd03e71f750f7fcb75f88e699b5c067b8d98f8f8f8f8f8f8f8f8f8f8f8f60405180806020018d81526020018c81526020018b8152602001806020018a815260200189815260200188815260200187815260200186815260200185815260200184815260200183810383528f818151815260200191508051906020019080838360005b8381101561084f578082015181840152602081019050610834565b50505050905090810190601f16801561087c5780820380516001836020036101000a031916815260200191505b5083810382528b818151815260200191508051906020019080838360005b838110156108b557808201518184015260208101905061089a565b50505050905090810190601f1680156108e25780820380516001836020036101000a031916815260200191505b509e50505050505050505050505050505060405180910390a1505050505050505050505050505050565b60008060009054906101000a900473ffffffffffffffffffffffffffffffffffffffff16905090565b6000809054906101000a900473ffffffffffffffffffffffffffffffffffffffff1673ffffffffffffffffffffffffffffffffffffffff163373ffffffffffffffffffffffffffffffffffffffff16146109da576040517f08c379a00000000000000000000000000000000000000000000000000000000081526004018080602001828103825260398152602001806114516039913960400191505060405180910390fd5b806000806101000a81548173ffffffffffffffffffffffffffffffffffffffff021916908373ffffffffffffffffffffffffffffffffffffffff16021790555050565b60608060405180602001604052806000815250905060008090505b6004846040518082805190602001908083835b60208310610a6e5780518252602082019150602081019050602083039250610a4b565b6001836020036101000a038019825116818451168082178552505050505050905001915050908152602001604051809103902054811015610c4557816003856040518082805190602001908083835b60208310610ae05780518252602082019150602081019050602083039250610abd565b6001836020036101000a03801982511681845116808217855250505050505090500191505090815260200160405180910390208281548110610b1e57fe5b90600052602060002090600b0201600001546040516020018083805190602001908083835b60208310610b665780518252602082019150602081019050602083039250610b43565b6001836020036101000a038019825116818451168082178552505050505050905001828152602001925050506040516020818303038152906040529150816040516020018082805190602001908083835b60208310610bda5780518252602082019150602081019050602083039250610bb7565b6001836020036101000a038019825116818451168082178552505050505050905001807f2c0000000000000000000000000000000000000000000000000000000000000081525060010191505060405160208183030381529060405291508080600101915050610a38565b5050919050565b60006004826040518082805190602001908083835b60208310610c845780518252602082019150602081019050602083039250610c61565b6001836020036101000a0380198251168184511680821785525050505050509050019150509081526020016040518091039020549050919050565b8181610ccb818361127e565b610d3d576040517f08c379a00000000000000000000000000000000000000000000000000000000081526004018080602001828103825260158152602001807f436c69656e7420616c726561647920657869737473000000000000000000000081525060200191505060405180910390fd5b836001846040518082805190602001908083835b60208310610d745780518252602082019150602081019050602083039250610d51565b6001836020036101000a038019825116818451168082178552505050505050905001915050908152602001604051809103902060000160006101000a81548173ffffffffffffffffffffffffffffffffffffffff021916908373ffffffffffffffffffffffffffffffffffffffff160217905550826001846040518082805190602001908083835b60208310610e1f5780518252602082019150602081019050602083039250610dfc565b6001836020036101000a03801982511681845116808217855250505050505090500191505090815260200160405180910390206001019080519060200190610e689291906113ab565b50600180846040518082805190602001908083835b60208310610ea05780518252602082019150602081019050602083039250610e7d565b6001836020036101000a038019825116818451168082178552505050505050905001915050908152602001604051809103902060020160006101000a81548160ff021916908315150217905550836002846040518082805190602001908083835b60208310610f245780518252602082019150602081019050602083039250610f01565b6001836020036101000a038019825116818451168082178552505050505050905001915050908152602001604051809103902060006101000a81548173ffffffffffffffffffffffffffffffffffffffff021916908373ffffffffffffffffffffffffffffffffffffffff16021790555060006004846040518082805190602001908083835b60208310610fcd5780518252602082019150602081019050602083039250610faa565b6001836020036101000a0380198251168184511680821785525050505050509050019150509081526020016040518091039020819055507f11ada27156286ec17e2b313f3687beba84ab19beba84f020e2938ed46737d7ae8484604051808373ffffffffffffffffffffffffffffffffffffffff1673ffffffffffffffffffffffffffffffffffffffff16815260200180602001828103825283818151815260200191508051906020019080838360005b8381101561109957808201518184015260208101905061107e565b50505050905090810190601f1680156110c65780820380516001836020036101000a031916815260200191505b50935050505060405180910390a150505050565b600080600090505b6004846040518082805190602001908083835b6020831061111857805182526020820191506020810190506020830392506110f5565b6001836020036101000a0380198251168184511680821785525050505050509050019150509081526020016040518091039020548110156111f7576003846040518082805190602001908083835b602083106111895780518252602082019150602081019050602083039250611166565b6001836020036101000a038019825116818451168082178552505050505050905001915050908152602001604051809103902081815481106111c757fe5b90600052602060002090600b0201600001548314156111ea5760009150506111fd565b80806001019150506110e2565b50600190505b92915050565b60016004826040518082805190602001908083835b6020831061123b5780518252602082019150602081019050602083039250611218565b6001836020036101000a03801982511681845116808217855250505050505090500191505090815260200160405180910390206000828254019250508190555050565b60008173ffffffffffffffffffffffffffffffffffffffff166002846040518082805190602001908083835b602083106112cd57805182526020820191506020810190506020830392506112aa565b6001836020036101000a038019825116818451168082178552505050505050905001915050908152602001604051809103902060009054906101000a900473ffffffffffffffffffffffffffffffffffffffff1673ffffffffffffffffffffffffffffffffffffffff161415611346576000905061134b565b600190505b92915050565b60405180610160016040528060008152602001600081526020016000815260200160608152602001600081526020016000815260200160008152602001600081526020016000815260200160008152602001600081525090565b828054600181600116156101000203166002900490600052602060002090601f016020900481019282601f106113ec57805160ff191683800117855561141a565b8280016001018555821561141a579182015b828111156114195782518255916020019190600101906113fe565b5b509050611427919061142b565b5090565b61144d91905b80821115611449576000816000905550600101611431565b5090565b9056fe4f6e6c7920746865206f776e6572206f662074686520636f6e74726163742063616e206578656375746520746869732066756e6374696f6e2ea264697066735822122075a5f92ac50a9936a8c8eb57976072f140deda32607688a804cba6c1a99dbcd364736f6c63430006060033",
  "source": "pragma solidity 0.6.6;\n\nimport \"./Owned.sol\";\n\n\n/// @title Invoice Tracking contract\n/// @author Denis M. Putnam\n/// @notice This contract tracks invoices for payment\n/// @dev Use at your own risk.\ncontract InvoiceTracker is Owned {\n\n    /// @notice Invoice struct\n    struct Invoice {\n        uint256 invoiceNumber;\n        uint256 netTerms; // 30, 60 90, 120 days net\n        uint256 numberHours;\n        string amount;\n        uint256 timesheetEndDate;\n        uint256 invoiceSentDate;\n        uint256 due30DaysDate;\n        uint256 due60DaysDate;\n        uint256 due90DaysDate;\n        uint256 due120DaysDate;\n        uint256 datePmtReceived;\n    }\n\n    /// @notice Client struct\n    struct Client {\n        address clientID;\n        string name;\n        bool flag;\n    }\n\n    /// @notice map the name of the client to the Client struct\n    mapping(string => Client) private clientMap;\n    /// @notice map the name of the client to the client address\n    mapping(string => address) private clientNameAddressMap;\n    /// @notice map the name of the client to invoices. this isa one to many mapping.\n    mapping(string => Invoice[]) private clientNameInvoiceMap;\n    /// @notice map the name of the client to an invoice count\n    mapping(string => uint256) private clientNameInvoiceCountMap;\n\n    /// @author Denis M. Putnam\n    /// @notice The constructor for this contract\n    /// @dev no other details\n    constructor() public payable Owned() {}\n\n    event addClientEvent(address _clientID, string _name);\n\n    /// @author Denis M. Putnam\n    /// @notice Check for no client.\n    /// @param _clientName name of the client.\n    /// @param _clientID clients wallet address.\n    /// @dev no other details.\n    function isNoClient(string memory _clientName, address _clientID)\n        private\n        view\n        returns (bool)\n    {\n        if (clientNameAddressMap[_clientName] == _clientID) {\n            return false;\n        }\n        return true;\n    }\n\n    modifier noDupClient(address _clientID, string memory _clientName) {\n        require(isNoClient(_clientName, _clientID), \"Client already exists\");\n        _;\n    }\n\n    /// @author Denis M. Putnam\n    /// @notice Add a client to this contract.\n    /// @param _clientID address of the wallet of the client.\n    /// @param _name string with the client's name.  This needs to be unique\n    /// @dev Add's a client to the clientMap and the clientNameAddressMap\n    function addClient(address _clientID, string memory _name)\n        public\n        noDupClient(_clientID, _name)\n    {\n        clientMap[_name].clientID = _clientID;\n        clientMap[_name].name = _name;\n        clientMap[_name].flag = true;\n        clientNameAddressMap[_name] = _clientID;\n        clientNameInvoiceCountMap[_name] = 0;\n        emit addClientEvent(_clientID, _name);\n    }\n\n    /// @author Denis M. Putnam\n    /// @notice Check for no duplicate invoice.\n    /// @param _clientName name of the client.\n    /// @param _invoiceNumber invoice number.\n    /// @dev no other details.\n    function isNoDuplicateInvoice(\n        string memory _clientName,\n        uint256 _invoiceNumber\n    ) private view returns (bool) {\n        for (uint256 i = 0; i < clientNameInvoiceCountMap[_clientName]; i++) {\n            // if (_invoiceNumber == clientInvoiceMap[_clientName][i]) {\n            //     return false;\n            // }\n            if (_invoiceNumber == clientNameInvoiceMap[_clientName][i].invoiceNumber) {\n                return false;\n            }\n        }\n        return true;\n    }\n\n    modifier noDupInvoice(string memory _clientName, uint256 _invoiceNumber) {\n        require(\n            isNoDuplicateInvoice(_clientName, _invoiceNumber),\n            \"Duplicate invoice\"\n        );\n        _;\n    }\n\n    event addInvoiceEvent(\n        string _clientName,\n        uint256 _invoiceNumber,\n        uint256 _netTerms,\n        uint256 _numberHours,\n        string _amount,\n        uint256 _timesheetEndDate,\n        uint256 _invoiceSentDate,\n        uint256 _due30DaysDate,\n        uint256 _due60DaysDate,\n        uint256 _due90DaysDate,\n        uint256 _due120DaysDate,\n        uint256 _datePmtReceived\n    );\n\n    /// @author Denis M. Putnam\n    /// @notice Add an invoice to track\n    /// @param _clientName name of the client\n    /// @param _invoiceNumber invoice number\n    /// @param _netTerms net terms for 30, 60, 90, or 120 days.\n    /// @param _numberHours number of hours for the timesheet.\n    /// @param _amount amount in dollars.\n    /// @param _timesheetEndDate timesheet end date\n    /// @param _invoiceSentDate date that invoice was sent to the client.\n    /// @param _due30DaysDate 30 day invoice due date\n    /// @param _due60DaysDate 60 day invoice due date\n    /// @param _due90DaysDate 90 day invoice due date\n    /// @param _due120DaysDate 120 day invoice due date\n    /// @param _datePmtReceived date of actual payment\n    /// @dev Add's an invoice to be tracked.\n    function addInvoice(\n        string memory _clientName,\n        uint256 _invoiceNumber,\n        uint256 _netTerms,\n        uint256 _numberHours,\n        string memory _amount,\n        uint256 _timesheetEndDate,\n        uint256 _invoiceSentDate,\n        uint256 _due30DaysDate,\n        uint256 _due60DaysDate,\n        uint256 _due90DaysDate,\n        uint256 _due120DaysDate,\n        uint256 _datePmtReceived\n    ) public noDupInvoice(_clientName, _invoiceSentDate) {\n        Invoice memory newInvoice;\n        newInvoice.invoiceNumber = _invoiceNumber;\n        newInvoice.netTerms = _netTerms;\n        newInvoice.numberHours = _numberHours;\n        newInvoice.amount = _amount;\n        newInvoice.timesheetEndDate = _timesheetEndDate;\n        newInvoice.invoiceSentDate = _invoiceSentDate;\n        newInvoice.due30DaysDate = _due30DaysDate;\n        newInvoice.due60DaysDate = _due60DaysDate;\n        newInvoice.due90DaysDate = _due90DaysDate;\n        newInvoice.due120DaysDate = _due120DaysDate;\n        newInvoice.datePmtReceived = _datePmtReceived;\n        clientNameInvoiceMap[_clientName].push(newInvoice);\n\n        incremmentInvoiceCount(_clientName);\n        //clientNameInvoiceCountMap[_clientName] += 1;\n\n        emit addInvoiceEvent(\n            _clientName,\n            _invoiceNumber,\n            _netTerms,\n            _numberHours,\n            _amount,\n            _timesheetEndDate,\n            _invoiceSentDate,\n            _due30DaysDate,\n            _due60DaysDate,\n            _due90DaysDate,\n            _due120DaysDate,\n            _datePmtReceived\n        );\n    }\n\n    function incremmentInvoiceCount(string memory _clientName) private {\n        clientNameInvoiceCountMap[_clientName] += 1;\n    }\n\n    /// @author Denis M. Putnam\n    /// @notice Get the count of invoices associated with the given client name\n    /// @param _clientName name of the client\n    /// @dev no other details.\n    function getInvoiceCount(string memory _clientName)\n        public\n        view\n        returns (uint256 count)\n    {\n        count = clientNameInvoiceCountMap[_clientName];\n    }\n\n    function getInvoiceNumbers(string memory _clientName)\n        public\n        view\n        returns (string memory)\n    {\n        string memory rVal = \"\";\n        for(uint256 i = 0; i < clientNameInvoiceCountMap[_clientName]; i++) {\n          rVal = string(abi.encodePacked(rVal, clientNameInvoiceMap[_clientName][i].invoiceNumber));\n          rVal = string(abi.encodePacked(rVal, \",\"));\n        }\n    }\n\n    // function append(\n    //     string memory a,\n    //     string memory b,\n    //     string memory c,\n    //     string memory d,\n    //     string memory e\n    // ) internal pure returns (string memory) {\n    //     return string(abi.encodePacked(a, b, c, d, e));\n    // }\n}\n",
  "sourcePath": "/Users/denisputnam/git/APDF-invoice-tracker-dapp/contracts/InvoiceTracker.sol",
  "compiler": {
    "name": "solc",
    "version": "0.6.6+commit.6c089d02.Emscripten.clang"
  },
  "schemaVersion": "3.0.23",
  "updatedAt": "2020-04-29T18:48:41.328Z",
  "devdoc": {
    "author": "Denis M. Putnam",
    "details": "Use at your own risk.",
    "methods": {
      "addClient(address,string)": {
        "author": "Denis M. Putnam",
        "details": "Add's a client to the clientMap and the clientNameAddressMap",
        "params": {
          "_clientID": "address of the wallet of the client.",
          "_name": "string with the client's name.  This needs to be unique"
        }
      },
      "addInvoice(string,uint256,uint256,uint256,string,uint256,uint256,uint256,uint256,uint256,uint256,uint256)": {
        "author": "Denis M. Putnam",
        "details": "Add's an invoice to be tracked.",
        "params": {
          "_amount": "amount in dollars.",
          "_clientName": "name of the client",
          "_datePmtReceived": "date of actual payment",
          "_due120DaysDate": "120 day invoice due date",
          "_due30DaysDate": "30 day invoice due date",
          "_due60DaysDate": "60 day invoice due date",
          "_due90DaysDate": "90 day invoice due date",
          "_invoiceNumber": "invoice number",
          "_invoiceSentDate": "date that invoice was sent to the client.",
          "_netTerms": "net terms for 30, 60, 90, or 120 days.",
          "_numberHours": "number of hours for the timesheet.",
          "_timesheetEndDate": "timesheet end date"
        }
      },
      "changeOwner(address)": {
        "author": "Denis M. Putnam",
        "details": "No other details.",
        "params": {
          "newOwner": "new address payable owner."
        }
      },
      "constructor": {
        "author": "Denis M. Putnam",
        "details": "no other details"
      },
      "getCurrentOwner()": {
        "author": "Denis M. Putnam",
        "details": "No other details.",
        "returns": {
          "_0": "address current owner."
        }
      },
      "getInvoiceCount(string)": {
        "author": "Denis M. Putnam",
        "details": "no other details.",
        "params": {
          "_clientName": "name of the client"
        }
      }
    },
    "title": "Invoice Tracking contract"
  },
  "userdoc": {
    "methods": {
      "addClient(address,string)": {
        "notice": "Add a client to this contract."
      },
      "addInvoice(string,uint256,uint256,uint256,string,uint256,uint256,uint256,uint256,uint256,uint256,uint256)": {
        "notice": "Add an invoice to track"
      },
      "changeOwner(address)": {
        "notice": "Change the current owner to the new owner."
      },
      "constructor": "The constructor for this contract",
      "getCurrentOwner()": {
        "notice": "Get the current owner."
      },
      "getInvoiceCount(string)": {
        "notice": "Get the count of invoices associated with the given client name"
      }
    },
    "notice": "This contract tracks invoices for payment"
  }
}