{
  "contractName": "InvoiceTracker",
  "abi": [
    {
      "inputs": [],
      "stateMutability": "payable",
      "type": "constructor"
    },
    {
      "anonymous": false,
      "inputs": [
        {
          "indexed": false,
          "internalType": "address",
          "name": "_clientID",
          "type": "address"
        },
        {
          "indexed": false,
          "internalType": "string",
          "name": "_name",
          "type": "string"
        }
      ],
      "name": "addClientEvent",
      "type": "event"
    },
    {
      "anonymous": false,
      "inputs": [
        {
          "indexed": false,
          "internalType": "string",
          "name": "_clientName",
          "type": "string"
        },
        {
          "indexed": false,
          "internalType": "uint256",
          "name": "_invoiceNumber",
          "type": "uint256"
        },
        {
          "indexed": false,
          "internalType": "uint256",
          "name": "_netTerms",
          "type": "uint256"
        },
        {
          "indexed": false,
          "internalType": "uint256",
          "name": "_numberHours",
          "type": "uint256"
        },
        {
          "indexed": false,
          "internalType": "string",
          "name": "_amount",
          "type": "string"
        },
        {
          "indexed": false,
          "internalType": "uint256",
          "name": "_timesheetEndDate",
          "type": "uint256"
        },
        {
          "indexed": false,
          "internalType": "uint256",
          "name": "_invoiceSentDate",
          "type": "uint256"
        },
        {
          "indexed": false,
          "internalType": "uint256",
          "name": "_due30DaysDate",
          "type": "uint256"
        },
        {
          "indexed": false,
          "internalType": "uint256",
          "name": "_due60DaysDate",
          "type": "uint256"
        },
        {
          "indexed": false,
          "internalType": "uint256",
          "name": "_due90DaysDate",
          "type": "uint256"
        },
        {
          "indexed": false,
          "internalType": "uint256",
          "name": "_due120DaysDate",
          "type": "uint256"
        },
        {
          "indexed": false,
          "internalType": "uint256",
          "name": "_datePmtReceived",
          "type": "uint256"
        }
      ],
      "name": "addInvoiceEvent",
      "type": "event"
    },
    {
      "anonymous": false,
      "inputs": [
        {
          "indexed": false,
          "internalType": "string",
          "name": "_clientName",
          "type": "string"
        },
        {
          "indexed": false,
          "internalType": "uint256",
          "name": "_invoiceNumber",
          "type": "uint256"
        },
        {
          "indexed": false,
          "internalType": "uint256",
          "name": "_datePmtReceived",
          "type": "uint256"
        }
      ],
      "name": "updateInvoiceEvent",
      "type": "event"
    },
    {
      "inputs": [
        {
          "internalType": "address payable",
          "name": "newOwner",
          "type": "address"
        }
      ],
      "name": "changeOwner",
      "outputs": [],
      "stateMutability": "nonpayable",
      "type": "function"
    },
    {
      "inputs": [],
      "name": "getCurrentOwner",
      "outputs": [
        {
          "internalType": "address",
          "name": "",
          "type": "address"
        }
      ],
      "stateMutability": "view",
      "type": "function"
    },
    {
      "inputs": [
        {
          "internalType": "address",
          "name": "_clientID",
          "type": "address"
        },
        {
          "internalType": "string",
          "name": "_name",
          "type": "string"
        }
      ],
      "name": "addClient",
      "outputs": [],
      "stateMutability": "nonpayable",
      "type": "function"
    },
    {
      "inputs": [
        {
          "internalType": "string",
          "name": "_clientName",
          "type": "string"
        },
        {
          "internalType": "uint256",
          "name": "_invoiceNumber",
          "type": "uint256"
        },
        {
          "internalType": "uint256",
          "name": "_netTerms",
          "type": "uint256"
        },
        {
          "internalType": "uint256",
          "name": "_numberHours",
          "type": "uint256"
        },
        {
          "internalType": "string",
          "name": "_amount",
          "type": "string"
        },
        {
          "internalType": "uint256",
          "name": "_timesheetEndDate",
          "type": "uint256"
        },
        {
          "internalType": "uint256",
          "name": "_invoiceSentDate",
          "type": "uint256"
        },
        {
          "internalType": "uint256",
          "name": "_due30DaysDate",
          "type": "uint256"
        },
        {
          "internalType": "uint256",
          "name": "_due60DaysDate",
          "type": "uint256"
        },
        {
          "internalType": "uint256",
          "name": "_due90DaysDate",
          "type": "uint256"
        },
        {
          "internalType": "uint256",
          "name": "_due120DaysDate",
          "type": "uint256"
        },
        {
          "internalType": "uint256",
          "name": "_datePmtReceived",
          "type": "uint256"
        }
      ],
      "name": "addInvoice",
      "outputs": [],
      "stateMutability": "nonpayable",
      "type": "function"
    },
    {
      "inputs": [
        {
          "internalType": "string",
          "name": "_clientName",
          "type": "string"
        }
      ],
      "name": "getInvoiceCount",
      "outputs": [
        {
          "internalType": "uint256",
          "name": "count",
          "type": "uint256"
        }
      ],
      "stateMutability": "view",
      "type": "function"
    },
    {
      "inputs": [
        {
          "internalType": "string",
          "name": "_clientName",
          "type": "string"
        }
      ],
      "name": "getInvoiceNumbers",
      "outputs": [
        {
          "internalType": "string",
          "name": "",
          "type": "string"
        }
      ],
      "stateMutability": "view",
      "type": "function"
    },
    {
      "inputs": [
        {
          "internalType": "string",
          "name": "_clientName",
          "type": "string"
        },
        {
          "internalType": "uint256",
          "name": "_invoiceNumber",
          "type": "uint256"
        },
        {
          "internalType": "uint256",
          "name": "_invoicePmtDate",
          "type": "uint256"
        }
      ],
      "name": "updateInvoice",
      "outputs": [],
      "stateMutability": "nonpayable",
      "type": "function"
    },
    {
      "inputs": [
        {
          "internalType": "string",
          "name": "_clientName",
          "type": "string"
        },
        {
          "internalType": "uint256",
          "name": "_invoiceNumber",
          "type": "uint256"
        }
      ],
      "name": "getInvoice",
      "outputs": [
        {
          "internalType": "uint256",
          "name": "invoiceNumber",
          "type": "uint256"
        },
        {
          "internalType": "uint256",
          "name": "netTerms",
          "type": "uint256"
        },
        {
          "internalType": "uint256",
          "name": "numberHours",
          "type": "uint256"
        },
        {
          "internalType": "string",
          "name": "amount",
          "type": "string"
        },
        {
          "internalType": "uint256",
          "name": "timesheetEndDate",
          "type": "uint256"
        },
        {
          "internalType": "uint256",
          "name": "invoiceSentDate",
          "type": "uint256"
        },
        {
          "internalType": "uint256",
          "name": "due30DaysDate",
          "type": "uint256"
        },
        {
          "internalType": "uint256",
          "name": "due60DaysDate",
          "type": "uint256"
        },
        {
          "internalType": "uint256",
          "name": "due90DaysDate",
          "type": "uint256"
        },
        {
          "internalType": "uint256",
          "name": "due120DaysDate",
          "type": "uint256"
        },
        {
          "internalType": "uint256",
          "name": "datePmtReceived",
          "type": "uint256"
        }
      ],
      "stateMutability": "view",
      "type": "function"
    }
  ],
  "bytecode": "0x6080604052336000806101000a81548173ffffffffffffffffffffffffffffffffffffffff021916908373ffffffffffffffffffffffffffffffffffffffff160217905550611fb1806100536000396000f3fe608060405234801561001057600080fd5b50600436106100885760003560e01c8063a6f9dae11161005b578063a6f9dae1146104e1578063b944ef3414610525578063ba76f13114610659578063e292ec081461072857610088565b8063472eab391461008d578063823d85001461024457806388e65fd7146103c8578063a18a186b14610497575b600080fd5b61024260048036036101808110156100a457600080fd5b81019080803590602001906401000000008111156100c157600080fd5b8201836020820111156100d357600080fd5b803590602001918460018302840111640100000000831117156100f557600080fd5b91908080601f016020809104026020016040519081016040528093929190818152602001838380828437600081840152601f19601f8201169050808301925050505050505091929192908035906020019092919080359060200190929190803590602001909291908035906020019064010000000081111561017657600080fd5b82018360208201111561018857600080fd5b803590602001918460018302840111640100000000831117156101aa57600080fd5b91908080601f016020809104026020016040519081016040528093929190818152602001838380828437600081840152601f19601f82011690508083019250505050505050919291929080359060200190929190803590602001909291908035906020019092919080359060200190929190803590602001909291908035906020019092919080359060200190929190505050610803565b005b6103076004803603604081101561025a57600080fd5b810190808035906020019064010000000081111561027757600080fd5b82018360208201111561028957600080fd5b803590602001918460018302840111640100000000831117156102ab57600080fd5b91908080601f016020809104026020016040519081016040528093929190818152602001838380828437600081840152601f19601f82011690508083019250505050505050919291929080359060200190929190505050610bc4565b604051808c81526020018b81526020018a81526020018060200189815260200188815260200187815260200186815260200185815260200184815260200183815260200182810382528a818151815260200191508051906020019080838360005b83811015610383578082015181840152602081019050610368565b50505050905090810190601f1680156103b05780820380516001836020036101000a031916815260200191505b509c5050505050505050505050505060405180910390f35b610495600480360360608110156103de57600080fd5b81019080803590602001906401000000008111156103fb57600080fd5b82018360208201111561040d57600080fd5b8035906020019184600183028401116401000000008311171561042f57600080fd5b91908080601f016020809104026020016040519081016040528093929190818152602001838380828437600081840152601f19601f8201169050808301925050505050505091929192908035906020019092919080359060200190929190505050610e72565b005b61049f611023565b604051808273ffffffffffffffffffffffffffffffffffffffff1673ffffffffffffffffffffffffffffffffffffffff16815260200191505060405180910390f35b610523600480360360208110156104f757600080fd5b81019080803573ffffffffffffffffffffffffffffffffffffffff16906020019092919050505061104c565b005b6105de6004803603602081101561053b57600080fd5b810190808035906020019064010000000081111561055857600080fd5b82018360208201111561056a57600080fd5b8035906020019184600183028401116401000000008311171561058c57600080fd5b91908080601f016020809104026020016040519081016040528093929190818152602001838380828437600081840152601f19601f820116905080830192505050505050509192919290505050611134565b6040518080602001828103825283818151815260200191508051906020019080838360005b8381101561061e578082015181840152602081019050610603565b50505050905090810190601f16801561064b5780820380516001836020036101000a031916815260200191505b509250505060405180910390f35b6107126004803603602081101561066f57600080fd5b810190808035906020019064010000000081111561068c57600080fd5b82018360208201111561069e57600080fd5b803590602001918460018302840111640100000000831117156106c057600080fd5b91908080601f016020809104026020016040519081016040528093929190818152602001838380828437600081840152601f19601f820116905080830192505050505050509192919290505050611392565b6040518082815260200191505060405180910390f35b6108016004803603604081101561073e57600080fd5b81019080803573ffffffffffffffffffffffffffffffffffffffff1690602001909291908035906020019064010000000081111561077b57600080fd5b82018360208201111561078d57600080fd5b803590602001918460018302840111640100000000831117156107af57600080fd5b91908080601f016020809104026020016040519081016040528093929190818152602001838380828437600081840152601f19601f820116905080830192505050505050509192919290505050611444565b005b61080b611023565b73ffffffffffffffffffffffffffffffffffffffff163373ffffffffffffffffffffffffffffffffffffffff161461084257600080fd5b8b8661084e828261189e565b6108c0576040517f08c379a00000000000000000000000000000000000000000000000000000000081526004018080602001828103825260118152602001807f4475706c696361746520696e766f69636500000000000000000000000000000081525060200191505060405180910390fd5b6108c8611e1e565b8d8160000181815250508c8160200181815250508b8160400181815250508a816060018190525089816080018181525050888160a0018181525050878160c0018181525050868160e001818152505085816101000181815250508481610120018181525050838161014001818152505060038f6040518082805190602001908083835b6020831061096e578051825260208201915060208101905060208303925061094b565b6001836020036101000a03801982511681845116808217855250505050505090500191505090815260200160405180910390208190806001815401808255809150506001900390600052602060002090600b02016000909190919091506000820151816000015560208201518160010155604082015181600201556060820151816003019080519060200190610a05929190611e78565b506080820151816004015560a0820151816005015560c0820151816006015560e082015181600701556101008201518160080155610120820151816009015561014082015181600a01555050610a5a8f6119c7565b7f64b1990245accd502365916f65e5fcd03e71f750f7fcb75f88e699b5c067b8d98f8f8f8f8f8f8f8f8f8f8f8f60405180806020018d81526020018c81526020018b8152602001806020018a815260200189815260200188815260200187815260200186815260200185815260200184815260200183810383528f818151815260200191508051906020019080838360005b83811015610b07578082015181840152602081019050610aec565b50505050905090810190601f168015610b345780820380516001836020036101000a031916815260200191505b5083810382528b818151815260200191508051906020019080838360005b83811015610b6d578082015181840152602081019050610b52565b50505050905090810190601f168015610b9a5780820380516001836020036101000a031916815260200191505b509e50505050505050505050505050505060405180910390a1505050505050505050505050505050565b600080600060606000806000806000806000610bde611023565b73ffffffffffffffffffffffffffffffffffffffff163373ffffffffffffffffffffffffffffffffffffffff1614610c1557600080fd5b6000610c218e8e611a42565b90507fffffffffffffffffffffffffffffffffffffffffffffffffffffffffffffffff8114610e6057610c52611e1e565b60038f6040518082805190602001908083835b60208310610c885780518252602082019150602081019050602083039250610c65565b6001836020036101000a03801982511681845116808217855250505050505090500191505090815260200160405180910390208281548110610cc657fe5b90600052602060002090600b020160405180610160016040529081600082015481526020016001820154815260200160028201548152602001600382018054600181600116156101000203166002900480601f016020809104026020016040519081016040528092919081815260200182805460018160011615610100020316600290048015610d975780601f10610d6c57610100808354040283529160200191610d97565b820191906000526020600020905b815481529060010190602001808311610d7a57829003601f168201915b50505050508152602001600482015481526020016005820154815260200160068201548152602001600782015481526020016008820154815260200160098201548152602001600a82015481525050905080600001519c5080602001519b5080604001519a5080606001519950806080015198508060a0015197508060c0015196508060e0015195508061010001519450806101200151935080610140015192508c8c8c8c8c8c8c8c8c8c8c9c509c509c509c509c509c509c509c509c509c509c505050610e62565b505b9295989b509295989b9093969950565b610e7a611023565b73ffffffffffffffffffffffffffffffffffffffff163373ffffffffffffffffffffffffffffffffffffffff1614610eb157600080fd5b6000610ebd8484611a42565b90507fffffffffffffffffffffffffffffffffffffffffffffffffffffffffffffffff811461101d57816003856040518082805190602001908083835b60208310610f1d5780518252602082019150602081019050602083039250610efa565b6001836020036101000a03801982511681845116808217855250505050505090500191505090815260200160405180910390208281548110610f5b57fe5b90600052602060002090600b0201600a01819055507f4aaf47da2b830ec7cb39ceac30735c6b5f91912852a2fcbedca8fb36ea7509398484846040518080602001848152602001838152602001828103825285818151815260200191508051906020019080838360005b83811015610fe0578082015181840152602081019050610fc5565b50505050905090810190601f16801561100d5780820380516001836020036101000a031916815260200191505b5094505050505060405180910390a15b50505050565b60008060009054906101000a900473ffffffffffffffffffffffffffffffffffffffff16905090565b6000809054906101000a900473ffffffffffffffffffffffffffffffffffffffff1673ffffffffffffffffffffffffffffffffffffffff163373ffffffffffffffffffffffffffffffffffffffff16146110f1576040517f08c379a0000000000000000000000000000000000000000000000000000000008152600401808060200182810382526039815260200180611f436039913960400191505060405180910390fd5b806000806101000a81548173ffffffffffffffffffffffffffffffffffffffff021916908373ffffffffffffffffffffffffffffffffffffffff16021790555050565b606061113e611023565b73ffffffffffffffffffffffffffffffffffffffff163373ffffffffffffffffffffffffffffffffffffffff161461117557600080fd5b606060405180602001604052806000815250905060008090505b6004846040518082805190602001908083835b602083106111c557805182526020820191506020810190506020830392506111a2565b6001836020036101000a0380198251168184511680821785525050505050509050019150509081526020016040518091039020548110156113885760606112906003866040518082805190602001908083835b6020831061123b5780518252602082019150602081019050602083039250611218565b6001836020036101000a0380198251168184511680821785525050505050509050019150509081526020016040518091039020838154811061127957fe5b90600052602060002090600b020160000154611c07565b905082816040516020018083805190602001908083835b602083106112ca57805182526020820191506020810190506020830392506112a7565b6001836020036101000a03801982511681845116808217855250505050505090500182805190602001908083835b6020831061131b57805182526020820191506020810190506020830392506112f8565b6001836020036101000a038019825116818451168082178552505050505050905001807f2c0000000000000000000000000000000000000000000000000000000000000081525060010192505050604051602081830303815290604052925050808060010191505061118f565b5080915050919050565b600061139c611023565b73ffffffffffffffffffffffffffffffffffffffff163373ffffffffffffffffffffffffffffffffffffffff16146113d357600080fd5b6004826040518082805190602001908083835b6020831061140957805182526020820191506020810190506020830392506113e6565b6001836020036101000a0380198251168184511680821785525050505050509050019150509081526020016040518091039020549050919050565b61144c611023565b73ffffffffffffffffffffffffffffffffffffffff163373ffffffffffffffffffffffffffffffffffffffff161461148357600080fd5b818161148f8183611d4b565b611501576040517f08c379a00000000000000000000000000000000000000000000000000000000081526004018080602001828103825260158152602001807f436c69656e7420616c726561647920657869737473000000000000000000000081525060200191505060405180910390fd5b836001846040518082805190602001908083835b602083106115385780518252602082019150602081019050602083039250611515565b6001836020036101000a038019825116818451168082178552505050505050905001915050908152602001604051809103902060000160006101000a81548173ffffffffffffffffffffffffffffffffffffffff021916908373ffffffffffffffffffffffffffffffffffffffff160217905550826001846040518082805190602001908083835b602083106115e357805182526020820191506020810190506020830392506115c0565b6001836020036101000a0380198251168184511680821785525050505050509050019150509081526020016040518091039020600101908051906020019061162c929190611e78565b50600180846040518082805190602001908083835b602083106116645780518252602082019150602081019050602083039250611641565b6001836020036101000a038019825116818451168082178552505050505050905001915050908152602001604051809103902060020160006101000a81548160ff021916908315150217905550836002846040518082805190602001908083835b602083106116e857805182526020820191506020810190506020830392506116c5565b6001836020036101000a038019825116818451168082178552505050505050905001915050908152602001604051809103902060006101000a81548173ffffffffffffffffffffffffffffffffffffffff021916908373ffffffffffffffffffffffffffffffffffffffff16021790555060006004846040518082805190602001908083835b60208310611791578051825260208201915060208101905060208303925061176e565b6001836020036101000a0380198251168184511680821785525050505050509050019150509081526020016040518091039020819055507f11ada27156286ec17e2b313f3687beba84ab19beba84f020e2938ed46737d7ae8484604051808373ffffffffffffffffffffffffffffffffffffffff1673ffffffffffffffffffffffffffffffffffffffff16815260200180602001828103825283818151815260200191508051906020019080838360005b8381101561185d578082015181840152602081019050611842565b50505050905090810190601f16801561188a5780820380516001836020036101000a031916815260200191505b50935050505060405180910390a150505050565b600080600090505b6004846040518082805190602001908083835b602083106118dc57805182526020820191506020810190506020830392506118b9565b6001836020036101000a0380198251168184511680821785525050505050509050019150509081526020016040518091039020548110156119bb576003846040518082805190602001908083835b6020831061194d578051825260208201915060208101905060208303925061192a565b6001836020036101000a0380198251168184511680821785525050505050509050019150509081526020016040518091039020818154811061198b57fe5b90600052602060002090600b0201600001548314156119ae5760009150506119c1565b80806001019150506118a6565b50600190505b92915050565b60016004826040518082805190602001908083835b602083106119ff57805182526020820191506020810190506020830392506119dc565b6001836020036101000a03801982511681845116808217855250505050505090500191505090815260200160405180910390206000828254019250508190555050565b6000611a4c611023565b73ffffffffffffffffffffffffffffffffffffffff163373ffffffffffffffffffffffffffffffffffffffff1614611a8357600080fd5b8160008111611add576040517f08c379a0000000000000000000000000000000000000000000000000000000008152600401808060200182810382526025815260200180611f1e6025913960400191505060405180910390fd5b60008090505b6004856040518082805190602001908083835b60208310611b195780518252602082019150602081019050602083039250611af6565b6001836020036101000a038019825116818451168082178552505050505050905001915050908152602001604051809103902054811215611bdb576004856040518082805190602001908083835b60208310611b8a5780518252602082019150602081019050602083039250611b67565b6001836020036101000a038019825116818451168082178552505050505050905001915050908152602001604051809103902054841415611bce5780925050611c00565b8080600101915050611ae3565b507fffffffffffffffffffffffffffffffffffffffffffffffffffffffffffffffff91505b5092915050565b60606000821415611c4f576040518060400160405280600181526020017f30000000000000000000000000000000000000000000000000000000000000008152509050611d46565b600082905060005b60008214611c79578080600101915050600a8281611c7157fe5b049150611c57565b60608167ffffffffffffffff81118015611c9257600080fd5b506040519080825280601f01601f191660200182016040528015611cc55781602001600182028036833780820191505090505b50905060006001830390505b60008614611d3e57600a8681611ce357fe5b0660300160f81b82828060019003935081518110611cfd57fe5b60200101907effffffffffffffffffffffffffffffffffffffffffffffffffffffffffffff1916908160001a905350600a8681611d3657fe5b049550611cd1565b819450505050505b919050565b60008173ffffffffffffffffffffffffffffffffffffffff166002846040518082805190602001908083835b60208310611d9a5780518252602082019150602081019050602083039250611d77565b6001836020036101000a038019825116818451168082178552505050505050905001915050908152602001604051809103902060009054906101000a900473ffffffffffffffffffffffffffffffffffffffff1673ffffffffffffffffffffffffffffffffffffffff161415611e135760009050611e18565b600190505b92915050565b60405180610160016040528060008152602001600081526020016000815260200160608152602001600081526020016000815260200160008152602001600081526020016000815260200160008152602001600081525090565b828054600181600116156101000203166002900490600052602060002090601f016020900481019282601f10611eb957805160ff1916838001178555611ee7565b82800160010185558215611ee7579182015b82811115611ee6578251825591602001919060010190611ecb565b5b509050611ef49190611ef8565b5090565b611f1a91905b80821115611f16576000816000905550600101611efe565b5090565b9056fe496e766f696365206e756d626572206d7573742062652067726561746572207468616e20304f6e6c7920746865206f776e6572206f662074686520636f6e74726163742063616e206578656375746520746869732066756e6374696f6e2ea264697066735822122087da21cf366836352e16814ab681e814506981b2323144f1a11117ec029e3fed64736f6c63430006060033",
  "source": "pragma solidity 0.6.6;\n\nimport \"./Owned.sol\";\n\n\n/// @title Invoice Tracking contract\n/// @author Denis M. Putnam\n/// @notice This contract tracks invoices for payment\n/// @dev Use at your own risk.\ncontract InvoiceTracker is Owned {\n    /// @notice Invoice struct\n    struct Invoice {\n        uint256 invoiceNumber;\n        uint256 netTerms; // 30, 60 90, 120 days net\n        uint256 numberHours;\n        string amount;\n        uint256 timesheetEndDate;\n        uint256 invoiceSentDate;\n        uint256 due30DaysDate;\n        uint256 due60DaysDate;\n        uint256 due90DaysDate;\n        uint256 due120DaysDate;\n        uint256 datePmtReceived;\n    }\n\n    /// @notice Client struct\n    struct Client {\n        address clientID;\n        string name;\n        bool flag;\n    }\n\n    /// @notice map the name of the client to the Client struct\n    mapping(string => Client) private clientMap;\n    /// @notice map the name of the client to the client address\n    mapping(string => address) private clientNameAddressMap;\n    /// @notice map the name of the client to invoices. this isa one to many mapping.\n    mapping(string => Invoice[]) private clientNameInvoiceMap;\n    /// @notice map the name of the client to an invoice count\n    mapping(string => uint256) private clientNameInvoiceCountMap;\n\n    /// @author Denis M. Putnam\n    /// @notice The constructor for this contract\n    /// @dev no other details\n    constructor() public payable Owned() {}\n\n    event addClientEvent(address _clientID, string _name);\n\n    /// @author Denis M. Putnam\n    /// @notice Check for no client.\n    /// @param _clientName name of the client.\n    /// @param _clientID clients wallet address.\n    /// @dev no other details.\n    function isNoClient(string memory _clientName, address _clientID)\n        private\n        view\n        returns (bool)\n    {\n        if (clientNameAddressMap[_clientName] == _clientID) {\n            return false;\n        }\n        return true;\n    }\n\n    modifier noDupClient(address _clientID, string memory _clientName) {\n        require(isNoClient(_clientName, _clientID), \"Client already exists\");\n        _;\n    }\n\n    modifier onlyOwner() {\n      require(msg.sender == getCurrentOwner());\n      _;\n    }\n\n    /// @author Denis M. Putnam\n    /// @notice Add a client to this contract.\n    /// @param _clientID address of the wallet of the client.\n    /// @param _name string with the client's name.  This needs to be unique\n    /// @dev Add's a client to the clientMap and the clientNameAddressMap\n    function addClient(address _clientID, string memory _name)\n        public\n        onlyOwner()\n        noDupClient(_clientID, _name)\n    {\n        clientMap[_name].clientID = _clientID;\n        clientMap[_name].name = _name;\n        clientMap[_name].flag = true;\n        clientNameAddressMap[_name] = _clientID;\n        clientNameInvoiceCountMap[_name] = 0;\n        emit addClientEvent(_clientID, _name);\n    }\n\n    /// @author Denis M. Putnam\n    /// @notice Check for no duplicate invoice.\n    /// @param _clientName name of the client.\n    /// @param _invoiceNumber invoice number.\n    /// @dev no other details.\n    function isNoDuplicateInvoice(\n        string memory _clientName,\n        uint256 _invoiceNumber\n    ) private view returns (bool) {\n        for (uint256 i = 0; i < clientNameInvoiceCountMap[_clientName]; i++) {\n            // if (_invoiceNumber == clientInvoiceMap[_clientName][i]) {\n            //     return false;\n            // }\n            if (\n                _invoiceNumber ==\n                clientNameInvoiceMap[_clientName][i].invoiceNumber\n            ) {\n                return false;\n            }\n        }\n        return true;\n    }\n\n    modifier noDupInvoice(string memory _clientName, uint256 _invoiceNumber) {\n        require(\n            isNoDuplicateInvoice(_clientName, _invoiceNumber),\n            \"Duplicate invoice\"\n        );\n        _;\n    }\n\n    event addInvoiceEvent(\n        string _clientName,\n        uint256 _invoiceNumber,\n        uint256 _netTerms,\n        uint256 _numberHours,\n        string _amount,\n        uint256 _timesheetEndDate,\n        uint256 _invoiceSentDate,\n        uint256 _due30DaysDate,\n        uint256 _due60DaysDate,\n        uint256 _due90DaysDate,\n        uint256 _due120DaysDate,\n        uint256 _datePmtReceived\n    );\n\n    event updateInvoiceEvent(\n        string _clientName,\n        uint256 _invoiceNumber,\n        uint256 _datePmtReceived\n    );\n\n    /// @author Denis M. Putnam\n    /// @notice Add an invoice to track\n    /// @param _clientName name of the client\n    /// @param _invoiceNumber invoice number\n    /// @param _netTerms net terms for 30, 60, 90, or 120 days.\n    /// @param _numberHours number of hours for the timesheet.\n    /// @param _amount amount in dollars.\n    /// @param _timesheetEndDate timesheet end date\n    /// @param _invoiceSentDate date that invoice was sent to the client.\n    /// @param _due30DaysDate 30 day invoice due date\n    /// @param _due60DaysDate 60 day invoice due date\n    /// @param _due90DaysDate 90 day invoice due date\n    /// @param _due120DaysDate 120 day invoice due date\n    /// @param _datePmtReceived date of actual payment\n    /// @dev Add's an invoice to be tracked.\n    function addInvoice(\n        string memory _clientName,\n        uint256 _invoiceNumber,\n        uint256 _netTerms,\n        uint256 _numberHours,\n        string memory _amount,\n        uint256 _timesheetEndDate,\n        uint256 _invoiceSentDate,\n        uint256 _due30DaysDate,\n        uint256 _due60DaysDate,\n        uint256 _due90DaysDate,\n        uint256 _due120DaysDate,\n        uint256 _datePmtReceived\n    ) public onlyOwner() noDupInvoice(_clientName, _invoiceSentDate) {\n        Invoice memory newInvoice;\n        newInvoice.invoiceNumber = _invoiceNumber;\n        newInvoice.netTerms = _netTerms;\n        newInvoice.numberHours = _numberHours;\n        newInvoice.amount = _amount;\n        newInvoice.timesheetEndDate = _timesheetEndDate;\n        newInvoice.invoiceSentDate = _invoiceSentDate;\n        newInvoice.due30DaysDate = _due30DaysDate;\n        newInvoice.due60DaysDate = _due60DaysDate;\n        newInvoice.due90DaysDate = _due90DaysDate;\n        newInvoice.due120DaysDate = _due120DaysDate;\n        newInvoice.datePmtReceived = _datePmtReceived;\n        clientNameInvoiceMap[_clientName].push(newInvoice);\n\n        incremmentInvoiceCount(_clientName);\n        //clientNameInvoiceCountMap[_clientName] += 1;\n\n        emit addInvoiceEvent(\n            _clientName,\n            _invoiceNumber,\n            _netTerms,\n            _numberHours,\n            _amount,\n            _timesheetEndDate,\n            _invoiceSentDate,\n            _due30DaysDate,\n            _due60DaysDate,\n            _due90DaysDate,\n            _due120DaysDate,\n            _datePmtReceived\n        );\n    }\n\n    function incremmentInvoiceCount(string memory _clientName) private {\n        clientNameInvoiceCountMap[_clientName] += 1;\n    }\n\n    /// @author Denis M. Putnam\n    /// @notice Get the count of invoices associated with the given client name\n    /// @param _clientName name of the client\n    /// @dev no other details.\n    function getInvoiceCount(string memory _clientName)\n        onlyOwner()\n        public\n        view\n        returns (uint256 count)\n    {\n        count = clientNameInvoiceCountMap[_clientName];\n    }\n\n    /// @author Denis M. Putnam\n    /// @notice Get the list of invoice numbers as a string for the given client name.\n    /// @param _clientName name of the client\n    /// @dev returned string is a comma separated string of invoice numbers.  The comma is also the end of the string if no other values appear.\n    function getInvoiceNumbers(string memory _clientName)\n        onlyOwner()\n        public\n        view\n        returns (string memory)\n    {\n        string memory rVal = \"\";\n        for (uint256 i = 0; i < clientNameInvoiceCountMap[_clientName]; i++) {\n            string memory tstring = uint2str(\n                clientNameInvoiceMap[_clientName][i].invoiceNumber\n            );\n            // string tstring = string(lbytes32);\n            //rVal = string(abi.encodePacked(rVal, tstring, \",\"));\n            rVal = string(abi.encodePacked(rVal, tstring, \",\"));\n        }\n        return rVal;\n    }\n\n    modifier isInvoiceNumber(uint256 _invoiceNumber) {\n        require( _invoiceNumber > 0, \"Invoice number must be greater than 0\");\n        _;\n    }\n\n    function findInvoiceIndex(string memory _clientName, uint256 _invoiceNumber)\n        onlyOwner()\n        isInvoiceNumber(_invoiceNumber)\n        private\n        view\n        returns (int256 index)\n    {\n        for (int256 i = 0; i < int256(clientNameInvoiceCountMap[_clientName]); i++) {\n            if (_invoiceNumber == clientNameInvoiceCountMap[_clientName]) {\n                return i;\n            }\n        }\n        return -1;\n    }\n\n    /// @author Denis M. Putnam\n    /// @notice Update an invoice with the payment date\n    /// @param _clientName name of the client\n    /// @param _invoiceNumber invoice number being requested.\n    /// @param _invoicePmtDate payment date\n    /// @dev no other details\n    function updateInvoice(string memory _clientName, uint256 _invoiceNumber, uint256 _invoicePmtDate)\n      onlyOwner()\n      public\n    {\n        int256 _index = findInvoiceIndex(_clientName, _invoiceNumber);\n        if (_index != -1) {\n            clientNameInvoiceMap[_clientName][uint256(_index)].datePmtReceived = _invoicePmtDate;\n            emit updateInvoiceEvent(_clientName, _invoiceNumber, _invoicePmtDate);\n        }\n    }\n\n    /// @author Denis M. Putnam\n    /// @notice Get an invoice\n    /// @param _clientName name of the client\n    /// @param _invoiceNumber invoice number being requested.\n    /// @dev no other details\n    function getInvoice(string memory _clientName, uint256 _invoiceNumber)\n        onlyOwner()\n        public\n        view\n        returns (\n            uint256 invoiceNumber,\n            uint256 netTerms,\n            uint256 numberHours,\n            string memory amount,\n            uint256 timesheetEndDate,\n            uint256 invoiceSentDate,\n            uint256 due30DaysDate,\n            uint256 due60DaysDate,\n            uint256 due90DaysDate,\n            uint256 due120DaysDate,\n            uint256 datePmtReceived\n        )\n    {\n        int256 _index = findInvoiceIndex(_clientName, _invoiceNumber);\n        if (_index != -1) {\n            Invoice memory lInvoice = clientNameInvoiceMap[_clientName][uint256(\n                _index\n            )];\n            invoiceNumber = lInvoice.invoiceNumber;\n            netTerms = lInvoice.netTerms;\n            numberHours = lInvoice.numberHours;\n            amount = lInvoice.amount;\n            timesheetEndDate = lInvoice.timesheetEndDate;\n            invoiceSentDate = lInvoice.invoiceSentDate;\n            due30DaysDate = lInvoice.due30DaysDate;\n            due60DaysDate = lInvoice.due60DaysDate;\n            due90DaysDate = lInvoice.due90DaysDate;\n            due120DaysDate = lInvoice.due120DaysDate;\n            datePmtReceived = lInvoice.datePmtReceived;\n            return (\n                invoiceNumber,\n                netTerms,\n                numberHours,\n                amount,\n                timesheetEndDate,\n                invoiceSentDate,\n                due30DaysDate,\n                due60DaysDate,\n                due90DaysDate,\n                due120DaysDate,\n                datePmtReceived\n            );\n        }\n    }\n\n    /// @author Denis M. Putnam\n    /// @notice Convert a uint256 to a string.\n    /// @param _i contains the uint256 value to be converted to a string.\n    /// @dev This code was taken from https://github.com/provable-things/ethereum-api/blob/master/oraclizeAPI_0.5.sol\n    function uint2str(uint256 _i)\n        internal\n        pure\n        returns (string memory _uintAsString)\n    {\n        if (_i == 0) {\n            return \"0\";\n        }\n        uint256 j = _i;\n        uint256 len;\n        while (j != 0) {\n            len++;\n            j /= 10;\n        }\n        bytes memory bstr = new bytes(len);\n        uint256 k = len - 1;\n        while (_i != 0) {\n            bstr[k--] = bytes1(uint8(48 + (_i % 10)));\n            _i /= 10;\n        }\n        return string(bstr);\n    }\n}\n",
  "sourcePath": "/Users/denisputnam/git/APDF-invoice-tracker-dapp/contracts/InvoiceTracker.sol",
  "compiler": {
    "name": "solc",
    "version": "0.6.6+commit.6c089d02.Emscripten.clang"
  },
  "schemaVersion": "3.0.23",
  "updatedAt": "2020-05-05T20:45:11.828Z",
  "devdoc": {
    "author": "Denis M. Putnam",
    "details": "Use at your own risk.",
    "methods": {
      "addClient(address,string)": {
        "author": "Denis M. Putnam",
        "details": "Add's a client to the clientMap and the clientNameAddressMap",
        "params": {
          "_clientID": "address of the wallet of the client.",
          "_name": "string with the client's name.  This needs to be unique"
        }
      },
      "addInvoice(string,uint256,uint256,uint256,string,uint256,uint256,uint256,uint256,uint256,uint256,uint256)": {
        "author": "Denis M. Putnam",
        "details": "Add's an invoice to be tracked.",
        "params": {
          "_amount": "amount in dollars.",
          "_clientName": "name of the client",
          "_datePmtReceived": "date of actual payment",
          "_due120DaysDate": "120 day invoice due date",
          "_due30DaysDate": "30 day invoice due date",
          "_due60DaysDate": "60 day invoice due date",
          "_due90DaysDate": "90 day invoice due date",
          "_invoiceNumber": "invoice number",
          "_invoiceSentDate": "date that invoice was sent to the client.",
          "_netTerms": "net terms for 30, 60, 90, or 120 days.",
          "_numberHours": "number of hours for the timesheet.",
          "_timesheetEndDate": "timesheet end date"
        }
      },
      "changeOwner(address)": {
        "author": "Denis M. Putnam",
        "details": "No other details.",
        "params": {
          "newOwner": "new address payable owner."
        }
      },
      "constructor": {
        "author": "Denis M. Putnam",
        "details": "no other details"
      },
      "getCurrentOwner()": {
        "author": "Denis M. Putnam",
        "details": "No other details.",
        "returns": {
          "_0": "address current owner."
        }
      },
      "getInvoice(string,uint256)": {
        "author": "Denis M. Putnam",
        "details": "no other details",
        "params": {
          "_clientName": "name of the client",
          "_invoiceNumber": "invoice number being requested."
        }
      },
      "getInvoiceCount(string)": {
        "author": "Denis M. Putnam",
        "details": "no other details.",
        "params": {
          "_clientName": "name of the client"
        }
      },
      "getInvoiceNumbers(string)": {
        "author": "Denis M. Putnam",
        "details": "returned string is a comma separated string of invoice numbers.  The comma is also the end of the string if no other values appear.",
        "params": {
          "_clientName": "name of the client"
        }
      },
      "updateInvoice(string,uint256,uint256)": {
        "author": "Denis M. Putnam",
        "details": "no other details",
        "params": {
          "_clientName": "name of the client",
          "_invoiceNumber": "invoice number being requested.",
          "_invoicePmtDate": "payment date"
        }
      }
    },
    "title": "Invoice Tracking contract"
  },
  "userdoc": {
    "methods": {
      "addClient(address,string)": {
        "notice": "Add a client to this contract."
      },
      "addInvoice(string,uint256,uint256,uint256,string,uint256,uint256,uint256,uint256,uint256,uint256,uint256)": {
        "notice": "Add an invoice to track"
      },
      "changeOwner(address)": {
        "notice": "Change the current owner to the new owner."
      },
      "constructor": "The constructor for this contract",
      "getCurrentOwner()": {
        "notice": "Get the current owner."
      },
      "getInvoice(string,uint256)": {
        "notice": "Get an invoice"
      },
      "getInvoiceCount(string)": {
        "notice": "Get the count of invoices associated with the given client name"
      },
      "getInvoiceNumbers(string)": {
        "notice": "Get the list of invoice numbers as a string for the given client name."
      },
      "updateInvoice(string,uint256,uint256)": {
        "notice": "Update an invoice with the payment date"
      }
    },
    "notice": "This contract tracks invoices for payment"
  }
}